:020000040000FA
:100000000C944F050C9477050C9477050C947705A8
:100010000C9477050C9477050C9477050C94770570
:100020000C9477050C9477050C94ED0B0C945C0CF8
:100030000C9477050C9477050C9477050C94770550
:100040000C9477050C9477050C9477050C94770540
:100050000C9477050C9477050C9477050C94241078
:100060000C9477050C9477050C9477050C94770520
:100070000C9477050C9477050C9477050C94770510
:100080000C946E100C9477050C9477050C947705FE
:100090000C9477050C9477050C9477050C947705F0
:1000A0000C9477050C948E0E0C94770500000000DC
:1000B000003E5B4F5B3E3E6B4F6B3E1C3E7C3E1CEE
:1000C000183C7E3C181C577D571C1C5E7F5E1C0034
:1000D000183C1800FFE7C3E7FF0018241800FFE7EB
:1000E000DBE7FF30483A060E2629792926407F05AE
:1000F0000507407F05253F5A3CE73C5A7F3E1C1CC4
:1001000008081C1C3E7F14227F22145F5F005F5F83
:1001100006097F017F006689956A6060606060946F
:10012000A2FFA29408047E040810207E2010080874
:100130002A1C08081C2A08081E101010100C1E0C7F
:100140001E0C30383E3830060E3E0E060000000011
:100150000000005F00000007000700147F147F14F8
:10016000242A7F2A1223130864623649562050003D
:1001700008070300001C2241000041221C002A1C29
:100180007F1C2A08083E0808008070300008080814
:100190000808000060600020100804023E51494534
:1001A0003E00427F400072494949462141494D3352
:1001B0001814127F1027454545393C4A49493141B9
:1001C000211109073649494936464949291E000087
:1001D00014000000403400000008142241141414DC
:1001E0001414004122140802015909063E415D59C8
:1001F0004E7C1211127C7F494949363E41414122D1
:100200007F4141413E7F494949417F090909013EFA
:10021000414151737F0808087F00417F4100204021
:10022000413F017F081422417F404040407F021C33
:10023000027F7F0408107F3E4141413E7F0909094A
:10024000063E4151215E7F09192946264949493216
:1002500003017F01033F4040403F1F2040201F3FDC
:100260004038403F63140814630304780403615961
:10027000494D43007F4141410204081020004141A3
:10028000417F04020102044040404040000307084F
:100290000020545478407F2844443838444444284B
:1002A000384444287F385454541800087E090218F2
:1002B000A4A49C787F0804047800447D400020407A
:1002C000403D007F1028440000417F40007C0478BE
:1002D00004787C080404783844444438FC18242406
:1002E0001818242418FC7C08040408485454542486
:1002F00004043F44243C4040207C1C2040201C3C03
:100300004030403C44281028444C9090907C4464F9
:10031000544C44000836410000007700000041368C
:10032000080002010204023C2623263C1EA1A16112
:10033000123A4040207A3854545559215555794144
:100340002154547841215554784020545579400C1B
:100350001E527212395555555939545454593955FC
:100360005454580000457C410002457D420001453F
:100370007C40F0292429F0F0282528F07C545545AC
:10038000002054547C547C0A097F4932494949323F
:100390003248484832324A4848303A4141217A3A54
:1003A00042402078009DA0A07D39444444393D401E
:1003B00040403D3C24FF2424487E4943662B2FFCCB
:1003C0002F2BFF0929F620C0887E09032054547979
:1003D000410000447D413048484A32384040227A4A
:1003E000007A0A0A727D0D19317D2629292F2826C7
:1003F0002929292630484D402038080808080808CF
:100400000808382F10C8ACBA2F102834FA00007B27
:10041000000008142A142222142A1408950022002D
:1004200095AA005500AAAA55AA55AA000000FF00E7
:10043000101010FF00141414FF001010FF00FF1024
:1004400010F010F0141414FC001414F700FF000056
:10045000FF00FF1414F404FC141417101F10101FD5
:10046000101F1414141F00101010F0000000001FC3
:10047000101010101F10101010F010000000FF10CE
:100480001010101010101010FF10000000FF1400CA
:1004900000FF00FF00001F10170000FC04F41414FC
:1004A0001710171414F404F40000FF00F7141414C8
:1004B00014141414F700F7141414171410101F1048
:1004C0001F141414F4141010F010F000001F101F6B
:1004D0000000001F14000000FC140000F010F010D9
:1004E00010FF10FF141414FF141010101F00000050
:1004F00000F010FFFFFFFFFFF0F0F0F0F0FFFFFF54
:100500000000000000FFFF0F0F0F0F0F38444438AA
:10051000447C2A2A3E147E02020606027E027E02E5
:1005200063554941633844443C04407E201E200604
:10053000027E020299A5E7A5991C2A492A1C4C7241
:1005400001724C304A4D4D303048784830BC625AC8
:10055000463D3E494949007E0101017E2A2A2A2A58
:100560002A44445F444440514A444040444A514034
:100570000000FF0103E080FF000008086B6B0836F5
:1005800012362436060F090F060000181800000066
:100590001010003040FF0101001F01011E00191D55
:1005A0001712003C3C3C3C0000000000F0F89C8E20
:1005B0008783878E9CF8F00000FEFF03030303038C
:1005C000070EFCF80000FEFF0303030303070EFC05
:1005D000F80000FFFF00000000000000FFFF000027
:1005E000FEFF8383838383C7EE7C380000F8FC0E14
:1005F00007030303070EFCF800003F7FE0C0808084
:10060000C0E07F3FFFFF01010101010101FFFF0089
:1006100000FFFF0C0C0C0C1C3E77E3C100007FFFB9
:10062000C0C0C0C0C0E0703F1F00001F3F70E0C0EE
:10063000C0C0E0703F1F00007FFFC1C1C1C1C1E366
:10064000773E1C00001F3F70E0C0C0C0E0703F1F3D
:10065000000000000001FFFF01000000D5F08D1434
:10066000A1C881CFD9F1AF2000C0A0D92181FFA8B6
:1006700000A800A83F776080000000000000008014
:10068000000000000000008000000000000000806A
:100690000000000000000080000000000000007E5C
:1006A00000613B333B4343800000000000000080BA
:1006B0000000000000000080007F713C262A378087
:1006C000056A564952483D80075B472F483F3C80AA
:1006D000065546315058440F1E18391D51573D14C8
:1006E0008E14472544613D16AF2E3B2737634C17C8
:1006F000682D3727396A49186F263A2E376A441809
:10070000641B4032346A401739154037317435154F
:100710002C06503A2A74341226084D3C26763010A6
:1007200012035621425C3E0E020A3B27535A370EF3
:10073000001E3D2A3E51521400213E32324E4D0ED3
:10074000001B38403B424D800853345049394180AA
:10075000065A374943424580014F42413C47440DC8
:1007600001844E38384D4611068F67392F484B1497
:10077000028E5A443148462100863E3E4D3D441487
:1007800000312D2F463E4480055A464F5031400BD4
:10079000043C3E5445303C10023547534542451217
:1007A00001965D6233295117089BF1205A1D571895
:1007B0001C8D6C2E49394E1827084D343F5446196C
:1007C000321B3E204E5A41182F2B381A40614B17CE
:1007D000202B3E0E425B50140C1E44084E584C1009
:1007E00006183D164E5E420F030A45165F503F0D38
:1007F000052C4E33413948040C32554942424507D5
:100800000C39573F3247370A0E364F4146403A14AB
:100810000944533F3D3C3E0A003E3C48443C3A16A6
:1008200019865F325426581C158D642A6125512083
:100830000693535946264E21059455564B29482078
:1008400002965452512E411E029A62584D1E4C1C63
:10085000059C7A434E1D521B13946E413B36501B30
:100860002B05522C4650471A2418402445653E1843
:1008700022253B1A40614618292B3A113E5C51173C
:100880001F2F360A415D531512323207455D521152
:100890000F362A0A445D50130228231D485E421475
:1008A0000028321151574780066A2B314131398077
:1008B000217440373C3E3F8008793A1E37524C0C39
:1008C0000E004E235A4C3E2B140056284950452901
:1008D00019005A24445C3F091385612E355E400897
:1008E0001386662043603806128861312D702C050E
:1008F00006947D1942632C05008B641B4D5933050A
:1009000000154C2D314D4C80002544313B3E4C05AB
:1009100000183B3B3F453F4A004040413141418048
:100920000000000000000080000000000000004304
:1009300000143B373A3B486700182F3B3D3A4C1BAD
:100940000018343D4338457000274A284A383C8017
:10095000000000000000002200273A483E3E41808F
:100960000000000000000080000000000000008087
:10097000000000000000007E004040404040400079
:100980000035423F404040180036363636363D008E
:1009900000303934413A3602003A473A3937323575
:1009A0000038403C3D3A3B50002C38333E343F0049
:1009B000002E443F3F442E800000000000000080D5
:1009C0000000000000000080000000000000008027
:1009D0000000000000000080000000000000008017
:1009E0000000000000000080000000000000008007
:1009F00000000000000000230029262C414544008F
:100A00000016323D454433800000000000000080A5
:100A10000000000000000080000000000000000056
:100A200000003F403F404080000000000000000800
:100A30000B00020202000009040000010202000093
:100A400005240010010524010101042402060524E7
:100A50000600010705810310004009040100020A95
:100A60000000000705020240000007058302400065
:100A7000000403090412010002EF02014041233681
:100A80008000010102030141726475696E6F204CA0
:100A90004C430041726475626F790000B8101124F4
:100AA0001FBECFEFDAE0DEBFCDBF12E0A0E0B1E0C5
:100AB000E4E4F4E402C005900D92A437B107D9F73D
:100AC00027E0A4E7B2E001C01D92A436B207E1F727
:100AD00015E0CFE4D5E004C02197FE010E94132267
:100AE000CE34D107C9F70E94FD100C9420220C943B
:100AF0000000FC0122853385818560910E0770E03E
:100B000093E0899F600D711D1124C9010E94EB21A2
:100B1000892B31F480859781891738F48F5F80871E
:100B20002F5F3F4F33872287089515869087F8CF30
:100B30002F923F924F925F926F927F928F929F92ED
:100B4000AF92BF92CF92DF92EF92FF920F931F93DB
:100B5000CF93DF9300D000D0CDB7DEB76A01E62E89
:100B600043E0442EAEE0B3E0F22FBB24682E96950E
:100B700096959695E1E001FDE4E000FDEE0F02FDA3
:100B8000E2955FEF5E9F10012094309415950795D4
:100B90001595079515950795402F4F3F4CF44095B7
:100BA000941B40FC440F489FC00CD11CEB1C4FEF22
:100BB00037FF0BC0620E40FE02C0220F331FC21A65
:100BC000D30AEB0837FDE394FF2750E845030F0EE7
:100BD000A00DB11D5F1B651608F0652E57E0541B74
:100BE000591714F4952FB39450E85619682F7727A6
:100BF00041FC02C06619770B40FE02C0660F771FEA
:100C00001124A42EFE2E00900C03D00C00900D0396
:100C1000E01C19C0599843E04EBDC60ED71EE11C1A
:100C20007724861509F073940CD0EEBC07D0DEBC97
:100C300005D0CEBC03D01EBC03D00895C8950000DB
:100C4000C895C8950895C61AD70AE108E3DFA1142C
:100C50001CF0992371F564C0A058BF4F962C40FC3E
:100C60000CC02EB51EBC2F9D8C90832081288D92A8
:100C7000C89500C09A94A9F711C02EB51EBC2F9D2F
:100C80009001DEDF2EB41EBC2F9C10018C9030949E
:100C90008320832A8D92C8959A9479F71124A619F6
:100CA000B1099A9509F45CC0772019F00DB4599AEE
:100CB000B1DFFD01E058FF4F962C40FC0EC02EB571
:100CC0001EBC2F9D8C90822080288D928080832056
:100CD000812881929A9499F716C02EB51EBC2F9D3B
:100CE00090018C903080AEDF00C02EB41EBC2F9CD3
:100CF00000948020822A8D9210943120332A3192E0
:100D000000009A9451F71124A50FB11D9A9561F630
:100D1000BB2031F1772021F00DB4599A7BDFC895C3
:100D200040FC0CC02EB51EBC2F9D8C9082208028CC
:100D30008D92C89500C06A94A9F712C02EB51EBC4A
:100D40002F9D90017DDF9EB51EBC9F9D902D8C90A8
:100D500090958922822A8D92C8956A9479F7C895D0
:100D60001124599A0DB40F900F900F900F90DF91AE
:100D7000CF911F910F91FF90EF90DF90CF90BF9098
:100D8000AF909F908F907F906F905F904F903F902B
:100D90002F900895EEE0F3E0A0E0B8E000800EBCF4
:100DA0008111012C1197A0FDFDCF0192B9F70DB46F
:100DB0000895FC0180910B03882311F13FB7F8944B
:100DC00082E08093E9002091F200822F90E01816D3
:100DD000190614F481E090E0882339F0289844E65D
:100DE00040930A034091F1004083222339F020917F
:100DF000F200211103C02BE62093E8003FBF0895C5
:100E00008FEF9FEF08952FB7F89483E08093E90068
:100E10009091E800892F807295FF04C09091F200B4
:100E200080E4891B2FBF08958091020381110DC0BA
:100E300082E08093FE0284E08093FF02109201031F
:100E40001092000381E0809302038EEF92E00895F8
:100E5000CF93DF931F92CDB7DEB76983DC01ED91AD
:100E6000FC910280F381E02D41E050E0BE016F5F14
:100E70007F4F09950F90DF91CF91089583E0809384
:100E8000E9008091F200882319F08AE38093E8005A
:100E900008950E94030790E00895CF93DF931F9277
:100EA000CDB7DEB7FC018485958597FD08C02FEF8F
:100EB0003FEF358724870F90DF91CF910895CE01C2
:100EC00001960E94D906019719F4898190E0F3CF29
:100ED0008FEF9FEFF0CF0F931F93CF93DF931F926E
:100EE000CDB7DEB78C01FC018485958597FF0BC0DB
:100EF000CE0101960E94D906019771F4898190E094
:100F0000F80195878487F801848595850F90DF9196
:100F1000CF911F910F9108958FEF9FEFF1CFFC01BB
:100F20008485958597FD0BC09FB7F89482E08093E8
:100F3000E9008091F2009FBF90E0019608959FB76D
:100F4000F89482E08093E9008091F2009FBF90E0E6
:100F500008954091F8025091F9022091F6023091E3
:100F6000F70242175307B4F49091E8009570E1F34B
:100F70009091E80092FD19C08093F1008091F802F1
:100F80009091F90201968F739927892B19F48EEFAE
:100F90008093E8008091F8029091F9020196909375
:100FA000F9028093F80281E0089580E00895DF92CD
:100FB000EF92FF920F931F93CF93DF93D82E8A0166
:100FC000EB017B01E40EF51ECE15DF0559F0D7FECF
:100FD00012C0FE0184910E94A90721968111F4CFCD
:100FE0000FEF1FEFC801DF91CF911F910F91FF907D
:100FF000EF90DF9008958881EECF0F931F93CF93EA
:10100000DF931F92CDB7DEB782E0898342E450E0E0
:101010006FE27AE080E80E94D7070E941407DC01A3
:1010200012960D911C910115110589F0D801ED91D1
:10103000FC910280F381E02DBE016F5F7F4FC801FC
:10104000099597FD04C0F80100851185ECCF8981D1
:101050000F90DF91CF911F910F910895615030F063
:101060002091F100FC0120830196F8CF289884E6B6
:1010700080930A030895811105C081E0611106C0C3
:1010800080E004C0813019F46230D0F3089581E02B
:101090006330E0F7F5CFAF92BF92CF92DF92EF923D
:1010A000FF920F931F93CF93DF936C017B018B0112
:1010B000040F151FEB015E01AE18BF08C017D10762
:1010C00059F06991D601ED91FC910190F081E02DEC
:1010D000C6010995892B79F7C501DF91CF911F9141
:1010E0000F91FF90EF90DF90CF90BF90AF90089559
:1010F0008FB18095807F669B88601C9B846008957B
:101100008EBD00000DB407FEFDCF089590E1282F9D
:1011100081E061FD84E060FD880F62FD8295687F5B
:10112000969FD0011124A20FA25FBC4F0C90082AF9
:1011300040FF08260C9208959091AD02982329F063
:101140009091AE02982381E009F080E0089590919B
:10115000AD02982329F49091AE02982381E009F41E
:1011600080E008950DB407FEFDCF8EB5599A08951D
:101170000DB407FEFDCF8EB51EBC089559980E9490
:10118000D608862F0E94D608852F0E94D608842F65
:101190000C94D608462F50910C03570F60910D0305
:1011A000681F83E00E94BE081EBC08958EBD00002B
:1011B0008EB50DB407FEFCCF0895FC010E9477099F
:1011C000319728F068517C4F8F4F9F4FF9CFAB017B
:1011D000FC010E947709641775078E079F07C8F303
:1011E00008958F929F92AF92BF92CF92DF92EF922B
:1011F000FF920F931F93CF93DF936C017B018A01C2
:101200008091FE01882309F45AC080910B03882342
:1012100009F455C08091FD0280FF05C08091E00077
:1012200082608093E000E801B12C8AEFA82E93E061
:10123000892E2AE3922E209711F4BB20C9F10E9437
:101240000307811108C0AA94AA20C9F181E090E0A7
:101250000E94DD08F0CF8C171D0611F00CF08C2FCA
:101260009FB7F8948092E9002091E80025FD02C024
:101270009FBFE1CF282F30E0C21BD30BF701815075
:1012800020F041914093F100FACFE20EF31EBB2013
:1012900021F09092E800B12CEBCF8091E80085FD21
:1012A000E7CF9092E800BB24B394209709F3F3CFE3
:1012B0005D9884E68093FC02101611063CF081E0F4
:1012C00090E0F6019383828310E000E0C801DF9193
:1012D000CF911F910F91FF90EF90DF90CF90BF9033
:1012E000AF909F908F90089590E00C94DD08AAE74E
:1012F000B2E02FB7F8947D918D919C9166B52FBF88
:10130000A89B05C06F3F18F47F5F8F4F9F4F22E06F
:10131000660F771F881F991F2A95D1F7089530E728
:101320003CBDDC0130E8439FC0011124A80FB91F68
:101330005E91352F6111372F3C93C89500C0522321
:101340005EBD0197A9F704D003D030E50DB43CBDD4
:1013500008959F92AF92BF92CF92DF92EF92FF9249
:101360000F931F93CF93DF93F82E192F6B01A42EA9
:10137000E22E602F80910E070E943B08982ECF2D01
:10138000D12FAC0EBD2EB11CEC0CFD2CF11CCA15DE
:10139000DB05E4F48601D7FE02C010E000E0C701DF
:1013A00021E4E216F10414F080E490E00817190734
:1013B0005CF4C038D10528F4492DB801CE010E9453
:1013C00086080F5F1F4FEBCF2196E1CFDF91CF91C2
:1013D0001F910F91FF90EF90DF90CF90BF90AF9053
:1013E0009F9008956F927F928F929F92AF92BF923B
:1013F000CF92DF92EF92FF920F931F93CF93DF93E1
:101400006D3089F0C090C302D090C4026A30E1F41C
:101410001092C6021092C50288E0C80ED11CD0926C
:10142000C402C092C30281E090E0DF91CF911F918E
:101430000F91FF90EF90DF90CF90BF90AF909F9073
:101440008F907F906F900895C62FE090C502F09026
:10145000C602D0910E07609109018D2F0E943B08B2
:10146000082F60E08D2F0E943B08682E08130EC0E5
:1014700028E046E0B601C7010E94A90986E0E80E0F
:10148000F11CF092C602E092C502CDCFE5E0CE9FFE
:10149000E0011124C455DF4F570110E0712C1530C5
:1014A00029F0CE010196FE017490EC01912C812C63
:1014B000462D70FC402FF0E8AF16B10448F4B60199
:1014C000680D791D6034710518F4C5010E94860805
:1014D00076948FEF881A980AE8E08E16910441F707
:1014E0001F5FFFEFAF1ABF0A1630C1F6C7CFFC016E
:1014F00022853385618570E0C9010E94EB21AC0132
:10150000440F551F480F591F80910E07840F952FC8
:10151000911D892B31F480859781891738F48F5F6D
:1015200080872F5F3F4F33872287089580E0F8CF71
:101530008091BD029091BE02181619062CF40197F5
:101540009093BE028093BD028091BD029091BE0235
:10155000892B39F480913001811103C081E080939F
:1015600030010895AF92BF92CF92DF92EF92FF9237
:101570000F931F93CF93DF93EC015B016901E42E7E
:10158000842FB9010E94CA080E94B808F82E0E9450
:10159000B208C038D1050CF03EC090E4A916B104E1
:1015A0000CF039C02F2D30E0A9014C0F5D1F14162F
:1015B00015060CF030C0E82FF0E0AF014A0D5B1DBE
:1015C000141615060CF027C0FE2FEE27EF29F32B7B
:1015D00092E0C90ED11CE11C93E001151105A1F0A8
:1015E00086958695869590FD880F8F9D9001219F09
:1015F000D00CE11C309FD00CE11C319FE00C209FEF
:10160000C00CD11C1124E11C85019E016E2DA60188
:10161000CF010E949805DF91CF911F910F91FF900C
:10162000EF90DF90CF90BF90AF9008951F93CF932E
:10163000DF93EC01162F5C98FE018591EF010E946B
:1016400080081150C9F75C9ADF91CF911F910895DE
:10165000089590E080E008958F929F92AF92BF929C
:101660000F931F93CF93DF93CDB7DEB7A1970FB63C
:10167000F894DEBF0FBECDBF19A2423008F44AE095
:101680008E010F5D1F4F842E912CB12CA12CA50132
:1016900094010E94B21FE62FB901CA01EA3044F555
:1016A000E05DD801EE938D01232B242B252B79F7B8
:1016B00090E080E0109769F0FD0101900020E9F7CB
:1016C0003197AF014A1B5B0BBD0180E697E00E949A
:1016D0004B08A1960FB6F894DEBF0FBECDBFDF91C9
:1016E000CF911F910F91BF90AF909F908F900895D1
:1016F000E95CD7CFCF92DF92EF92FF92CF93DF9347
:1017000097FF1BC06B017C016DE280E697E00E94B1
:10171000F209EC0166277727CB016C197D098E0948
:101720009F094AE00E942C0B8C0F9D1FDF91CF91E7
:10173000FF90EF90DF90CF9008954AE0DF91CF9136
:10174000FF90EF90DF90CF900C942C0B0E940E1F17
:1017500023E030E040E050E00E94801F6F5F7F4F49
:101760008F4F9F4F6130710541F481E080934302B8
:101770001092C7011092B90108956230710531F4D9
:101780001092430281E08093C701F4CF633071056A
:1017900039F4109243021092C70181E08093B9019D
:1017A0000895CF9384E690E0A0E0B0E08093A90193
:1017B0009093AA01A093AB01B093AC01C1E0C09398
:1017C000C0020E94A60B1092BC021092BF0210929F
:1017D000C802C0930C01CF9108951F920F920FB6CB
:1017E0000F9211248F939F938091E1009091E100DB
:1017F000937F9093E10083FF0FC01092E90091E086
:101800009093EB001092EC0092E39093ED00109215
:101810000B0398E09093F00082FF22C093E0909336
:10182000E9009091F200992319F09AE39093E8006F
:101830009091FC02992341F09091FC029150909379
:10184000FC02911101C05D9A90910A03992341F025
:1018500090910A03915090930A03911101C0289A24
:1018600084FF18C08091E2008E7E81608093E20048
:101870008091E1008F7E8093E1008091FD028E7E59
:1018800080618093FD029F918F910F900FBE0F900A
:101890001F90189580FFF7CF8091E2008E7E8061C7
:1018A0008093E2008091E1008E7E8093E100809140
:1018B000FD028E7E8160E5CF1F920F920FB60F92D0
:1018C0001124CF92DF92EF92FF920F931F932F93E9
:1018D0003F934F935F936F937F938F939F93AF93B8
:1018E000BF93EF93FF93CF93DF93CDB7DEB76C97A2
:1018F000DEBFCDBF1092E9008091E80083FF25C0D4
:1019000068E0CE0145960E942E0882EF8093E800A1
:101910008D8987FF39C09091E80090FFFCCF982F08
:10192000907609F034C19E894F89588D2F89F88CA3
:10193000911131C0803861F58091FB028093F100F4
:101940001092F1008EEF8093E8006C960FB6F89439
:10195000DEBF0FBECDBFDF91CF91FF91EF91BF9161
:10196000AF919F918F917F916F915F914F913F9137
:101970002F911F910F91FF90EF90DF90CF900F90DC
:101980000FBE0F901F9018959EEF9093E800C7CF61
:101990001092F100D5CF913059F48111D3CF41305D
:1019A000510581F68091FB028D7F8093FB02CACFA7
:1019B000933049F48111C6CF4130510519F6809119
:1019C000FB028260F2CF953041F48091E80080FF05
:1019D000FCCF20682093E300B5CF963009F0A9C072
:1019E0000B8D1C8D22E01092E9001092F9021092EA
:1019F000F802F2122EC01092F7021092F6020E9424
:101A0000FD071F8299E09983FA8291E09E8390EA14
:101A100098879AEF99872091F8023091F902275F11
:101A20003F4F3C832B838D831092E9001092F90283
:101A30001092F8021093F7020093F60249E050E08A
:101A4000BE016F5F7F4F80E00E94D7070E94FD07B5
:101A500079CF1093F7020093F6020E941407DC017D
:101A600012960D911C910115110509F451C1D8016F
:101A7000ED91FC910480F581E02DBE016B5E7F4FFE
:101A8000C8010995009709F03EC1F801008511854C
:101A9000EACFF3E0FF120EC08F89882309F440C01B
:101AA000823061F440E867E083E99AE00E948510A3
:101AB000811148CF81E28093EB0047CF813029F438
:101AC00040E86BE087E89AE0F1CF833099F70E9415
:101AD0001407DC011296ED90FC908E010F5F1F4FF2
:101AE0006801E114F10479F0D701ED91FC910680D1
:101AF000F781E02DB801C7010995080F111DF70105
:101B0000E084F184EECFD8011C92F6010190002010
:101B1000E9F73197BF016C197D0940E0C601C6CFD6
:101B200061E77AE0FB01449150E080E80E94D7072A
:101B300009CF973009F4BECF983021F481E080932B
:101B4000F10000CF993009F0FDCE837009F0B2CFDB
:101B5000EAE4F2E081E031E096E32191222371F0A2
:101B60008093E9003093EB00DF0111972C912093D3
:101B7000EC009093ED008F5F873079F78EE78093CC
:101B8000EA001092EA008F8980930B03DBCE8B8DE5
:101B90009C8D1092E9001092F9021092F802909335
:101BA000F7028093F602898D811192C08E899D89FA
:101BB000913A49F4813209F07DCF47E050E067EF78
:101BC00071E080E0B3CF913209F074CF833269F4D1
:101BD0008F89988DB0E0A0E08093F3019093F40199
:101BE000A093F501B093F601ADCE803269F48091F7
:101BF000E80082FFFCCF67E087EF91E00E942E08AB
:101C00008BEF8093E8009ECE823209F09BCE8F89C5
:101C10008093FE01EEEFFFE7859194918B3F9C4D01
:101C200051F1E0E0F8E08091F7019091F801A09186
:101C3000F901B091FA01803B9440A105B105F1F49E
:101C40008091FE0180FD1AC0EE3F8AE0F80789F519
:101C500087E797E791838083809160008093FA0201
:101C600088E19BE00FB6F894A895809360000FBEC2
:101C70009093600067CEEEEFFAE0D5CF808191813E
:101C80008737974709F05ECEA895809160008861FC
:101C9000809360008091FA0280936000EE3F2AE01A
:101CA000F20789F08091FE0A9091FF0A9183808368
:101CB00049CE808191818737980751F29093FF0A2E
:101CC0008093FE0AC5CF1092FF0A1092FE0A3ACE08
:101CD0000E941407DC0112960D911C91011511054B
:101CE00009F4E8CED801ED91FC910190F081E02D4E
:101CF000BE016B5E7F4FC8010995811123CEF801AB
:101D000000851185EBCF181619060CF41BCED2CE28
:101D1000F1E0FF12BECE65E77AE004CF1F920F928A
:101D20000FB60F921124BF92CF92DF92EF92FF92E3
:101D30000F931F932F933F934F935F936F937F93D3
:101D40008F939F93AF93BF93CF93DF93EF93FF93C3
:101D5000D0910E01DF3F31F080910D018150E1F013
:101D600080930D01FF91EF91DF91CF91BF91AF91E2
:101D70009F918F917F916F915F914F913F912F91A3
:101D80001F910F91FF90EF90DF90CF90BF900F9039
:101D90000FBE0F901F90189584E080930D01C091A5
:101DA000BB02CC2309F433C18091BA02811168C00F
:101DB0008FE78093CF00109272008FEF80930E0117
:101DC0001092BB02CFCF242F30E02E5F3F4F269FD3
:101DD000C001279F900D369F900D11242091B802CD
:101DE0003091B902FC013296E20FF31FE491E7FD56
:101DF00030C0EC5EE093A802FC013396E20FF31FC3
:101E0000E491F0E0F093A702E093A602E0E9EE2E61
:101E1000E2E0FE2E280F391FB12C00E410E0C12CA7
:101E2000F0E1DF2EB416D1F0F9013496649167FF2A
:101E300012C06F776054770BC6010E94EB21F70147
:101E4000619371937F01060F171FB3942F5F3F4F6C
:101E5000E9CFE0E0CFCF6054770BF1CF2FE7209FA1
:101E6000C001219F900D11249093A5028093A4029C
:101E700040E150E06FE770E080E892E00E941922B4
:101E80001D2F1F70C1116EC06091A802662389F1D9
:101E90008D2F0E94DF21911165C02091A602309103
:101EA000A7024FE7429FC001439F900D1124F0907D
:101EB000B702A0E9B2E050E040E0212F30E0890114
:101EC000015011094F1508F050C06D917D91F80136
:101ED000E41BF50BEF70FF27E058FD4FD081D69F34
:101EE000F001D79FF00D11248E1B9F0B4F5F5F4FAA
:101EF000E9CF40917E0250917F02FA01EE5FFE4FE2
:101F0000608180910001909101012BE3629F800D1F
:101F1000911D1124292F3327620F732F711D709388
:101F200001016093000180834F5F5F4F473051058F
:101F3000A0F450937F0240937E02482F4F57550BD9
:101F40009A014091A6025091A702249FC001259FAB
:101F5000900D349F900D1124AACF10927F02109201
:101F60007E02EBCF90E080E0A2CF4091A40250919E
:101F7000A502840F951F66E0959587956A95E1F710
:101F80008F3F910519F014F08FEF90E097FF02C09A
:101F900090E080E04091BA024423F1F0DC01AF57B9
:101FA000B109E42FF0E0C1112AC060E270E06E1BBD
:101FB0007F0B6A9FC0016B9F900D7A9F900D11243B
:101FC00097FD4F9655E0959587955A95E1F781587D
:101FD0009F4F41504093BA0220583D4FF9018083F2
:101FE0008093CF0080910E018F5F80930E019091BE
:101FF000B402891708F4B6CE10920E01B3CEAE9F8C
:10200000C001AF9F900DBE9F900D1124D9CFD1116B
:1020100037CF4091B7026091B5027091B602CB0103
:1020200001969093B6028093B5022091B20230914E
:10203000B3022817390708F0C6CE81E08093BB02AF
:1020400080E28093BA028ECE0F920FB68F939F9349
:10205000EF93FF93809175028D5F8D3708F08D5758
:1020600080937502E6E7F2E080818E4F8083918154
:102070009F4F918382818F4F828383818F4F838390
:10208000EAE7F2E080818F5F808381818F4F8183D7
:1020900082818F4F828383818F4F83838FB18F6043
:1020A00066991C9B88278F3681F480917402981B57
:1020B000963068F0E0E0F8E087E78083818388E18C
:1020C00080936000F0936000FFCF90937402FF91C3
:1020D000EF919F918F910FBE0F9018951F920F92C5
:1020E0000FB60F9211248F939F9382E496E0909302
:1020F00099008093980081E08093AB029F918F912B
:102100000F900FBE0F901F901895EF92FF920F93B4
:102110001F93CF93DF93F82E192FE62E042F81E023
:10212000860F880F0E94A90783E00E94A907CF2D80
:10213000D12FEC0EFD2EF11CCE15DF05B9F007FFF7
:1021400013C0FE0184910E94A907182F80E00E940D
:10215000A907812321968111EFCFDF91CF911F91A4
:102160000F91FF90EF9008958881EDCF81E0F5CF3A
:10217000EFE0F7E01382128288EE93E0A0E0B0E097
:1021800084839583A683B78384E592E091838083DB
:102190008FEF9FEF95878487E0E6F7E01382128246
:1021A00086E692E09183808310925F07E9E2F2E095
:1021B000A7E3B2E08D919C91119791838083129651
:1021C0008D919C9193838283ABE1B2E02D913C9100
:1021D0001197EDE0F2E03183208312968D919C916E
:1021E000AC014250510953834283EFEFF1E0318358
:1021F00020830896938382830895CDB7DEB728970E
:10220000DEBFCDBF789483E084BD83E085BD81E0EF
:1022100080936E00E1E8F0E083E08083E0E881E015
:102220008083E1E983E08083E0E981E08083E1EC81
:1022300087E08083E3EC81E08083E0EC82E08083D0
:10224000E2EC81E08083EAE787E080838068808336
:1022500010920B031092FB021092FD028091D700A6
:1022600081608093D70080EA8093D80089B580612F
:1022700089BD89B5826089BD09B400FEFDCF81E0CA
:1022800090E00E94DD088091D8008F7C806180936F
:10229000D8008091E000807F8093E0008091E10091
:1022A0008E7E8093E1008DE08093E200559A209A23
:1022B00081EC80937C0081EF85B987EE84B982E35D
:1022C0008BB982EF8AB9769A6E9880EF81BB10BA8B
:1022D00080E58CBD11E01DBD85E00E9474095F9A08
:1022E00085E00E9474095C98ECE5F6E085910E9417
:1022F0008008E936D9F75C9A81E8809364001093EE
:10230000650080E00E94CA060E94780887FF12C01C
:102310005C9885EA0E9480085C9A2E982F982D98E8
:102320008091640080628093640081E083BF88951F
:1023300013BEFCCF0E94780882FF37C02D980E9400
:10234000780884788438A1F42D9A88EC0E94740966
:102350002F986FEF82E090E00E946E1F84EF91E073
:102360000E94DD082F9A0E94780884788438D9F377
:102370000E94780884718431A1F42D9A88EC0E941F
:1023800074092E9860E082E090E00E946E1F84EF56
:1023900091E00E94DD082E9A0E94780884718431B1
:1023A000D9F388EC0E947409C5CF2D9A82E090E0A1
:1023B0000E94661F882309F41BC13E9A3F9A81E060
:1023C00090E00E94661F082F0470F02E81FF0AC063
:1023D00001112E9801EF1FEF0E94780886FF0BC1B4
:1023E0002E9A2F9A82E30E9474090E947808811124
:1023F000F9CF68E089E696E00E94160B2FB7F894B3
:1024000082E496E0909399008093980093E09093F3
:1024100090008BE1809391001092950010929400AF
:10242000809171008260809371002FBF90930901A9
:102430005E9AE4E1F0E085E89EEF60EF7FEF2591A2
:102440003591559145912851354909F4CA01809338
:102450000C0390930D032591359155914591285189
:10246000354909F4BA016093A9027093AA025998F8
:102470008BEA0E94D608599A809164008E7F8093DF
:10248000640080917A00806480937A0080917A0061
:1024900086FDFCCF00917800109179000E947709A9
:1024A000AB01BC01C801B0E0A0E0DC01992788279E
:1024B0008C019D01040F151F261F371FC901B8018C
:1024C00020916400216020936400611571058105ED
:1024D000910511F00E945D1F8DEC9CECACE4BEE315
:1024E0008093E1029093E202A093E302B093E402AE
:1024F00010920F011092100110921101109212010E
:102500008DEC9CECACECBDE3809313019093140133
:10251000A0931501B09316011092170110921801A3
:102520001092190110921A0110921B0110921C01B5
:1025300010921D0110921E018AEB9FE5A0E080938E
:10254000EB029093EC02A093ED0280E090E0A4E90E
:10255000B2E48093C9029093CA02A093CB02B093D5
:10256000CC021092CD021092CE021092CF021092A5
:10257000D00287E08093EE021092EF0285E0809314
:10258000F0021092F4021092D9021092DA02109224
:10259000DB021092DC028AE097EDA3E2BCE38093B9
:1025A000DD029093DE02A093DF02B093E00210926E
:1025B000D1021092D2021092D3021092D402109241
:1025C000D5021092D6021092D7021092D802F0E2F1
:1025D0002F2E312CF8948091AB028111AAC083B7C1
:1025E000816083BF7894889583B78E7F83BFF2CF55
:1025F0003E983F98E4CEFF2029F00430110511F4F5
:102600002E9A2F9881E00E94CA06202F2770E22E72
:10261000A80183E0559547958A95E1F7CA019695FB
:10262000982F882797958795825F9C4F70E060E090
:102630004E3F3FEF530769F130E020E0DB01A45546
:10264000BA4F6C01E0E8CE0ED11CFD01E20FF31F82
:10265000E491F0E02F010E2C02C0440C551C0A94AA
:10266000E2F74F3F540739F05C01A20EB31EF501AB
:1026700094889428948AEE2039F05601A20EB31E55
:10268000F50194889528948A2F5F3F4F28353105AE
:10269000E1F64F5F5F4F80589F4F685A7F4F603B16
:1026A000710531F680E00E94CA068FE00E9474092D
:1026B0000F5F1F4F0931110509F08ECEFF2011F079
:1026C0002F9A2D9880E991E00E94DD082D9A81E0F3
:1026D00090E00E94661F80FF85CE8AE090E00E9415
:1026E000661F9FEF980F9E3F08F07CCE22E330E0FC
:1026F0003093C6022093C50228E330E03093C40231
:102700002093C3020AE010E0682F80E697E00E9461
:10271000F2090F5F1F4FC8010E94661F00311105AB
:1027200099F780E00E94CA0688EE93E00E94DD08D7
:1027300059CE1092AB02789410910E072FE741E02A
:1027400050E061E070E08EE896E00E948F0962E060
:1027500083E796E00E94160B2FEF47E051E061E01F
:1027600070E08EE093E00E948F0962E081E796E0DE
:102770000E94160B8EEF810F1F5F8E3F30F4809109
:10278000AC028F5F8093AC0210E010930E075E9A4C
:102790008091AC028823B9F081508093AC02809183
:1027A000AE028093AD020E9478088093AE02109131
:1027B000F502123009F4C8C008F5112309F448C025
:1027C000113009F452C0A0900E07EA2CF12C809130
:1027D000F502823009F4A6C708F062C7882309F41D
:1027E00096C7813011F40C94941E5E9880E090E0BE
:1027F000892B09F4EFCE0E940000E9CE153009F4D0
:10280000F7C6163009F4E8C51430E9F680913101B5
:10281000882309F4C3C589E190E090938A018093ED
:1028200089018AE190E090938C0180938B0180E193
:102830000E94A70881111092310188E00E94A70828
:10284000882311F40C948B1E0E94D10B82E079C076
:102850008091330190913401009709F4BBC5019731
:102860009093340180933301AECF85EE91E00E94C6
:10287000770A8091C102813009F441C0F0F08230C2
:1028800009F0A1CF8CE490E09093E6018093E501FC
:1028900086E390E09093E8018093E70180E80E944E
:1028A000A70881111093C10288E00E94A70888231D
:1028B00011F40C94901E85E044C087E590E090935D
:1028C000E6018093E5018FE190E09093E801809329
:1028D000E70180E10E94A70881111093C10288E0FE
:1028E0000E94A708882311F40C94901E82E0809324
:1028F000F50281E08093C0020E94A60B64CF8AE5B6
:1029000090E09093E6018093E5012BE230E0309374
:10291000E8012093E70180E80E94A7088111109246
:10292000C10280E10E94A708882319F082E0809309
:10293000C10288E00E94A708882311F40C94901E1D
:1029400086E08093F5023FCF8091320181118EC0E5
:102950008091B10281118AC080E80E94A708882373
:1029600049F181E08093D101809197019091980184
:10297000A0919901B0919A018C019D01075F1F4FB1
:102980002F4F3F4F4091A9015091AA016091AB0197
:102990007091AC0104171507260737075CF40A96F7
:1029A000A11DB11D8093970190939801A093990167
:1029B000B0939A0180E10E94A7088823D9F082E0B1
:1029C0008093D1018091970190919801A0919901F4
:1029D000B0919A018B309105A105B1055CF00A9781
:1029E000A109B1098093970190939801A09399014F
:1029F000B0939A0180E20E94A708882391F0809109
:102A0000BC0293E09093D101811103C081E08093D7
:102A1000BC028091BC02813009F46CC0815080936B
:102A2000BC0280E20E949C0881110EC080E40E94DA
:102A30009C08811109C080E80E949C08811104C093
:102A400080E10E949C0881111092D10180E40E94D3
:102A5000A708882359F08091BC0294E09093D1019B
:102A6000833009F449C08F5F8093BC0285EE91E00A
:102A70000E94770A1091BC02109323028091C20237
:102A8000813009F4CAC0D0F1823009F4D0C183305A
:102A900009F49CC20E94980A809130018823B9F001
:102AA00081E080931A0280930C02109230010E9400
:102AB0000E1F20EA30E040E050E00E94801F665A7E
:102AC0007F4F8F4F9F4F7093BE026093BD028091E6
:102AD0000F029091100220911A02222309F49DC244
:102AE0008E3091050CF085C202969093100280936F
:102AF0000F0281C283E093CF81E0B6CF88E00E94CD
:102B0000A7088823B9F18091B102811133C0809167
:102B1000A9019091AA01A091AB01B091AC018A30BA
:102B20009105A105B10534F121E02093B102409156
:102B30009701509198016091990170919A01841BBD
:102B4000950BA60BB70B8093A9019093AA01A093B4
:102B5000AB01B093AC011092B002113091F510931B
:102B6000440210923F02109242021092410281E010
:102B70008093C20288E00E94A708882309F48ACFC4
:102B80008091B102811186CF8091C802882309F417
:102B900081CF81E08093B10290910C01915090938C
:102BA0000C011092B002113011F5109344021092F2
:102BB0003F02109242021092410281E08093C202D1
:102BC00069CF123049F42093C8011092C3011092CA
:102BD000C6011092C501CBCF133049F62093BA013C
:102BE0001092B5011092B8011092B701C0CF123007
:102BF00049F48093C8011092C3011092C60110924B
:102C0000C501DBCF1330C9F68093BA011092B5012C
:102C10001092B8011092B701D0CF1130D9F5809140
:102C20004402882309F474C087E392E00E94790586
:102C30008091440281116CC08091370290913802DA
:102C40002091390230913A0240914302442309F421
:102C5000A0C0049690932A028093290230932C02FC
:102C600020932B0288E091E2A0E080932D029093C4
:102C70002E02A0932F0285E08093300282E08093A1
:102C8000320282E08093C2028CE390E090930B01C9
:102C900080930A011091BC021230D1F58091C801D5
:102CA000882309F4F7CE8BEB91E00E94790580919F
:102CB000C8018111EFCE8091BB019091BC012091A0
:102CC000BD013091BE014091C701442309F47BC08E
:102CD000049690932A028093290230932C02209329
:102CE0002B0288E091E2A0E080932D0290932E02C7
:102CF000A0932F0285E0809330021093320282E08D
:102D00008093C2028CE390E090930B0180930A01C0
:102D10008091BC02833009F0BDCE8091BA01882336
:102D200009F4B8CE8DEA91E00E9479058091BA014C
:102D30008111B0CE8091AD019091AE012091AF0193
:102D40003091B0014091B901442309F457C0049671
:102D500090932A028093290230932C0220932B0215
:102D600028E031E240E020932D0230932E02409380
:102D70002F0285E08093300282E08093320282E06D
:102D80008093C2028CE390E090930B0180930A0140
:102D900081CE089790932A02809329022851310905
:102DA00030932C0220932B022EEA31E241E0209353
:102DB0002D0230932E0240932F028DE0809330023B
:102DC000109332025ECF089790932A0280932902D3
:102DD0002851310930932C0220932B020EEA11E284
:102DE00021E000932D0210932E0220932F028DE0FC
:102DF0008093300281E08093320281CF08979093D4
:102E00002A02809329022851310930932C02209301
:102E10002B028EEA91E2A1E080932D0290932E0284
:102E2000A0932F028DE08093300281E0A6CF8091A5
:102E3000B002811164C021E02093B0022093AF0260
:102E400040919701509198016091990170919A0178
:102E50008091A9019091AA01A091AB01B091AC0120
:102E60003091C80231111EC020914302113029F067
:102E7000123009F04AC72091C701222339F18A0193
:102E80009B01000F111F221F331F800F911FA21FD4
:102E9000B31F8093A9019093AA01A093AB01B093B3
:102EA000AC0114C0113009F016C72091430222234F
:102EB00069F0C296A11DB11D8093A9019093AA014A
:102EC000A093AB01B093AC0110930C018091A901C8
:102ED0009091AA01A091AB01B091AC018417950724
:102EE000A607B70764F40AE010E020E030E00093A2
:102EF0009701109398012093990130939A012091A2
:102F00000A0130910B01121613060CF043C0809198
:102F1000AF02882359F081E080933602109231028B
:102F200010923402109233021092AF028091360256
:102F3000882321F1E0913302F09134026091320252
:102F400070E0CF010E94EB21AC01440F551F480FE8
:102F5000591F80910E07840F952F911D892B49F4DD
:102F60008091310290913002891778F48F5F8093BD
:102F700031023196F0933402E0933302215031094B
:102F800030930B0120930A0185CD10923602909365
:102F90003102EFCF8091A9019091AA01A091AB01DC
:102FA000B091AC01892B8A2B8B2B69F480910C0199
:102FB000811105C081E08093BF0283E0FFCD81E0F5
:102FC0008093C802FACF1092C802F7CF1092440241
:102FD00010923F021092C8011092C3011092BA01E0
:102FE0001092B5010E94A60B1092B1021092C2027B
:102FF00051CD10921A02809101029091020220910B
:103000000C02222309F4ABC1893191055CF00197D0
:10301000909302028093010207C0853091055CF312
:10302000029763CD10920C028091C002882309F4AC
:1030300045C081E0809332018093E4011092DF016A
:103040001092E2011092E10190915F0791110DC081
:1030500080935F0792E49093C0008093C1008FEF4C
:103060008093D1008FE78093CF001092BB0225E7B9
:1030700036E03093B9022093B802E6E7F6E0849197
:10308000F9012491E82FE295EF70E093B7021092D6
:10309000B6021092B50210920E0181E080930D01EC
:1030A00089E68093B4028CE790E09093B30280931A
:1030B000B20284E0809372001092C00210910E0759
:1030C0008091E401882319F12091E1013091E2011E
:1030D0006091E00170E0C9010E94EB21AC01440F56
:1030E000551F840F951F810F911D892B51F48091DD
:1030F000DF019091DE01891708F037C18F5F80935F
:10310000DF012F5F3F4F3093E2012093E1010091F7
:10311000EE022091EF02402F4150550B2417150667
:103120000CF4B9C088E0EFE0F1E0DE011196019007
:103130000D928A95E1F78090E1029090E202A090D2
:10314000E302B090E402A501940160910F01709137
:10315000100180911101909112010E9450206B0189
:103160007C01A5019401609113017091140180917B
:103170001501909116010E9450204B015C0120E046
:1031800030E0A901C701B6010E94492118164CF090
:1031900020E030E0A901C501B4010E9449211816C0
:1031A00044F5A70196016091D1027091D2028091FD
:1031B000D3029091D4020E94E41F6093D1027093D5
:1031C000D2028093D3029093D402A501940160911E
:1031D000D5027091D6028091D7029091D8020E94B8
:1031E000E41F6093D5027093D6028093D702909328
:1031F000D8022091D1023091D2024091D302509155
:10320000D4026091C9027091CA028091CB02909160
:10321000CC020E94E41F6093C9027093CA0280939B
:10322000CB029093CC022091D5023091D6024091EE
:10323000D7025091D8026091CD027091CE02809158
:10324000CF029091D0020E94E41F6093CD02709350
:10325000CE028093CF029093D00220E030E0A9010B
:10326000C701B6010E944E216093D9027093DA0221
:103270008093DB029093DC0220E030E0A901C501DD
:10328000B4010E944E216093DD027093DE028093B0
:10329000DF029093E00220E030E04CEB54E46091D8
:1032A000CD027091CE028091CF029091D0020E9407
:1032B000492118169CF41092CD021092CE02109261
:1032C000CF021092D0021092D5021092D602109224
:1032D000D7021092D80281E080932F0180912F01B4
:1032E000882359F081E08093F4021092EF0210924B
:1032F000F2021092F10210922F018091F4028823C1
:10330000F9F02091F1023091F2028091F002612FE8
:1033100070E053E0859F600D711D1124C9010E946A
:10332000EB21892B39F48091EF02801790F58F5FA4
:103330008093EF022F5F3F4F3093F2022093F10210
:103340008091C802882321F08BE991E00E94770ADE
:103350008091BF02882309F436CA84E0F2CA8C3116
:1033600091050CF061CE019653CE1092E40190933A
:10337000DF0180910E018F3F31F081E08093BB022D
:1033800080E28093BA0281E08093BC021092320105
:10339000B8CE1092F4020093EF02CCCF89E190E016
:1033A00090938A018093890185E290E090938C014B
:1033B00080938B0180E80E94A708882319F081E0A0
:1033C0008093310188E00E94A708882309F4A3C4F0
:1033D0000E94D10B81E0B5CA8091C702813009F407
:1033E000DCC0C8F1823009F0EEC985EE91E00E94A0
:1033F000770A8BE991E00E94770A8DE691E00E94BE
:10340000770A85E391E00E94770A88E00E94A70886
:10341000882371F080EC9DE7A0E080936301909396
:103420006401A09365011092C70281E08093F502C8
:1034300084E00E94A708882309F4C5C902EC15E9B5
:1034400020E000936301109364012093650181E003
:103450008093C702B8C981E591E00E94770A83E4AE
:1034600091E00E94770A85EE91E00E94770A8DE64E
:1034700091E00E94770A85E391E00E94770A88E054
:103480000E94A708882361F082EC95E9A0E0809370
:10349000630190936401A093650181E08093C7026A
:1034A00084E00E94A708811195CFA0900E07EA2C16
:1034B000F12C8091C702813009F4EBC308F440C3BA
:1034C000823009F092C9409063015090640160908D
:1034D000650180906101909062018701462D920103
:1034E000B40190E080E00E94B20AB12C85010D5F2A
:1034F0001F4F462D9201B40180E490E00E94B20A71
:103500008091750193E0F92E85018F9D000D111DAD
:1035100011242091710130917201409173016BE28D
:1035200070E08DE690E00E94B20A8091A3018501CF
:103530008F9D000D111D112420919F013091A0013C
:103540004091A10160E170E082E790E00E94B20A40
:103550008091ED0185018F9D000D111D1124209199
:10356000E9013091EA014091EB0161E070E088E40B
:1035700090E00E94B20A8091ED0185018F9D000DBF
:10358000111D11242091E9013091EA014091EB01D4
:103590006FE170E08EE590E064C38DE691E00E94FB
:1035A000770A85E391E00E94770A88E00E94A708E5
:1035B000882361F004EC1DEA20E00093630110937E
:1035C00064012093650182E08093C70284E00E9439
:1035D000A708882309F469CF20EC3DE740E0209359
:1035E000630130936401409365011092C702EBC8F8
:1035F0000E94980A809130018823A9F081E080938D
:1036000088010E940E1F28E631E040E050E00E9451
:10361000801F665A7F4F8F4F9F4F7093BE026093FB
:10362000BD021092300180918801882329F12091F8
:103630008501309186016091840170E0C9010E948A
:10364000EB21AC01440F551F480F591F80910E0705
:10365000840F952F911D892B49F4809183019091BE
:1036600082018917C0F48F5F809383012F5F3F4FE2
:1036700030938601209385018DE691E00E94770AC0
:1036800088E00E94A7088111A5CE84E00E94A708C7
:103690008111A0CE98C81092880110928301E6CFC4
:1036A000853009F404C2863009F403CF843009F070
:1036B0009CC887012CE331E640E070E060E090E0D8
:1036C00080E00E94B20AB12C85010D5F1F4F2CE3F0
:1036D00031E640E070E060E080E490E00E94B20AF1
:1036E00080919101850193E0899F000D111D1124A6
:1036F00020918D0130918E0140918F0160918B015D
:1037000070918C018091890190918A0108C0870194
:103710002CEA39E041E070E060E090E080E00E9457
:10372000B20A63C88091230263E0D62E87018D9D83
:10373000000D111D112420911F0230912002409193
:10374000210260911D0270911E0280911B029091D6
:103750001C020E94B20A8091070287018D9D000D14
:10376000111D1124209103023091040240910502A1
:1037700060910102709102028091FF01909100021C
:103780000E94B20A8091150287018D9D000D111DC6
:103790001124209111023091120240911302609184
:1037A0000F027091100280910D0290910E020E9402
:1037B000B20A870122E033E040E070E060E090E090
:1037C00080E00E94B20A570133E0A30EB11C8501CC
:1037D00022E033E040E070E060E080E490E00E94AE
:1037E000B20A8091DF0187018D9D000D111D11240A
:1037F0002091DB013091DC014091DD016091D90124
:103800007091DA018091D7019091D8010E94B20A9B
:10381000850120EB3BE441E06CE270E080E790E062
:103820000E94B20A870120EB3BE441E06CE270E0C9
:103830008CE590E00E94B20A8091EF028D9D000D10
:10384000111D11244090EB025090EC026090ED02AB
:103850006091CD027091CE028091CF029091D00202
:103860000E94C2204B016091C9027091CA028091EE
:10387000CB029091CC020E94C220CB01462D920136
:10388000B4010E94B20A8091D10187018D9D000D83
:10389000111D11242091CD013091CE014091CF0115
:1038A0006091CB017091CC018091C9019091CA01C6
:1038B0000E94B20A80913F0287018D9D000D111D6B
:1038C000112420913B0230913C0240913D026091D5
:1038D000390270913A0280913702909138020E9429
:1038E000B20A8091C30187018D9D000D111D112425
:1038F0002091BF013091C0014091C1016091BD0193
:103900007091BE018091BB019091BC010E94B20AEE
:103910008091B50187018D9D000D111D112420910D
:10392000B1013091B2014091B3016091AF0170914A
:10393000B0018091AD019091AE010E94B20A8091D8
:10394000C2028230B9F48091310287018D9D000D51
:10395000111D112420912D0230912E0240912F0231
:1039600060912B0270912C028091290290912A0281
:103970000E94B20A1092C6021092C5021092C402AE
:103980001092C30244E050E06EE672E080E697E0F9
:103990000E944B084BE650E05093C6024093C5028C
:1039A00088E390E09093C4028093C3026091A901E0
:1039B0007091AA018091AB019091AC010E947A0BA9
:1039C00000E028E048E068E370E083E690E00E94D1
:1039D000A909E0900E07F12C8091ED0153E0D52E5E
:1039E00087018D9D000D111D11242091E901309159
:1039F000EA014091EB0168E370E083E690E00E9409
:103A0000B20A8091C802882319F160919D017091DA
:103A10009E0100E02BE040E180919B0190919C0190
:103A20000E94A9098091A30187018D9D000D111DA0
:103A3000112420919F013091A0014091A10160913A
:103A40009D0170919E0180919B0190919C0167CE98
:103A50003092C6022092C5021092C4021092C30294
:103A600060919701709198018091990190919A01CC
:103A70000E947A0B00E028E048E070E060E088E116
:103A800090E00E94A9098091ED0100910E0710E0DD
:103A90008D9D000D111D11242091E9013091EA0145
:103AA0004091EB0170E060E088E190E038CE870162
:103AB0002AE232E240E070E060E090E080E00E94C4
:103AC000B20A2CE23EE240E060E270E080E490E086
:103AD0000E94B20A0D5F1F4F2CE23EE240E060E21E
:103AE00070E080E690E00E94B20A8091830143E09A
:103AF000D42E87018D9D000D111D112420917F0171
:103B0000309180014091810160917D0170917E0131
:103B100080917B0190917C010E94B20A8091750195
:103B200087018D9D000D111D11242091710130918F
:103B30007201409173016EE070E08CE690E0EFCD91
:103B40004090630150906401609065018090610134
:103B5000909062018701462D9201B40190E080E0CF
:103B60000E94B20AB12C85010D5F1F4F462D9201B4
:103B7000B40180E490E00E94B20A20913B023091AF
:103B80003C0240913D02870161E070E08DE590E0EC
:103B90000E94B20A8091590133E0F32E85018F9D76
:103BA000000D111D112420915501309156014091B5
:103BB000570160915301709154018091510190918E
:103BC00052010E94B20A80914B0185018F9D000D28
:103BD000111D112420914701309148014091490164
:103BE000609145017091460180914301909144019B
:103BF0000E94B20A8091ED0185018F9D000D111D7B
:103C000011242091E9013091EA014091EB0167E133
:103C100070E08CE590E00E94B20A8091ED01850190
:103C20008F9D000D111D11242091E9013091EA01B1
:103C30004091EB0166E270E086E290E00E94B20AF9
:103C40008091750185018F9D000D111D112420911A
:103C5000710130917201409173016BE270E08DE669
:103C600090E00E94B20A80913D0185018F9D000D78
:103C7000111D11242091390130913A0140913B01ED
:103C80006091370170913801809135019091360132
:103C900046CD409063015090640160906501809032
:103CA0006101909062018701462D9201B40190E07C
:103CB00080E00E94B20AB12C85010D5F1F4F462D96
:103CC0009201B40180E490E00E94B20A80917501F3
:103CD00023E0F22EB7CF3091C701123029F0309196
:103CE000B901133009F0F2C8332309F4EFC8C296C2
:103CF000A11DB11D8093A9019093AA01A093AB01CE
:103D0000B093AC0120930C01E1C82091B9011330AC
:103D100009F4B3C8DBC8A0900E07EA2CF12CC9CC7B
:103D2000A0900E07EA2CF12C870122E33DE441E04C
:103D300070E060E090E080E00E94B20AB12C850162
:103D40000D5F1F4F22E33DE441E070E060E080E45E
:103D500090E00E94B20A8091ED01850123E0829FEC
:103D6000000D111D11242091E9013091EA014091CB
:103D7000EB016091E7017091E8018091E50190917C
:103D8000E601CDCC8F929F92AF92BF92CF92DF92FD
:103D9000EF92FF92CF93DF93EC01688179818A8162
:103DA0009B81611571058105910521F464E279ED2E
:103DB0008BE597E02DE133EF41E050E00E94801F5A
:103DC00049015A019B01AC01A7EAB1E40E949F1F7F
:103DD0006B017C01ACEEB4EFA50194010E94AD1F14
:103DE000C60ED71EE81EF91EF7FE06C081E0C81AEF
:103DF000D108E10880E8F80AC882D982EA82FB8209
:103E0000C701B6019F77DF91CF91FF90EF90DF90D0
:103E1000CF90BF90AF909F908F9008958F929F9278
:103E2000AF92BF92CF92DF92EF92FF9260914502E4
:103E30007091460280914702909148026115710588
:103E40008105910521F464E279ED8BE597E02DE1A0
:103E500033EF41E050E00E94801F49015A019B016D
:103E6000AC01A7EAB1E40E949F1F6B017C01ACEE9C
:103E7000B4EFA50194010E94AD1FC60ED71EE81E27
:103E8000F91EF7FE06C081E0C81AD108E10880E8F3
:103E9000F80AC0924502D0924602E0924702F092A0
:103EA0004802C701B6019F77FF90EF90DF90CF9057
:103EB000BF90AF909F908F9008956093450270934C
:103EC000460280934702909348020895F999FECFE5
:103ED00092BD81BDF89A992780B50895262FF9994A
:103EE000FECF92BD81BDF89A019700B4021639F059
:103EF0001FBA20BD0FB6F894FA9AF99A0FBE08952A
:103F0000052E97FB1EF400940E94971F57FD07D0C3
:103F10000E94B21F07FC03D04EF40C94971F5095DB
:103F20004095309521953F4F4F4F5F4F08959095A5
:103F30008095709561957F4F8F4F9F4F08950E9498
:103F4000D41FA59F900DB49F900DA49F800D911D2F
:103F500011240895B7FF0C949F1F0E949F1F821B7E
:103F6000930B0895A1E21A2EAA1BBB1BFD010DC0E5
:103F7000AA1FBB1FEE1FFF1FA217B307E407F50719
:103F800020F0A21BB30BE40BF50B661F771F881FF5
:103F9000991F1A9469F760957095809590959B018B
:103FA000AC01BD01CF010895A29FB001B39FC00134
:103FB000A39F700D811D1124911DB29F700D811D55
:103FC0001124911D08955058BB27AA270E94FB1F5A
:103FD0000C940F210E94012138F00E94082120F04A
:103FE00039F49F3F19F426F40C94FE200EF4E0956A
:103FF000E7FB0C94F820E92F0E94202158F3BA1710
:10400000620773078407950720F079F4A6F50C94EE
:1040100042210EF4E0950B2EBA2FA02D0B01B90111
:1040200090010C01CA01A0011124FF27591B99F02E
:10403000593F50F4503E68F11A16F040A22F232F3A
:10404000342F4427585FF3CF469537952795A7958A
:10405000F0405395C9F77EF41F16BA0B620B730B31
:10406000840BBAF09150A1F0FF0FBB1F661F771FA2
:10407000881FC2F70EC0BA0F621F731F841F48F457
:10408000879577956795B795F7959E3F08F0B0CFE0
:104090009395880F08F09927EE0F979587950895C7
:1040A0000E9464200C940F210E94082158F00E9465
:1040B000012140F029F45F3F29F00C94F8205111C0
:1040C0000C9443210C94FE200E94202168F3992334
:1040D000B1F3552391F3951B550BBB27AA27621704
:1040E0007307840738F09F5F5F4F220F331F441F11
:1040F000AA1FA9F335D00E2E3AF0E0E832D0915045
:104100005040E695001CCAF72BD0FE2F29D0660F31
:10411000771F881FBB1F261737074807AB07B0E874
:1041200009F0BB0B802DBF01FF2793585F4F3AF07A
:104130009E3F510578F00C94F8200C9443215F3F8A
:10414000E4F3983ED4F3869577956795B795F79500
:104150009F5FC9F7880F911D9695879597F90895E8
:10416000E1E0660F771F881FBB1F62177307840784
:10417000BA0720F0621B730B840BBA0BEE1F88F793
:10418000E09508950E94C9206894B1110C944321D0
:1041900008950E94282188F09F5798F0B92F9927F9
:1041A000B751B0F0E1F0660F771F881F991F1AF022
:1041B000BA95C9F714C0B13091F00E944221B1E024
:1041C00008950C944221672F782F8827B85F39F023
:1041D000B93FCCF3869577956795B395D9F73EF4BB
:1041E00090958095709561957F4F8F4F9F4F089563
:1041F00097F99F6780E870E060E008959FEF80EC9A
:10420000089500240A94161617061806090608953C
:1042100000240A9412161306140605060895092EA2
:104220000394000C11F4882352F0BB0F40F4BF2B11
:1042300011F460FF04C06F5F7F4F8F4F9F4F089551
:1042400057FD9058440F551F59F05F3F71F0479547
:10425000880F97FB991F61F09F3F79F0879508952C
:10426000121613061406551FF2CF4695F1DF08C04B
:10427000161617061806991FF1CF86957105610568
:1042800008940895E894BB2766277727CB0197F910
:1042900008950E94BB2108F48FEF08950E946121C8
:1042A0000C940F210E94012138F00E94082120F077
:1042B000952311F00C94F8200C94FE2011240C94FA
:1042C00043210E94202170F3959FC1F3950F50E088
:1042D000551F629FF001729FBB27F00DB11D639FB8
:1042E000AA27F00DB11DAA1F649F6627B00DA11D5E
:1042F000661F829F2227B00DA11D621F739FB00D04
:10430000A11D621F839FA00D611D221F749F332773
:10431000A00D611D231F849F600D211D822F762F0C
:104320006A2F11249F5750409AF0F1F088234AF0E9
:10433000EE0FFF1FBB1F661F771F881F9150504055
:10434000A9F79E3F510580F00C94F8200C9443216E
:104350005F3FE4F3983ED4F3869577956795B795DC
:10436000F795E7959F5FC1F7FE2B880F911D9695F6
:10437000879597F90895990F0008550FAA0BE0E863
:10438000FEEF16161706E807F907C0F01216130617
:10439000E407F50798F0621B730B840B950B39F457
:1043A0000A2661F0232B242B252B21F408950A26BD
:1043B00009F4A140A6958FEF811D811D0895991BD9
:1043C00079E004C0991F961708F0961B881F7A950C
:1043D000C9F78095089597FB072E16F4009407D02F
:1043E00077FD09D00E94FF2107FC05D03EF490958F
:1043F00081959F4F0895709561957F4F0895AA1BF1
:10440000BB1B51E107C0AA1FBB1FA617B70710F0BF
:10441000A61BB70B881F991F5A95A9F780959095F1
:10442000BC01CD010895EE0FFF1F0590F491E02D22
:104430000994DC0101C06D9341505040E0F70895AC
:10444000F894FFCF420087DDDC1035BC5C013C00F6
:104450000101FF000000000000003F0000004000DC
:10446000000000000000000000000000000000004C
:10447000000000010101014B0004002B00041B009F
:10448000030013000000001D000100F455000300AC
:1044900014000000001D001400F658000300140072
:1044A00000000000000000C07D00010000000000CE
:1044B0000070003000000000030013000000004006
:1044C0000000002E34000200060000010115001D4E
:1044D00000305200000000000000000A000000143C
:1044E00000FDFF3E790005000900000000640000A7
:1044F0000040002A00346501050004000000002C83
:10450000002A0034650105000400000100040027B2
:1045100000F85B0004000000000000500004008868
:10452000CC00080004000000005700200008210013
:1045300005000200000000FFFFFFFF00E100000097
:10454000000000000000004A090100000100000016
:104550000000000000B66901000001000000003109
:10456000001000061E000300000000000000000014
:10457000003E79000500010000000018002A003408
:104580006501050004000000000100000000C1807A
:1045900081000000000000002807F10849073E07DD
:1045A0008F074D076B0700000000F2094B08290B2D
:0845B000280B4265743A00007B
:1074000080E189BD82E189BD09B400FEFDCF089508
:10741000C8D569F08091E9008F931092E9009DD45E
:1074200083FF01C01CD58F9187708093E900089578
:107430008EEF0090E10008220092E1000895F20131
:10744000F999FECFF2BDE1BD0895F9DFF89A80B554
:1074500008C0F5DF1FBA80BD0FB6F894FA9AF99A02
:107460000FBE31962F010895E0E0F0E085919491F0
:107470000196089580EE8BB98BEA34D01092890082
:107480008AEF8093880082E080936F0083E080938E
:107490008100E7E5F7E785913AD0E336E1F781E04F
:1074A0008093D7008AE482BF1092D8001092E20045
:1074B0001092DA001092E10080E808D019BC1EBAE0
:1074C0001092E00060D489E051D481E98093D80023
:1074D0000895A3E6B1E090E81AD08D939A95E1F76C
:1074E000089586E008D010C083E005D08F2F0FD01C
:1074F0008E2F0DD080E05E9A599809C005D085E0A6
:10750000FADF05D080FDFDCF599A5E9808958EBDB3
:107510008DB587FFFDCF8EB508958FE08221E9F705
:10752000F3DFE3E6F6E090EB5C98892FF0DF80E193
:10753000EEDF5C9A8191EBDF83E68E278F77D1F7C0
:107540009395983B89F70895E3E6F1E097FC36C000
:1075500094FC4DC092FE089596849920D1F3F8943E
:10756000C089D78520E030E080E090E4AFEFBFEF46
:10757000119689199040E0F72D01BD4F8D0127FD2F
:1075800013C0E0E0F8E011928EE7819392E4E117F6
:1075900091939AE508F092E4E334C9F7819310825D
:1075A000BFDFFE012196A0DF94DFF901FDD4205852
:1075B0003F4F040D151D9A9411F710C28301282D19
:1075C00060906C0170906B0143D019F48823C1F76F
:1075D0000895380188243CD0C9F580916A0182174A
:1075E00009F4830160906E0170906D01F4CF80E129
:1075F000982E60906E0170906D012AD059F4882306
:10760000B1F708959FEF95FC03C096FE089591E0B1
:1076100097FB890E662477248301222719D0B1F4C1
:107620008823A1F380916A0136F0881650F48217FE
:1076300030F0213003C0881520F4281710F483019E
:10764000282F60906E0170906D01E8CF3801822E76
:10765000F3014ADF3EDFC3E6D1E0E0E5F7E709905A
:107660008591081621F4E735D1F7088080104CCFBA
:10767000C9E031DFCA95E9F7D0E197FC55C094FC29
:1076800037C096FE1AC0C3E6D2E0E3E6F6E098E023
:1076900088E78E0F00840192E817E1F7884F099080
:1076A0000192E817E1F7C858DF4F9A9589F735DF5F
:1076B000C85FD340C33E49F749C0C3E6D6E0EBE517
:1076C000FAE098E08E2F885702900086E817E1F7DD
:1076D00038960A900292E817E1F73897C857D040D9
:1076E0009A9581F71ADFC850DC4FC33E41F72EC090
:1076F000A3EEB6E0E3E6F6E09AE0C6E00D90808106
:107700008025807F802582958193A336B90709F46F
:10771000B2E0E336F90709F4F2E0E336FC0771F76B
:10772000FCDEDA9529F712C0A3EEB9E0E3E6FAE051
:1077300092E00E90829180258F70802582958083C3
:10774000E336F907B1F7E9DEDA9571F7882708958E
:1077500041524455424F59D5F08D14A1C881CFD91B
:10776000F1AF000000FFFFCFCFFFFFFFFFCFCFFF44
:10777000FF0000FE067E7E06FE46565616FE0656A4
:10778000461EFE3F61E9E3FFE3EBE3FFE3EBE3FFCC
:10779000E16B3F0012011001020000084123360096
:1077A00001000000000109023E00020100803209D0
:1077B000040000010202010005240010010424025B
:1077C000040524060001070582030800FF090401DF
:1077D00000020A00000007050402100001070583EB
:0477E0000210000192
:1078000011241FBE04B714BE88E18093600010925B
:1078100060008EEF9AE09EBF8DBF222433242101A9
:107820003101410180E88AC00F928F939F931F928C
:107830000FB60F9211244F936F938091DA0080FF5F
:1078400037C023C00F920FB68F939F93EF93FF9390
:1078500088278093850080938400E0E5F1E09281A1
:10786000907261F490818917980B908309F45D9A66
:1078700091818917980B918309F4289A239411F424
:107880008315381EFF91EF9154C08091D80080FF7E
:107890000FC08091DA008E7F8093DA008091D9004A
:1078A00080FF04C0ADDD81E08EBB02C019BC1EBAF2
:1078B0008091E10080FF0BC053D280FF08C053D2FB
:1078C0008091D800806202DE19BC85E08EBB809179
:1078D000E10084FF1AC044D284FF17C091DD80917B
:1078E000D8008F7DF3DD8FEEA4DD3AD28F7E8160EC
:1078F0003DD280915301882331F48091E30087FDCC
:1079000002C081E001C084E08EBB8091E10083FF72
:107910000CC026D283FF09C087EF8BDD82E08EBBCF
:107920001092530185DD1FD22ED26F914F910F908F
:107930001F909F918F910FBE0F90189580936100BB
:1079400010926100B1E0B5BF82E085BF81EF85B9DB
:1079500087EE84B91DB8769A10BA83EF81BB82E6B0
:107960008BB982EF8AB980E58CBDBDBDA0E0E4E9AA
:10797000F7E705900D92A035E1F71D92BB30E9F7CE
:10798000000004C07C9B02C06FDD41F573DD78947C
:107990005FDE71F0ABE9B7E0E3E6F7E790E1059071
:1079A0000D929A95E1F7A059BF4FE339B9F7B9DDC8
:1079B00052D02EDD80915201807861F48FB1809594
:1079C000807F66991C9B8460982E1CDE8110BCDD34
:1079D00092FC02C0332062F747DD51F3F89489EB43
:1079E00081DD81E08093E00010926F0010928100B1
:1079F000109285001092840081E085BF15BE2E9AFA
:107A00002F9A2D9A5D9A289A0C940000A4D107C051
:107A100057D102C0C6D239F0A0D182FFFBCF85FF7B
:107A2000F7CF8091F1000895082E83E095D185FD70
:107A300007C08AD102C0B5D269F08FD180FFFBCFD9
:107A40000092F10080915201807221F45D9884E6E9
:107A50008093500108957FD182FF34C180915201FB
:107A6000807221F4289884E680935101CFDF182F8B
:107A7000853431F422248EE7382EE1DC8DE00BC111
:107A8000843511F4C3DFFACF8C34C1F38035B1F300
:107A9000843721F484E4C8DF80E0FDC0813611F42E
:107AA00089E5F9C0813429F4B1DF582EAFDF482EC3
:107AB000E5CF803711F483E5EEC0833539F4E0E596
:107AC000F7E78591B1DFE735E1F7E6C0863521F4C8
:107AD00082E3AADF80E3DFC0863761F481E3669B3F
:107AE0008E5F1C9B8F5FA0DF8FB1809582958F701A
:107AF0008F5BD1C08837A9F489DF80935201289A1F
:107B000084FD28985D9A83FD5D982E9A81FD2E98BC
:107B10002F9A82FD2F982D9A80FD2D9887FD88241D
:107B2000ADCF8A3649F48FE9E6DCC3E0F0DC7CDFD8
:107B3000CA95E1F7E9DCB0C0833731F487E874DF38
:107B400085E972DF8EE1A7C0853639F4E0E8F3E716
:107B50003ED2E058F040E0F791CF823631F489E52B
:107B600063DF80E061DF80E896C0823419F08736F9
:107B700009F07DC033244ADFD82F48DFC82F46DF05
:107B8000082F8354843008F085C0063411F4440C67
:107B9000551CF20110926F001736B9F4033489F4C2
:107BA00083E0A3DCB4DC8EB51EBC3EDF0DB42197B0
:107BB000D1F7AADC08C0063411F4859101C045DC78
:107BC00033DF2197C2F72F014AC00334A9F4E11132
:107BD00004C087DC88ED89DC91DC83DC82E085DC15
:107BE00015DF0DB48EBDCA95D9F7319691DC86DCD0
:107BF000DA9569F72F0131C00634F1F49F01F437AB
:107C0000D8F4E5D119C002DF063461F4C0FB46F0B8
:107C1000F43728F4182E81E087BFE89511243296B6
:107C2000082E0AC0043439F4DF01B370AD59B94FDE
:107C30008D93319601C00DDC21972AF7043431F47D
:107C40002F01F370FE2B49F46CDC07C0063429F4D5
:107C50002F01F901F43708F4B8D18DE0E5DE0634E0
:107C600011F45694479482E080936F0015C08237D8
:107C7000E1E049F08634E0E031F08E34E3E019F0E1
:107C8000813531F4E2E0F0E089E087BF849103C000
:107C90008B3111F08FE3C8DE83E0C7DB55D095FF51
:107CA00003C009C07ED171F058D080FFFBCF4CD00B
:107CB00002C077D139F051D080FFFBCF84E0B5DB33
:107CC0008BE743C00895E4E5F1E067E090915B0144
:107CD00080915C01913231F0913AE1F58132D1F538
:107CE0005ED181C0823271F48191805B8191844048
:107CF00089F580915D0180FD2DC0F89481E080932D
:107D0000E0007ECD803231F54AD14BD1E9F08530AB
:107D1000D9F023D083FD18C082FFF7CF04C081DEE5
:107D20008193615031F09091F3008091F200892BA2
:107D3000B1F7C6DF611549F704C033D129F08530AA
:107D400019F00BD080FFF9CF8EE79091E8008923DE
:107D50008093E800089584E068DB8091E80008954E
:107D60008091E2000895FCDF8E7F80618093E200C5
:107D7000089582E061EC09D083E061E802D084E0FC
:107D800060E842E103C080E060E042E04EDB81E079
:107D900007D01092ED006093EC004093ED00089541
:107DA0009091EB00892B8093EB00089560E0923076
:107DB00029F0913029F4E0E062E102C0E2E16EE3F3
:107DC000F1E0089580915B0188234CF402C0E9D072
:107DD000C1F3C3DF82FFFBCF73CFE3D091F3BDDFED
:107DE00080FFFBCFB1CF40916101509162014617F6
:107DF000510520F0462F611509F4A6DF50E022C09E
:107E0000D0D061F1853051F1A8DF83FD59CFA5DFD6
:107E100082FD21C080FF16C03091F3002091F20056
:107E200006C081918093F10041502F5F3F4F411573
:107E300019F028303105A8F350E02830310509F455
:107E400051E082DF4115E1F65523D1F604C0A9D0F7
:107E500029F0853019F081DF82FFF9CF31CFEBE5D2
:107E6000F1E0DFDD8193E336E1F72DDF76DF83FF9D
:107E700091C080915B0190915C01913009F170F0AB
:107E80009330F1F0953009F444C0963009F456C0AF
:107E9000983009F460C0993059F767C0823841F7CB
:107EA00080915F01C1DA2091EB001092E90077D058
:107EB0002295269521702093F1001092F10052C076
:107EC000882311F08230A1F68F71823089F680917B
:107ED0005D018823D1F420915F01277049F220933E
:107EE000E9008091EB0080FF10C0933011F480E234
:107EF0000BC080E155DF81E0880F2A95E9F7809378
:107F0000EA001092EA0088E04BDF1092E90047D0C7
:107F10002AC0882391F410915D0110680FB7F8947E
:107F20003ED050DF1ADF80FFFDCF1093E300103802
:107F300083E009F482E08EBB0FBF2CC080588230F2
:107F400048F580915D0190915E0130DF603011F164
:107F500026D049DF1FC08038E9F421D08091530139
:107F60008093F100F1DE2EDF15C0882399F4909103
:107F70005D01923078F49093530111D023DF80910A
:107F80005301882321F48091E30091E087FD94E080
:107F90009EBBEFDEE2DE83FF089580E201DF87EF24
:107FA000D4CE8EB388230895A3E6B1E0F437B8F4B5
:107FB0000ED090E40D901D9081E087BFE895329639
:107FC0009A95C1F71124E058F04085E001C083E0A4
:107FD00001D081E187BFE89507B600FCFDCF089589
:067FFA003230D7CFFBDCA2
:00000001FF
