:020000040000FA
:100000000C944F050C9477050C9477050C947705A8
:100010000C9477050C9477050C9477050C94770570
:100020000C9477050C9477050C94940B0C94030CAA
:100030000C9477050C9477050C9477050C94770550
:100040000C9477050C9477050C9477050C94770540
:100050000C9477050C9477050C9477050C94CB0FD2
:100060000C9477050C9477050C9477050C94770520
:100070000C9477050C9477050C9477050C94770510
:100080000C9415100C9477050C9477050C94770557
:100090000C9477050C9477050C9477050C947705F0
:1000A0000C9477050C94350E0C9477050000000035
:1000B000003E5B4F5B3E3E6B4F6B3E1C3E7C3E1CEE
:1000C000183C7E3C181C577D571C1C5E7F5E1C0034
:1000D000183C1800FFE7C3E7FF0018241800FFE7EB
:1000E000DBE7FF30483A060E2629792926407F05AE
:1000F0000507407F05253F5A3CE73C5A7F3E1C1CC4
:1001000008081C1C3E7F14227F22145F5F005F5F83
:1001100006097F017F006689956A6060606060946F
:10012000A2FFA29408047E040810207E2010080874
:100130002A1C08081C2A08081E101010100C1E0C7F
:100140001E0C30383E3830060E3E0E060000000011
:100150000000005F00000007000700147F147F14F8
:10016000242A7F2A1223130864623649562050003D
:1001700008070300001C2241000041221C002A1C29
:100180007F1C2A08083E0808008070300008080814
:100190000808000060600020100804023E51494534
:1001A0003E00427F400072494949462141494D3352
:1001B0001814127F1027454545393C4A49493141B9
:1001C000211109073649494936464949291E000087
:1001D00014000000403400000008142241141414DC
:1001E0001414004122140802015909063E415D59C8
:1001F0004E7C1211127C7F494949363E41414122D1
:100200007F4141413E7F494949417F090909013EFA
:10021000414151737F0808087F00417F4100204021
:10022000413F017F081422417F404040407F021C33
:10023000027F7F0408107F3E4141413E7F0909094A
:10024000063E4151215E7F09192946264949493216
:1002500003017F01033F4040403F1F2040201F3FDC
:100260004038403F63140814630304780403615961
:10027000494D43007F4141410204081020004141A3
:10028000417F04020102044040404040000307084F
:100290000020545478407F2844443838444444284B
:1002A000384444287F385454541800087E090218F2
:1002B000A4A49C787F0804047800447D400020407A
:1002C000403D007F1028440000417F40007C0478BE
:1002D00004787C080404783844444438FC18242406
:1002E0001818242418FC7C08040408485454542486
:1002F00004043F44243C4040207C1C2040201C3C03
:100300004030403C44281028444C9090907C4464F9
:10031000544C44000836410000007700000041368C
:10032000080002010204023C2623263C1EA1A16112
:10033000123A4040207A3854545559215555794144
:100340002154547841215554784020545579400C1B
:100350001E527212395555555939545454593955FC
:100360005454580000457C410002457D420001453F
:100370007C40F0292429F0F0282528F07C545545AC
:10038000002054547C547C0A097F4932494949323F
:100390003248484832324A4848303A4141217A3A54
:1003A00042402078009DA0A07D39444444393D401E
:1003B00040403D3C24FF2424487E4943662B2FFCCB
:1003C0002F2BFF0929F620C0887E09032054547979
:1003D000410000447D413048484A32384040227A4A
:1003E000007A0A0A727D0D19317D2629292F2826C7
:1003F0002929292630484D402038080808080808CF
:100400000808382F10C8ACBA2F102834FA00007B27
:10041000000008142A142222142A1408950022002D
:1004200095AA005500AAAA55AA55AA000000FF00E7
:10043000101010FF00141414FF001010FF00FF1024
:1004400010F010F0141414FC001414F700FF000056
:10045000FF00FF1414F404FC141417101F10101FD5
:10046000101F1414141F00101010F0000000001FC3
:10047000101010101F10101010F010000000FF10CE
:100480001010101010101010FF10000000FF1400CA
:1004900000FF00FF00001F10170000FC04F41414FC
:1004A0001710171414F404F40000FF00F7141414C8
:1004B00014141414F700F7141414171410101F1048
:1004C0001F141414F4141010F010F000001F101F6B
:1004D0000000001F14000000FC140000F010F010D9
:1004E00010FF10FF141414FF141010101F00000050
:1004F00000F010FFFFFFFFFFF0F0F0F0F0FFFFFF54
:100500000000000000FFFF0F0F0F0F0F38444438AA
:10051000447C2A2A3E147E02020606027E027E02E5
:1005200063554941633844443C04407E201E200604
:10053000027E020299A5E7A5991C2A492A1C4C7241
:1005400001724C304A4D4D303048784830BC625AC8
:10055000463D3E494949007E0101017E2A2A2A2A58
:100560002A44445F444440514A444040444A514034
:100570000000FF0103E080FF000008086B6B0836F5
:1005800012362436060F090F060000181800000066
:100590001010003040FF0101001F01011E00191D55
:1005A0001712003C3C3C3C0000000000F0F89C8E20
:1005B0008783878E9CF8F00000FEFF03030303038C
:1005C000070EFCF80000FEFF0303030303070EFC05
:1005D000F80000FFFF00000000000000FFFF000027
:1005E000FEFF8383838383C7EE7C380000F8FC0E14
:1005F00007030303070EFCF800003F7FE0C0808084
:10060000C0E07F3FFFFF01010101010101FFFF0089
:1006100000FFFF0C0C0C0C1C3E77E3C100007FFFB9
:10062000C0C0C0C0C0E0703F1F00001F3F70E0C0EE
:10063000C0C0E0703F1F00007FFFC1C1C1C1C1E366
:10064000773E1C00001F3F70E0C0C0C0E0703F1F3D
:10065000000000000001FFFF01000000D5F08D1434
:10066000A1C881CFD9F1AF2000C0A0D92181FFA8B6
:1006700000A800A83F776080000000000000008014
:10068000000000000000008000000000000000806A
:100690000000000000000080000000000000007E5C
:1006A00000613B333B4343800000000000000080BA
:1006B0000000000000000080007F713C262A378087
:1006C000056A564952483D80075B472F483F3C80AA
:1006D000065546315058440F1E18391D51573D14C8
:1006E0008E14472544613D16AF2E3B2737634C17C8
:1006F000682D3727396A49186F263A2E376A441809
:10070000641B4032346A401739154037317435154F
:100710002C06503A2A74341226084D3C26763010A6
:1007200012035621425C3E0E020A3B27535A370EF3
:10073000001E3D2A3E51521400213E32324E4D0ED3
:10074000001B38403B424D800853345049394180AA
:10075000065A374943424580014F42413C47440DC8
:1007600001844E38384D4611068F67392F484B1497
:10077000028E5A443148462100863E3E4D3D441487
:1007800000312D2F463E4480055A464F5031400BD4
:10079000043C3E5445303C10023547534542451217
:1007A00001965D6233295117089BF1205A1D571895
:1007B0001C8D6C2E49394E1827084D343F5446196C
:1007C000321B3E204E5A41182F2B381A40614B17CE
:1007D000202B3E0E425B50140C1E44084E584C1009
:1007E00006183D164E5E420F030A45165F503F0D38
:1007F000052C4E33413948040C32554942424507D5
:100800000C39573F3247370A0E364F4146403A14AB
:100810000944533F3D3C3E0A003E3C48443C3A16A6
:1008200019865F325426581C158D642A6125512083
:100830000693535946264E21059455564B29482078
:1008400002965452512E411E029A62584D1E4C1C63
:10085000059C7A434E1D521B13946E413B36501B30
:100860002B05522C4650471A2418402445653E1843
:1008700022253B1A40614618292B3A113E5C51173C
:100880001F2F360A415D531512323207455D521152
:100890000F362A0A445D50130228231D485E421475
:1008A0000028321151574780066A2B314131398077
:1008B000217440373C3E3F8008793A1E37524C0C39
:1008C0000E004E235A4C3E2B140056284950452901
:1008D00019005A24445C3F091385612E355E400897
:1008E0001386662043603806128861312D702C050E
:1008F00006947D1942632C05008B641B4D5933050A
:1009000000154C2D314D4C80002544313B3E4C05AB
:1009100000183B3B3F453F4A004040413141418048
:100920000000000000000080000000000000004304
:1009300000143B373A3B486700182F3B3D3A4C1BAD
:100940000018343D4338457000274A284A383C8017
:10095000000000000000002200273A483E3E41808F
:100960000000000000000080000000000000008087
:10097000000000000000007E004040404040400079
:100980000035423F404040180036363636363D008E
:1009900000303934413A3602003A473A3937323575
:1009A0000038403C3D3A3B50002C38333E343F0049
:1009B000002E443F3F442E800000000000000080D5
:1009C0000000000000000080000000000000008027
:1009D0000000000000000080000000000000008017
:1009E0000000000000000080000000000000008007
:1009F00000000000000000230029262C414544008F
:100A00000016323D454433800000000000000080A5
:100A10000000000000000080000000000000000056
:100A200000003F403F404080000000000000000800
:100A30000B00020202000009040000010202000093
:100A400005240010010524010101042402060524E7
:100A50000600010705810310004009040100020A95
:100A60000000000705020240000007058302400065
:100A7000000403090412010002EF02014041233681
:100A80008000010102030141726475696E6F204CA0
:100A90004C430041726475626F7900005F1011244D
:100AA0001FBECFEFDAE0DEBFCDBF11E0A0E0B1E0C6
:100AB000E0E2F6E302C005900D92A63CB107D9F73B
:100AC00026E0A6ECB1E001C01D92A03BB207E1F721
:100AD00015E0CFE4D5E004C02197FE010E94011B80
:100AE000CE34D107C9F70E947E100C940E1B0C94D3
:100AF0000000809193018F3F31F081E080935A068E
:100B000080E2809359060895CF93DF93EC018985A5
:100B10006091580670E093E0899F600D711D11246B
:100B20008A859B850E94D91A892B31F488859F81FB
:100B3000891750F48F5F88878A859B8501969B87EC
:100B40008A87DF91CF9108951D8698870E94790545
:100B5000F3CF2F923F924F925F926F927F928F923C
:100B60009F92AF92BF92CF92DF92EF92FF920F933C
:100B70001F93CF93DF9300D000D0CDB7DEB76A01CB
:100B8000E62E43E0442EA8E5B2E0F22FBB24682E07
:100B9000969596959695E1E001FDE4E000FDEE0F57
:100BA00002FDE2955FEF5E9F100120943094159551
:100BB00007951595079515950795402F4F3F4CF4D0
:100BC0004095941B40FC440F489FC00CD11CEB1C6B
:100BD0004FEF37FF0BC0620E40FE02C0220F331FE3
:100BE000C21AD30AEB0837FDE394FF2750E8450308
:100BF0000F0EA00DB11D5F1B651608F0652E57E0A6
:100C0000541B591714F4952FB39450E85619682FB4
:100C1000772741FC02C06619770B40FE02C0660FC1
:100C2000771F1124A42EFE2E00905602D00C0090A7
:100C30005702E01C19C0729843E04EBDC60ED71E85
:100C4000E11C7724861509F073940CD0EEBC07D014
:100C5000DEBC05D0CEBC03D01EBC03D00895C89521
:100C60000000C895C8950895C61AD70AE108E3DFC1
:100C7000A1141CF0992371F564C0A058BF4F962CA5
:100C800040FC0CC02EB51EBC2F9D8C90832081286B
:100C90008D92C89500C09A94A9F711C02EB51EBCBC
:100CA0002F9D9001DEDF2EB41EBC2F9C10018C9076
:100CB00030948320832A8D92C8959A9479F71124D1
:100CC000A619B1099A9509F45CC0772019F00DB402
:100CD000729AB1DFFD01E058FF4F962C40FC0EC028
:100CE0002EB51EBC2F9D8C90822080288D928080F6
:100CF0008320812881929A9499F716C02EB51EBC44
:100D00002F9D90018C903080AEDF00C02EB41EBCB1
:100D10002F9C00948020822A8D9210943120332AB7
:100D2000319200009A9451F71124A50FB11D9A95A4
:100D300061F6BB2031F1772021F00DB4729A7BDF90
:100D4000C89540FC0CC02EB51EBC2F9D8C908220F7
:100D500080288D92C89500C06A94A9F712C02EB55C
:100D60001EBC2F9D90017DDF9EB51EBC9F9D902DCA
:100D70008C9090958922822A8D92C8956A9479F7F1
:100D8000C8951124729A0DB40F900F900F900F9088
:100D9000DF91CF911F910F91FF90EF90DF90CF9057
:100DA000BF90AF909F908F907F906F905F904F908B
:100DB0003F902F900895E8E5F2E0A0E0B8E00080D1
:100DC0000EBC8111012C1197A0FDFDCF0192B9F746
:100DD0000DB40895FC0180915502882311F13FB7AD
:100DE000F89482E08093E9002091F200822F90E055
:100DF0001816190614F481E090E0882339F0289839
:100E000044E6409354024091F1004083222339F09C
:100E10002091F200211103C02BE62093E8003FBF90
:100E200008958FEF9FEF08952FB7F89483E0809394
:100E3000E9009091E800892F807295FF04C090919D
:100E4000F20080E4891B2FBF089580914C0281112C
:100E50000DC082E08093480284E0809349021092A2
:100E60004B0210924A0281E080934C0288E492E0A7
:100E70000895CF93DF931F92CDB7DEB76983DC016E
:100E8000ED91FC910280F381E02D41E050E0BE0144
:100E90006F5F7F4F09950F90DF91CF91089583E0A9
:100EA0008093E9008091F200882319F08AE380930F
:100EB000E80008950E94140790E00895CF93DF930F
:100EC0001F92CDB7DEB7FC018485958597FD08C0DC
:100ED0002FEF3FEF358724870F90DF91CF91089553
:100EE000CE0101960E94EA06019719F4898190E0EB
:100EF000F3CF8FEF9FEFF0CF0F931F93CF93DF933D
:100F00001F92CDB7DEB78C01FC018485958597FFD4
:100F10000BC0CE0101960E94EA06019771F4898107
:100F200090E0F80195878487F801848595850F9076
:100F3000DF91CF911F910F9108958FEF9FEFF1CF28
:100F4000FC018485958597FD0BC09FB7F89482E0DE
:100F50008093E9008091F2009FBF90E00196089590
:100F60009FB7F89482E08093E9008091F2009FBFE0
:100F700090E0089540914202509143022091400236
:100F80003091410242175307B4F49091E8009570F4
:100F9000E1F39091E80092FD19C08093F1008091F7
:100FA00042029091430201968F739927892B19F47D
:100FB0008EEF8093E8008091420290914302019667
:100FC000909343028093420281E0089580E0089567
:100FD000DF92EF92FF920F931F93CF93DF93D82E60
:100FE0008A01EB017B01E40EF51ECE15DF0559F0F9
:100FF000D7FE12C0FE0184910E94BA07219681118A
:10100000F4CF0FEF1FEFC801DF91CF911F910F9128
:10101000FF90EF90DF9008958881EECF0F931F939C
:10102000CF93DF931F92CDB7DEB782E0898342E48E
:1010300050E06FE27AE080E80E94E8070E9425070E
:10104000DC0112960D911C910115110589F0D80152
:10105000ED91FC910280F381E02DBE016F5F7F4F27
:10106000C801099597FD04C0F80100851185ECCFF2
:1010700089810F90DF91CF911F910F910895615059
:1010800030F02091F100FC0120830196F8CF2898E0
:1010900084E6809354020895811105C081E06111B6
:1010A00006C080E004C0813019F46230D0F30895A6
:1010B00081E06330E0F7F5CFAF92BF92CF92DF923D
:1010C000EF92FF920F931F93CF93DF936C017B01FD
:1010D0008B01040F151FEB015E01AE18BF08C0178E
:1010E000D10759F06991D601ED91FC910190F08101
:1010F000E02DC6010995892B79F7C501DF91CF91C4
:101100001F910F91FF90EF90DF90CF90BF90AF9025
:1011100008958FB18095807F669B88601C9B84605A
:1011200008958EBD00000DB407FEFDCF089590E137
:10113000282F81E061FD84E060FD880F62FD8295CB
:10114000687F969FD0011124A20FA85ABD4F0C9022
:10115000082A40FF08260C9208959091FF019823D9
:1011600029F090910002982381E009F080E0089531
:101170009091FF01982329F490910002982381E037
:1011800009F480E008950DB407FEFDCF8EB5729A84
:1011900008950DB407FEFDCF8EB51EBC089572985C
:1011A0000E94E708862F0E94E708852F0E94E70823
:1011B000842F0C94E708462F50915602570F6091E8
:1011C0005702681F83E00E94CF081EBC08958EBDA1
:1011D00000008EB50DB407FEFCCF0895FC010E94FF
:1011E0008809319728F068517C4F8F4F9F4FF9CF76
:1011F000AB01FC010E948809641775078E079F07E1
:10120000C8F308958F929F92AF92BF92CF92DF92D0
:10121000EF92FF920F931F93CF93DF936C017B01AB
:101220008A0180919201882309F45AC08091550265
:10123000882309F455C08091470280FF05C0809142
:10124000E00082608093E000E801B12C8AEFA82ED4
:1012500093E0892E2AE3922E209711F4BB20C9F146
:101260000E941407811108C0AA94AA20C9F181E044
:1012700090E00E94EE08F0CF8C171D0611F00CF0E4
:101280008C2F9FB7F8948092E9002091E80025FD0B
:1012900002C09FBFE1CF282F30E0C21BD30BF70164
:1012A000815020F041914093F100FACFE20EF31EFD
:1012B000BB2021F09092E800B12CEBCF8091E800A8
:1012C00085FDE7CF9092E800BB24B394209709F303
:1012D000F3CF5D9884E680934602101611063CF029
:1012E00081E090E0F6019383828310E000E0C80182
:1012F000DF91CF911F910F91FF90EF90DF90CF90F2
:10130000BF90AF909F908F90089590E00C94EE085E
:10131000ACECB1E02FB7F8947D918D919C9166B5BE
:101320002FBFA89B05C06F3F18F47F5F8F4F9F4F63
:1013300022E0660F771F881F991F2A95D1F708951D
:101340006F927F928F929F92AF92BF92CF92DF92D5
:10135000EF92FF920F931F93CF93DF936D3081F045
:1013600000910F02109110026A30D9F4109212020B
:1013700010921102085F1F4F1093100200930F028A
:1013800081E090E0DF91CF911F910F91FF90EF905E
:10139000DF90CF90BF90AF909F908F907F906F9095
:1013A0000895C62FE0901102F0901202D0915806D5
:1013B000609109018D2F0E944C08782E60E08D2FDE
:1013C0000E944C08682E78122FC0672D8D2F0E9426
:1013D0004C08782E570126E0A20EB11CE701480107
:1013E00088E0880E911CCA15DB0509F44FC068011E
:1013F00017FF02C0D12CC12CC401E1E48E16910468
:1014000014F080E490E0C816D90664F4C038D10521
:1014100028F4472DB601CE010E949708FFEFCF1A9E
:10142000DF0AEACF2196DFCF25E0C29FE001112439
:10143000C455DF4F5701D12C85E0C12CD81629F0B7
:10144000CE010196FE01C490EC01912C812C462D19
:10145000C0FC472DF0E8AF16B10448F4B801680DA0
:10146000791D6034710518F4C5010E949708C6946F
:101470002FEF821A920A88E08816910441F7D394DC
:10148000EFEFAE1ABE0AF6E0DF12D6CF26E0E20E8C
:10149000F11CF0921202E092110272CF30E73CBDD3
:1014A000DC0130E8439FC0011124A80FB91F5E91F1
:1014B000352F6111372F3C93C89500C052235EBD74
:1014C0000197A9F704D003D030E50DB43CBD0895D1
:1014D000AF92BF92CF92DF92EF92FF920F931F9342
:1014E000CF93DF93EC015B016901E42E842FB901F6
:1014F0000E94DB080E94C908F82E0E94C308C03869
:10150000D1050CF03EC090E4A916B1040CF039C02E
:101510002F2D30E0A9014C0F5D1F141615060CF09D
:1015200030C0E82FF0E0AF014A0D5B1D1416150620
:101530000CF027C0FE2FEE27EF29F32B92E0C90E07
:10154000D11CE11C93E001151105A1F0869586954B
:10155000869590FD880F8F9D9001219FD00CE11CF6
:10156000309FD00CE11C319FE00C209FC00CD11C9F
:101570001124E11C85019E016E2DA601CF010E9460
:10158000A905DF91CF911F910F91FF90EF90DF9010
:10159000CF90BF90AF9008951F93CF93DF93EC014E
:1015A000162F5C98FE018591EF010E949108115061
:1015B000C9F75C9ADF91CF911F910895089590E04B
:1015C00080E008958F929F92AF92BF920F931F93E6
:1015D000CF93DF93CDB7DEB7A1970FB6F894DEBFF8
:1015E0000FBECDBF19A2423008F44AE08E010F5D54
:1015F0001F4F842E912CB12CA12CA50194010E9487
:10160000A018E62FB901CA01EA3044F5E05DD8011F
:10161000EE938D01232B242B252B79F790E080E08E
:10162000109769F0FD0101900020E9F73197AF01B3
:101630004A1B5B0BBD018CEA96E00E945C08A196F8
:101640000FB6F894DEBF0FBECDBFDF91CF911F91D3
:101650000F91BF90AF909F908F900895E95CD7CF86
:10166000FC0101900020E9F73197AF01481B590BAD
:10167000BC018CEA96E00C945C08CF92DF92EF926A
:10168000FF92CF93DF9397FF1BC06B017C016DE24C
:101690008CEA96E00E94A009EC0166277727CB012F
:1016A0006C197D098E099F094AE00E94E20A8C0F9D
:1016B0009D1FDF91CF91FF90EF90DF90CF90089525
:1016C0004AE0DF91CF91FF90EF90DF90CF900C94A4
:1016D000E20A0E94FC1723E030E040E050E00E9464
:1016E0006E186F5F7F4F8F4F9F4F6130710541F4D0
:1016F00081E080936D0110925F0110925101089575
:101700006230710531F410926D0181E080935F01C8
:10171000F4CF6330710539F410926D0110925F01BE
:1017200081E08093510108951F920F920FB60F929E
:1017300011248F939F938091E1009091E100937F1A
:101740009093E10083FF0FC01092E90091E0909325
:10175000EB001092EC0092E39093ED001092550292
:1017600098E09093F00082FF22C093E09093E9000C
:101770009091F200992319F09AE39093E8009091E8
:101780004602992341F0909146029150909346026F
:10179000911101C05D9A90915402992341F090916A
:1017A0005402915090935402911101C0289A84FFE1
:1017B00018C08091E2008E7E81608093E20080916B
:1017C000E1008F7E8093E100809147028E7E8061F0
:1017D000809347029F918F910F900FBE0F901F90A3
:1017E000189580FFF7CF8091E2008E7E8061809314
:1017F000E2008091E1008E7E8093E10080914702BB
:101800008E7E8160E5CF1F920F920FB60F9211244A
:10181000CF92DF92EF92FF920F931F932F933F93FC
:101820004F935F936F937F938F939F93AF93BF93E8
:10183000EF93FF93CF93DF93CDB7DEB76C97DEBF07
:10184000CDBF1092E9008091E80083FF25C068E0D9
:10185000CE0145960E943F0882EF8093E8008D8973
:1018600087FF39C09091E80090FFFCCF982F9076C9
:1018700009F034C19E894F89588D2F89F88C9111B8
:1018800031C0803861F5809145028093F10010925B
:10189000F1008EEF8093E8006C960FB6F894DEBFEF
:1018A0000FBECDBFDF91CF91FF91EF91BF91AF916F
:1018B0009F918F917F916F915F914F913F912F9168
:1018C0001F910F91FF90EF90DF90CF900F900FBE80
:1018D0000F901F9018959EEF9093E800C7CF10923D
:1018E000F100D5CF913059F48111D3CF413051055A
:1018F00081F6809145028D7F80934502CACF933057
:1019000049F48111C6CF4130510519F68091450245
:101910008260F2CF953041F48091E80080FFFCCFE7
:1019200020682093E300B5CF963009F0A9C00B8D55
:101930001C8D22E01092E9001092430210924202A4
:10194000F2122EC010924102109240020E940E0824
:101950001F8299E09983FA8291E09E8390EA9887AA
:101960009AEF99872091420230914302275F3F4FBF
:101970003C832B838D831092E900109243021092D6
:101980004202109341020093400249E050E0BE0140
:101990006F5F7F4F80E00E94E8070E940E0879CFBA
:1019A00010934102009340020E942507DC01129629
:1019B0000D911C910115110509F451C1D801ED914A
:1019C000FC910480F581E02DBE016B5E7F4FC80164
:1019D0000995009709F03EC1F80100851185EACF0D
:1019E000F3E0FF120EC08F89882309F440C08230D3
:1019F00061F440E867E083E99AE00E942C108111CD
:101A000048CF81E28093EB0047CF813029F440E852
:101A10006BE087E89AE0F1CF833099F70E942507C1
:101A2000DC011296ED90FC908E010F5F1F4F680154
:101A3000E114F10479F0D701ED91FC910680F78172
:101A4000E02DB801C7010995080F111DF701E084C9
:101A5000F184EECFD8011C92F60101900020E9F745
:101A60003197BF016C197D0940E0C601C6CF61E71F
:101A70007AE0FB01449150E080E80E94E80709CF3A
:101A8000973009F4BECF983021F481E08093F100C3
:101A900000CF993009F0FDCE837009F0B2CFE9E9AB
:101AA000F1E081E031E096E32191222371F080930F
:101AB000E9003093EB00DF0111972C912093EC00AB
:101AC0009093ED008F5F873079F78EE78093EA007F
:101AD0001092EA008F8980935502DBCE8B8D9C8D0E
:101AE0001092E90010924302109242029093410238
:101AF00080934002898D811192C08E899D89913A8F
:101B000049F4813209F07DCF47E050E06BE871E0A5
:101B100080E0B3CF913209F074CF833269F48F89BA
:101B2000988DB0E0A0E08093870190938801A09306
:101B30008901B0938A01ADCE803269F48091E800CA
:101B400082FFFCCF67E08BE891E00E943F088BEFBB
:101B50008093E8009ECE823209F09BCE8F898093DD
:101B60009201EEEFFFE7859194918B3F9C4D51F1EF
:101B7000E0E0F8E080918B0190918C01A0918D01C3
:101B8000B0918E01803B9440A105B105F1F48091A4
:101B9000920180FD1AC0EE3F8AE0F80789F587E7D9
:101BA00097E791838083809160008093440288E16D
:101BB0009BE00FB6F894A895809360000FBE9093B9
:101BC000600067CEEEEFFAE0D5CF80819181873754
:101BD000974709F05ECEA895809160008861809358
:101BE00060008091440280936000EE3F2AE0F2079B
:101BF00089F08091FE0A9091FF0A9183808349CEFB
:101C0000808191818737980751F29093FF0A8093E2
:101C1000FE0AC5CF1092FF0A1092FE0A3ACE0E9429
:101C20002507DC0112960D911C910115110509F48F
:101C3000E8CED801ED91FC910190F081E02DBE013C
:101C40006B5E7F4FC8010995811123CEF801008595
:101C50001185EBCF181619060CF41BCED2CEF1E08D
:101C6000FF12BECE65E77AE004CF1F920F920FB647
:101C70000F921124BF92CF92DF92EF92FF920F93B7
:101C80001F932F933F934F935F936F937F938F9304
:101C90009F93AF93BF93CF93DF93EF93FF93D09135
:101CA0009301DF3F31F080910C018150E1F080938E
:101CB0000C01FF91EF91DF91CF91BF91AF919F9177
:101CC0008F917F916F915F914F913F912F911F91D4
:101CD0000F91FF90EF90DF90CF90BF900F900FBECD
:101CE0000F901F90189584E080930C01C0915A06C4
:101CF000CC2309F433C180915906811168C08FE764
:101D00008093CF00109272008FEF80939301109216
:101D10005A06CFCF242F30E02E5F3F4F269FC001C1
:101D2000279F900D369F900D112420910A0230912B
:101D30000B02FC013296E20FF31FE491E7FD30C085
:101D4000EC5EE093FA01FC013396E20FF31FE4919D
:101D5000F0E0F093F901E093F801E2EEEE2EE1E01D
:101D6000FE2E280F391FB12C00E410E0C12CF0E149
:101D7000DF2EB416D1F0F9013496649167FF12C0DA
:101D80006F776054770BC6010E94D91AF7016193EF
:101D900071937F01060F171FB3942F5F3F4FE9CF59
:101DA000E0E0CFCF6054770BF1CF2FE7209FC00149
:101DB000219F900D11249093F7018093F60140E14B
:101DC00050E06FE770E082ED91E00E94071B1D2F4D
:101DD0001F70C1116EC06091FA01662389F18D2FC9
:101DE0000E94CD1A911165C02091F8013091F9013E
:101DF0004FE7429FC001439F900D1124F0900902CC
:101E0000A2EEB1E050E040E0212F30E08901015026
:101E100011094F1508F050C06D917D91F801E41B38
:101E2000F50BEF70FF27EE52FE4FD081D69FF001E9
:101E3000D79FF00D11248E1B9F0B4F5F5F4FE9CF93
:101E40004091D0015091D101FA01EE5FFE4F6081C7
:101E500080910001909101012BE3629F800D911D03
:101E60001124292F3327620F732F711D70930101E5
:101E70006093000180834F5F5F4F47305105A0F4AE
:101E80005093D1014093D001482F4F57550B9A01E1
:101E90004091F8015091F901249FC001259F900DB8
:101EA000349F900D1124AACF1092D1011092D0012D
:101EB000EBCF90E080E0A2CF4091F6015091F70186
:101EC000840F951F66E0959587956A95E1F78F3F9A
:101ED000910519F014F08FEF90E097FF02C090E0A9
:101EE00080E0409159064423F1F0DC01AF57B1097D
:101EF000E42FF0E0C1112AC060E270E06E1B7F0B9E
:101F00006A9FC0016B9F900D7A9F900D112497FDE1
:101F10004F9655E0959587955A95E1F781589F4FD3
:101F20004150409359062E523E4FF90180838093D1
:101F3000CF00809193018F5F80939301909106026F
:101F4000891708F4B6CE10929301B3CEAE9FC001AC
:101F5000AF9F900DBE9F900D1124D9CFD11137CFD7
:101F6000409109026091070270910802CB0101962D
:101F70009093080280930702209104023091050299
:101F80002817390708F0C6CE81E080935A0680E210
:101F9000809359068ECE0F920FB68F939F93EF9337
:101FA000FF938091C7018D5F8D3708F08D57809327
:101FB000C701E8ECF1E080818E4F808391819F4FD3
:101FC000918382818F4F828383818F4F8383ECEC57
:101FD000F1E080818F5F808381818F4F8183828157
:101FE0008F4F828383818F4F83838FB18F606699F8
:101FF0001C9B88278F3681F48091C601981B9630F0
:1020000068F0E0E0F8E087E78083818388E18093EF
:102010006000F0936000FFCF9093C601FF91EF91B5
:102020009F918F910FBE0F9018951F920F920FB630
:102030000F9211248F939F9382E496E090939900DE
:102040008093980081E08093FD019F918F910F9084
:102050000FBE0F901F901895EF92FF920F931F9352
:10206000CF93DF93F82E192FE62E042F81E0860FF1
:10207000880F0E94BA0783E00E94BA07CF2DD12FA4
:10208000EC0EFD2EF11CCE15DF05B9F007FF13C0D5
:10209000FE0184910E94BA07182F80E00E94BA07BF
:1020A000812321968111EFCFDF91CF911F910F9165
:1020B000FF90EF9008958881EDCF81E0F5CFEBE5BB
:1020C000F6E01382128288EE93E0A0E0B0E0848311
:1020D0009583A683B78383EA91E0918380838FEF12
:1020E0009FEF95878487ECEAF6E01382128285EBF6
:1020F00091E0918380831092AB060895789483E0F9
:1021000084BD83E085BD81E080936E00E1E8F0E06E
:1021100083E08083E0E881E08083E1E983E08083FD
:10212000E0E981E08083E1EC87E08083E3EC81E01B
:102130008083E0EC82E08083E2EC81E08083EAE768
:1021400087E0808380688083109255021092450258
:10215000109247028091D70081608093D70080EA77
:102160008093D80089B5806189BD89B5826089BDB9
:1021700009B400FEFDCF81E090E00E94EE0880915E
:10218000D8008F7C80618093D8008091E000807FB0
:102190008093E0008091E1008E7E8093E1008DE0ED
:1021A0008093E200559A209A81EC80937C0081EF25
:1021B00085B987EE84B984E38BB984EF8AB9769ABE
:1021C0006E9880EF81BB10BA80E58CBDC1E0CDBDBB
:1021D00085E00E9485095F9A85E00E9485095C98E8
:1021E000ECE5F6E085910E949108E936D9F75C9A12
:1021F00081E880936400C093650080E00E94DB0664
:102200000E94890887FF12C05C9885EA0E949108A5
:102210005C9A2E982F982D9880916400806280930C
:10222000640081E083BF889513BEFCCF0E948908BB
:1022300082FF37C02D980E94890884788438A1F4E1
:102240002D9A88EC0E9485092F986FEF82E090E02C
:102250000E945C1884EF91E00E94EE082F9A0E9481
:10226000890884788438D9F30E948908847184317C
:10227000A1F42D9A88EC0E9485092E9860E082E0F6
:1022800090E00E945C1884EF91E00E94EE082E9A84
:102290000E94890884718431D9F388EC0E948509F1
:1022A000C5CF2D9A82E090E00E945418882309F44B
:1022B000EEC03E9A3F9A81E090E00E945418182F99
:1022C000147081FF0AC011112E98C1EFDFEF0E9438
:1022D000890886FFDFC02E9A2F9A82E30E94850923
:1022E0000E9489088111F9CF68E089E696E00E9492
:1022F000CC0A2FB7F89482E496E0909399008093EB
:10230000980093E0909390008BE18093910010925D
:10231000950010929400809171008260809371000A
:102320002FBF909309015E9AE4E1F0E08DE49FEF06
:1023300060EF7FEF259135915591459128513549B1
:1023400009F4CA0180935602909357022591359162
:10235000559145912851354909F4BA016093FB0123
:102360007093FC0172988BEA0E94E708729A8DECD8
:102370009CECACE4BEE380932B0290932C02A093E0
:102380002D02B0932E0210920D0110920E011092A8
:102390000F01109210018DEC9CECACECBDE380932E
:1023A000110190931201A0931301B09314011092A4
:1023B0001501109216011092170110921801109237
:1023C000190110921A0110921B0110921C018CEC41
:1023D00097E2A0E08093350290933602A0933702F3
:1023E00080E090E0A4E9B2E4809313029093140299
:1023F000A0931502B09316021092170210921802C1
:102400001092190210921A0287E0809338021092FB
:10241000390281E080933A0210923E021092230228
:102420001092240210922502109226028AE097ED63
:10243000A3E2BCE38093270290932802A093290291
:10244000B0932A0210921B0210921C0210921D02DD
:1024500010921E0210921F0210922002109221026E
:10246000109222022CE3C22ED12CC1E0D3E094E0E2
:10247000792EF8948091FD018111A7C083B7816006
:1024800083BF7894889583B78E7F83BFF2CF3E98C1
:102490003F9811CF112329F0C430D10511F42E9AA1
:1024A0002F9881E00E94DB060C2F0770A02EAE0152
:1024B00033E0559547953A95E1F79A013695322FD5
:1024C000222737952795285A3D4F70E060E04E3F10
:1024D0008FEF580761F190E080E0DB01A455BA4F1F
:1024E0007901E0E8EE0EF11CFD01E80FF91FE4911F
:1024F000F0E04F010A2C02C0880C991C0A94E2F704
:102500004F3F540739F06901C80ED91EF601B4884F
:10251000B828B48AAA2039F06701C80ED91EF6017E
:1025200004890929048B019688359105E9F64F5FE6
:102530005F4F20583F4F685A7F4F603B710539F617
:1025400080E00E94DB068FE00E9485092196C93158
:10255000D10509F0BCCE112311F02F9A2D9880E9F6
:1025600091E00E94EE082D9A81E090E00E945418BC
:1025700080FFB3CE8AE090E00E9454189FEF980F3E
:102580009E3F08F0AACE22E330E03093120220935F
:10259000110228E330E03093100220930F02CAE0CA
:1025A000D0E0682F8CEA96E00E94A0092196CE0127
:1025B0000E945418C031D105A1F780E00E94DB06CB
:1025C00088EE93E00E94EE0888CE1092FD01789488
:1025D000109158062FE741E050E061E070E088ED8F
:1025E00095E00E944E0A62E083E796E00E94CC0AE2
:1025F0002FEF47E051E061E070E088E592E00E9453
:102600004E0A62E081E796E00E94CC0A8EEF810FCD
:102610001F5F8E3F30F48091FE018F5F8093FE013B
:1026200010E0109358065E9A8091FE01882389F08D
:1026300081508093FE01809100028093FF010E94EF
:1026400089088093000210913F021123C1F01130DC
:1026500049F1E0905806F12C80913F02813009F455
:102660004FC308F442C3833009F466C45E9880E027
:1026700090E0892B09F4FDCE0E940000F6CE8091F7
:102680002F0190913001009731F001979093300124
:1026900080932F01DECFC0933F02C0930D020E94B2
:1026A000690BD7CF80912E0181118AC080910202DF
:1026B000811186C080E80E94B808882341F11093F8
:1026C00075018091350190913601A0913701B0914B
:1026D00038018C019D01075F1F4F2F4F3F4F4091E5
:1026E000310150913201609133017091340104172E
:1026F0001507260737075CF40A96A11DB11D8093C4
:10270000350190933601A0933701B093380180E1F1
:102710000E94B8088823D9F082E0809375018091E7
:10272000350190913601A0913701B09138018B307D
:102730009105A105B1055CF00A97A109B109809343
:10274000350190933601A0933701B093380180E2B0
:102750000E94B808882381F080910C02D093750103
:10276000811102C0C0930C0280910C02813009F4E7
:10277000BBC1815080930C0280E20E94AD088111A0
:102780000EC080E40E94AD08811109C080E80E945B
:10279000AD08811104C080E10E94AD088111109242
:1027A000750180E40E94B808882351F080910C02E2
:1027B00070927501833009F49AC18F5F80930C0287
:1027C00010910C0210933F0180910302813009F4B3
:1027D000DEC108F48FC1823009F40DC2833009F4E0
:1027E0005DC280910D02882309F442C0C0932E017E
:1027F000C09386011092810110928401109283018E
:102800008091AB0681110DC0C093AB06F2E4F0934A
:10281000C000C093C1008FEF8093D1008FE78093F9
:10282000CF0010925A0685E796E090930B028093B2
:102830000A02E6E7F6E08491E5E7F6E094918295F6
:102840008F70809309021092080210920702109272
:102850009301C0930C01F9E6F09306028CE790E037
:1028600090930502809304027092720010920D0200
:102870001091580680918601882319F18091820178
:10288000612F70E08D9F600D711D11248091830177
:10289000909184010E94D91A892B51F48091810171
:1028A00090918001891708F00EC28F5F809381019B
:1028B000809183019091840101969093840180938B
:1028C000830100913802809139028013B0C080905A
:1028D0002B0290902C02A0902D02B0902E02A50108
:1028E000940160910D0170910E0180910F01909102
:1028F00010010E943E191B012C01A5019401609159
:1029000011017091120180911301909114010E94A4
:102910003E194B015C0120E030E0A901C201B10188
:102920000E94371A18164CF020E030E0A901C501CA
:10293000B4010E94371A181644F5A2019101609162
:102940001B0270911C0280911D0290911E020E9438
:10295000D21860931B0270931C0280931D02909307
:102960001E02A501940160911F02709120028091C6
:102970002102909122020E94D21860931F0270934C
:102980002002809321029093220220911B02309119
:102990001C0240911D0250911E0260911302709121
:1029A000140280911502909116020E94D218609331
:1029B00013027093140280931502909316022091D3
:1029C0001F02309120024091210250912202609119
:1029D0001702709118028091190290911A020E94B8
:1029E000D218609317027093180280931902909383
:1029F0001A0220E030E0A901C201B1010E943C1A94
:102A00006093230270932402809325029093260200
:102A100020E030E0A901C501B4010E943C1A609396
:102A20002702709328028093290290932A0220E0C3
:102A300030E04CEB54E460911702709118028091E1
:102A4000190290911A020E94371A181694F41092E3
:102A50001702109218021092190210921A02109284
:102A60001F02109220021092210210922202C093A3
:102A70002D0180912D01882351F0C0933E021092C8
:102A8000390210923C0210923B0210922D0180916B
:102A90003E02882309F180913A02612F70E08D9FF8
:102AA000600D711D112480913B0290913C020E94A7
:102AB000D91A892B41F480913902801708F00EC190
:102AC0008F5F8093390280913B0290913C02019686
:102AD00090933C0280933B0280910E02882309F47C
:102AE000B8CDD0933F02B5CDD0930C0245CEC09364
:102AF0000C0266CE88E00E94B808882309F471CEE3
:102B00008091020281116DCEC09302028091310149
:102B100090913201A0913301B0913401409135017F
:102B2000509136016091370170913801841B950BEB
:102B3000A60BB70B8093310190933201A093330120
:102B4000B093340110920102113059F410936E01C8
:102B50001092690110926C0110926B01C0930302F4
:102B600040CE123049F4C093600110925B01109284
:102B70005E0110925D01F2CF133081F7C0935201D4
:102B800010924D011092500110924F01E7CF113079
:102B9000A9F480916E01882309F423CE81E691E0A7
:102BA0000E94840580916E0181111BCE82E080938A
:102BB0000302D0920B01C0920A0113CE123061F4CD
:102BC00080916001882309F40CCE83E591E00E9496
:102BD000840580916001E8CF133009F002CE809126
:102BE0005201882309F4FDCD85E491E00E9484051B
:102BF00080915201D9CF8091010281112CC0C093E4
:102C0000010280916D01113021F0123089F580911F
:102C10005F01882301F140913501509136016091A7
:102C2000370170913801440F551F661F771F80913F
:102C3000310190913201A0913301B0913401840FA0
:102C4000951FA61FB71F8093310190933201A09367
:102C50003301B093340180910A0190910B01181651
:102C600019065CF4019790930B0180930A01B9CD8A
:102C700080915101133069F2EECF80913101909132
:102C80003201A0913301B0913401892B8A2B8B2B17
:102C900011F4C0930E02D0930302A3CD10926E01E3
:102CA000109269011092600110925B011092520122
:102CB00010924D010E94690B1092020210920302C1
:102CC000C09386018ECD10928601909381010E945F
:102CD0007905C0930C0210922E01EACD10923E02AB
:102CE000009339020E947905EECE870124ED34E885
:102CF00040E070E060E090E080E00E94680AB6CCBE
:102D0000870122E033E040E070E060E090E080E0A6
:102D10000E94680A570193E0A90EB11C850122E0C8
:102D200033E040E070E060E080E490E00E94680AF8
:102D30008091810187018D9F000D111D112420912B
:102D40007D0130917E0140917F0160917C0170E0B6
:102D500080917B0190E00E94680A850126ED3CE9A4
:102D600040E06CE270E080E790E00E94680A870132
:102D700026ED3CE940E06CE270E08CE590E00E94DA
:102D8000680A809139028D9F000D111D1124409019
:102D900035025090360260903702609117027091B0
:102DA00018028091190290911A020E94B0194B01E9
:102DB0006091130270911402809115029091160295
:102DC0000E94B019CB01462D9201B4010E94680AFD
:102DD0008091750187018D9F000D111D1124209197
:102DE000710130917201409173016091700170E046
:102DF00080916F0190E00E94680A809169018701CB
:102E00008D9F000D111D11242091650130916601E7
:102E1000409167016091630170916401809161014B
:102E2000909162010E94680A80915B0187018D9FE9
:102E3000000D111D1124209157013091580140912E
:102E40005901609155017091560180915301909103
:102E500054010E94680A80914D0187018D9F000DE9
:102E6000111D11242091490130914A0140914B01DB
:102E70006091470170914801809145019091460110
:102E80000E94680A80913F0187018D9F000D111DEE
:102E9000112420913B0130913C0140913D01609112
:102EA0003A0170E08091390190E00E94680A109226
:102EB0001202109211021092100210920F028DEB6A
:102EC00091E00E94300B6091350170913601809144
:102ED0003701909138010E943D0BE4E6F0E0F09359
:102EE0001202E093110288E390E090931002809325
:102EF0000F0281EC91E00E94300B609131017091E2
:102F0000320180913301909134010E943D0BE4E63F
:102F1000F0E0F0931202E09311021092100210926E
:102F20000F0283EC91E00E94300B64E670E080E0D9
:102F300090E00E943D0B9ACB87012EE439E240E0FD
:102F400070E060E090E080E00E94680A0D5F1F4F33
:102F50002EE439E240E070E060E080E490E0CDCE25
:102F60008F929F92AF92BF92CF92DF92EF92FF9299
:102F7000CF93DF93EC01688179818A819B81611510
:102F800071058105910521F464E279ED8BE597E007
:102F90002DE133EF41E050E00E946E1849015A01E3
:102FA0009B01AC01A7EAB1E40E948D186B017C0182
:102FB000ACEEB4EFA50194010E949B18C60ED71E7B
:102FC000E81EF91EF7FE06C081E0C81AD108E10824
:102FD00080E8F80AC882D982EA82FB82C701B6017A
:102FE0009F77DF91CF91FF90EF90DF90CF90BF90D0
:102FF000AF909F908F9008958F929F92AF92BF92C3
:10300000CF92DF92EF92FF926091940170919501BF
:103010008091960190919701611571058105910547
:1030200021F464E279ED8BE597E02DE133EF41E0A7
:1030300050E00E946E1849015A019B01AC01A7EAB9
:10304000B1E40E948D186B017C01ACEEB4EFA501D8
:1030500094010E949B18C60ED71EE81EF91EF7FEAB
:1030600006C081E0C81AD108E10880E8F80AC092D9
:103070009401D0929501E0929601F0929701C701D8
:10308000B6019F77FF90EF90DF90CF90BF90AF9009
:103090009F908F9008956093940170939501809311
:1030A0009601909397010895F999FECF92BD81BD45
:1030B000F89A992780B50895262FF999FECF92BDE9
:1030C00081BDF89A019700B4021639F01FBA20BDED
:1030D0000FB6F894FA9AF99A0FBE0895052E97FB49
:1030E0001EF400940E94851857FD07D00E94A01876
:1030F00007FC03D04EF40C948518509540953095FC
:1031000021953F4F4F4F5F4F089590958095709553
:1031100061957F4F8F4F9F4F08950E94C218A59FC2
:10312000900DB49F900DA49F800D911D11240895C2
:10313000B7FF0C948D180E948D18821B930B089575
:10314000A1E21A2EAA1BBB1BFD010DC0AA1FBB1FAB
:10315000EE1FFF1FA217B307E407F50720F0A21B1D
:10316000B30BE40BF50B661F771F881F991F1A948A
:1031700069F760957095809590959B01AC01BD01B4
:10318000CF010895A29FB001B39FC001A39F700D0E
:10319000811D1124911DB29F700D811D1124911D5F
:1031A00008955058BB27AA270E94E9180C94FD19CE
:1031B0000E94EF1938F00E94F61920F039F49F3F71
:1031C00019F426F40C94EC190EF4E095E7FB0C943A
:1031D000E619E92F0E940E1A58F3BA17620773070F
:1031E0008407950720F079F4A6F50C94301A0EF4B4
:1031F000E0950B2EBA2FA02D0B01B90190010C0107
:10320000CA01A0011124FF27591B99F0593F50F41E
:10321000503E68F11A16F040A22F232F342F442776
:10322000585FF3CF469537952795A795F04053956E
:10323000C9F77EF41F16BA0B620B730B840BBAF03E
:103240009150A1F0FF0FBB1F661F771F881FC2F7A9
:103250000EC0BA0F621F731F841F48F487957795BD
:103260006795B795F7959E3F08F0B0CF9395880F77
:1032700008F09927EE0F9795879508950E945219A7
:103280000C94FD190E94F61958F00E94EF1940F0B5
:1032900029F45F3F29F00C94E61951110C94311A6E
:1032A0000C94EC190E940E1A68F39923B1F355237C
:1032B00091F3951B550BBB27AA2762177307840749
:1032C00038F09F5F5F4F220F331F441FAA1FA9F3DF
:1032D00035D00E2E3AF0E0E832D091505040E695CD
:1032E000001CCAF72BD0FE2F29D0660F771F881F2E
:1032F000BB1F261737074807AB07B0E809F0BB0B21
:10330000802DBF01FF2793585F4F3AF09E3F510534
:1033100078F00C94E6190C94311A5F3FE4F3983E70
:10332000D4F3869577956795B795F7959F5FC9F71D
:10333000880F911D9695879597F90895E1E0660F9E
:10334000771F881FBB1F621773078407BA0720F017
:10335000621B730B840BBA0BEE1F88F7E095089580
:103360000E94B7196894B1110C94311A08950E9403
:10337000161A88F09F5798F0B92F9927B751B0F0D7
:10338000E1F0660F771F881F991F1AF0BA95C9F7E9
:1033900014C0B13091F00E94301AB1E008950C943D
:1033A000301A672F782F8827B85F39F0B93FCCF3F0
:1033B000869577956795B395D9F73EF49095809566
:1033C000709561957F4F8F4F9F4F089597F99F6735
:1033D00080E870E060E008959FEF80EC089500249D
:1033E0000A941616170618060906089500240A946A
:1033F00012161306140605060895092E0394000CF0
:1034000011F4882352F0BB0F40F4BF2B11F460FF7E
:1034100004C06F5F7F4F8F4F9F4F089557FD9058A7
:10342000440F551F59F05F3F71F04795880F97FB88
:10343000991F61F09F3F79F0879508951216130642
:103440001406551FF2CF4695F1DF08C01616170671
:103450001806991FF1CF86957105610508940895A6
:10346000E894BB2766277727CB0197F908950E9438
:10347000A91A08F48FEF08950E944F1A0C94FD19B1
:103480000E94EF1938F00E94F61920F0952311F0F0
:103490000C94E6190C94EC1911240C94311A0E9426
:1034A0000E1A70F3959FC1F3950F50E0551F629F60
:1034B000F001729FBB27F00DB11D639FAA27F00D8D
:1034C000B11DAA1F649F6627B00DA11D661F829FB4
:1034D0002227B00DA11D621F739FB00DA11D621F99
:1034E000839FA00D611D221F749F3327A00D611DB6
:1034F000231F849F600D211D822F762F6A2F112498
:103500009F5750409AF0F1F088234AF0EE0FFF1FCA
:10351000BB1F661F771F881F91505040A9F79E3F21
:10352000510580F00C94E6190C94311A5F3FE4F3D6
:10353000983ED4F3869577956795B795F795E79577
:103540009F5FC1F7FE2B880F911D9695879597F980
:103550000895990F0008550FAA0BE0E8FEEF161624
:103560001706E807F907C0F012161306E407F50777
:1035700098F0621B730B840B950B39F40A2661F0EB
:10358000232B242B252B21F408950A2609F4A1408E
:10359000A6958FEF811D811D0895991B79E004C0C8
:1035A000991F961708F0961B881F7A95C9F7809582
:1035B000089597FB072E16F4009407D077FD09D0E5
:1035C0000E94ED1A07FC05D03EF4909581959F4F1F
:1035D0000895709561957F4F0895AA1BBB1B51E11B
:1035E00007C0AA1FBB1FA617B70710F0A61BB70B73
:1035F000881F991F5A95A9F780959095BC01CD0118
:103600000895EE0FFF1F0590F491E02D0994DC0161
:1036100001C06D9341505040E0F70895F894FFCFFA
:10362000420087DDDC1035BC5C013C00010000007D
:10363000000000003F00000040000000000000000B
:103640000000000000000000000000000001014B2D
:1036500000640000000A0000003110061E00030094
:10366000000000000040002A00589E0005000400F1
:103670000000002C002A00589E00050004000001F4
:103680000018002A00589E000500040000000004F5
:10369000270A240004000000000000500412480023
:1036A00008000200000000FFFFFFFF00E100000033
:1036B000000000FF0100000000C180810000000048
:1036C000000000390702095A074F07A0075E077C70
:1036D0000700000000A0095C08DF0ADE0A426574EA
:0636E0002024004400005C
:1074000080E189BD82E189BD09B400FEFDCF089508
:10741000D5D569F08091E9008F931092E900AAD444
:1074200083FF01C029D58F9187708093E90008956B
:107430008EEF0090E10008220092E1000895F20131
:10744000F999FECFF2BDE1BD0895F9DFF89A80B554
:1074500008C0F5DF1FBA80BD0FB6F894FA9AF99A02
:107460000FBE31962F010895E0E0F0E085919491F0
:107470000196089572985F9A8BEA34D01092890031
:107480008AEF8093880082E080936F0083E080938E
:107490008100EFE6F7E785913AD0EB37E1F781E03D
:1074A0008093D7008AE482BF1092D8001092E20045
:1074B0001092DA001092E10080E808D019BC1EBAE0
:1074C0001092E0006DD489E05ED481E98093D80009
:1074D0000895A3E6B1E090E81AD08D939A95E1F76C
:1074E000089586E008D010C083E005D08F2F0FD01C
:1074F0008E2F0DD080E05E9A729809C005D085E08D
:10750000FADF05D080FDFDCF729A5E9808958EBD9A
:107510008DB587FFFDCF8EB508958FE08221E9F705
:10752000F3DFE3E6F6E090EB5C98892FF0DF80E193
:10753000EEDF5C9A8191EBDF83E68E278F77D1F7C0
:107540009395983B89F70895E3E6F1E097FC36C000
:1075500094FC4DC092FE089596849920D1F3F8943E
:10756000C089D78520E030E080E090E4AFEFBFEF46
:10757000119689199040E0F72D01BD4F8D0127FD2F
:1075800013C0E0E0F8E011928EE7819392E4E117F6
:1075900091939AE508F092E4E334C9F7819310825D
:1075A000BFDFFE012196A0DF94DFF9010AD5205844
:1075B0003F4F040D151D9A9411F71BC28301282D0E
:1075C00060906C0170906B0143D019F48823C1F76F
:1075D0000895380188243CD0C9F580916A0182174A
:1075E00009F4830160906E0170906D01F4CF80E129
:1075F000982E60906E0170906D012AD059F4882306
:10760000B1F708959FEF95FC03C096FE089591E0B1
:1076100097FB890E662477248301222719D0B1F4C1
:107620008823A1F380916A0136F0881650F48217FE
:1076300030F0213003C0881520F4281710F483019E
:10764000282F60906E0170906D01E8CF3801822E76
:10765000F3014ADF3EDFC3E6D1E0E8E6F7E7099051
:107660008591081621F4EF36D1F7088080104CCFB1
:10767000C9E031DFCA95E9F7D0E195FC1FC094FC61
:1076800038C096FC01C051C0C3E6D2E0E3E6F6E0A4
:1076900098E088E78E0F00840192E817E1F7884FA1
:1076A00009900192E817E1F7C858DF4F9A9589F7DA
:1076B00034DFC85FD340C33E49F749C0C3E6D6E0D4
:1076C000EBE5FAE098E08E2F885702900086E817E5
:1076D000E1F738960A900292E817E1F73897C85711
:1076E000D0409A9581F719DFC850DC4FC33E41F76F
:1076F0002EC0A3EEB6E0E3E6F6E09AE0C6E00D9019
:1077000080818025807F802582958193A336B9076B
:1077100009F4B2E0E336F90709F4F2E0E336FC07D6
:1077200071F7FBDEDA9529F712C0A3EEB9E0E3E6C4
:10773000FAE092E00E90829180258F7080258295EC
:107740008083E336F907B1F7E8DEDA9571F7882729
:10775000089580E880BF8DEA8093640089E9809372
:10776000650085E083BF889541524455424F59D505
:10777000F08D14A1C881CFD9F1AF000000FFFFCF79
:10778000CFFFFFFFFFCFCFFFFF0000FE067E7E068C
:10779000FE46565616FE0656461EFE3F61E9E3FFBC
:1077A000E3EBE3FFE3EBE3FFE16B3F0012011001CA
:1077B0000200000841233600010000000001090218
:1077C0003E000201008032090400000102020100B3
:1077D0000524001001042402040524060001070505
:1077E00082030800FF09040100020A0000000705E7
:0C77F000040210000107058302100001D4
:1078000011241FBE04B714BE88E18093600010925B
:1078100060008EEF9AE09EBF8DBF222433242101A9
:107820003101410180E88AC00F928F939F931F928C
:107830000FB60F9211244F936F938091DA0080FF5F
:1078400037C023C00F920FB68F939F93EF93FF9390
:1078500088278093850080938400E0E5F1E09281A1
:10786000907261F490818917980B908309F45D9A66
:1078700091818917980B918309F4289A239411F424
:107880008315381EFF91EF9154C08091D80080FF7E
:107890000FC08091DA008E7F8093DA008091D9004A
:1078A00080FF04C0ADDD81E08EBB02C019BC1EBAF2
:1078B0008091E10080FF0BC060D280FF08C060D2E1
:1078C0008091D800806202DE19BC85E08EBB809179
:1078D000E10084FF1AC051D284FF17C091DD80916E
:1078E000D8008F7DF3DD8FEEA4DD47D28F7E8160DF
:1078F0004AD280915301882331F48091E30087FDBF
:1079000002C081E001C084E08EBB8091E10083FF72
:107910000CC033D283FF09C087EF8BDD82E08EBBC2
:107920001092530185DD2CD23BD26F914F910F9075
:107930001F909F918F910FBE0F90189580936100BB
:1079400010926100B1E0B5BF82E085BF81EF85B9DB
:1079500087EE84B984E08DB984E48EB910BA83EFE0
:1079600081BB80E68BB980EF8AB980E58CBDBDBD57
:10797000A0E0ECEAF7E705900D92A035E1F78C91D5
:107980001D92BB30E1F7893B11F4ACDDE2CE000083
:1079900004C07C9B02C068DD61F56CDD789458DE24
:1079A00071F0ABE9B7E0EBE7F7E790E105900D92F6
:1079B0009A95E1F7A059BF4FEB3AB9F7B2DD56D02F
:1079C00027DD80915201807881F48FB18095807F8E
:1079D00066991C9B8460982E15DE89EB8825809320
:1079E000FF0A8110B1DD92FC02C0332042F73CDD7A
:1079F00031F3F89489EB76DD81E08093E00010921A
:107A00006F0010928100109285001092840081E036
:107A100085BF15BE2E9A2F9A2D9A5D9A289A0C949E
:107A20000000A6D107C057D102C0C8D239F0A2D1F8
:107A300082FFFBCF85FFF7CF8091F1000895082EDC
:107A400083E097D185FD07C08CD102C0B7D269F021
:107A500091D180FFFBCF0092F100809152018072A2
:107A600021F45D9884E680935001089581D182FFCE
:107A700034C180915201807221F4289884E6809369
:107A80005101CFDF182F853431F422248EE7382EB0
:107A9000D6DC8DE00BC1843511F4C3DFFACF8C3412
:107AA000C1F38035B1F3843721F484E4C8DF80E08A
:107AB000FDC0813611F489E5F9C0813429F4B1DFC4
:107AC000582EAFDF482EE5CF803711F483E5EEC0A6
:107AD000833539F4E8E6F7E78591B1DFEF36E1F772
:107AE000E6C0863521F482E3AADF80E3DFC0863773
:107AF00061F481E3669B8E5F1C9B8F5FA0DF8FB17B
:107B0000809582958F708F5BD1C08837A9F489DF0B
:107B100080935201289A84FD28985D9A83FD5D9890
:107B20002E9A81FD2E982F9A82FD2F982D9A80FDF6
:107B30002D9887FD8824ADCF8A3649F48FE9DBDCA8
:107B4000C3E0E5DC7CDFCA95E1F7DEDCB0C083375B
:107B500031F487E874DF85E972DF8EE1A7C08536EE
:107B600039F4E0E8F3E740D2E058F040E0F791CF95
:107B7000823631F489E563DF80E061DF80E896C01A
:107B8000823419F0873609F07DC033244ADFD82FBC
:107B900048DFC82F46DF082F8354843008F085C0A3
:107BA000063411F4440C551CF20110926F00173684
:107BB000B9F4033489F483E098DCA9DC8EB51EBCEB
:107BC0003EDF0DB42197D1F79FDC08C0063411F4D5
:107BD000859101C03ADC33DF2197C2F72F014AC0FB
:107BE0000334A9F4E11104C07CDC88ED7EDC86DC82
:107BF00078DC82E07ADC15DF0DB48EBDCA95D9F74A
:107C0000319686DC7BDCDA9569F72F0131C00634CA
:107C1000F1F49F01F437D8F4E7D119C002DF06343C
:107C200061F4C0FB46F0F43728F4182E81E087BFDA
:107C3000E89511243296082E0AC0043439F4DF0185
:107C4000B370AD59B94F8D93319601C002DC2197C5
:107C50002AF7043431F42F01F370FE2B49F461DC70
:107C600007C0063429F42F01F901F43708F4BAD11A
:107C70008DE0E5DE063411F45694479482E080935B
:107C80006F0015C08237E1E049F08634E0E031F062
:107C90008E34E3E019F0813531F4E2E0F0E089E080
:107CA00087BF849103C08B3111F08FE3C8DE83E07E
:107CB000BCDB57D095FF03C009C080D171F05AD00A
:107CC00080FFFBCF4ED002C079D139F053D080FF76
:107CD000FBCF84E0AADB8BE745C00895E4E5F1E043
:107CE00067E090915B0180915C01913231F0913AB3
:107CF000F1F58132E1F560D183C0823281F4819166
:107D0000805B8191844099F580915D0180FD2FC059
:107D1000F89481E08093E0001092FF0A71CD8032E8
:107D200031F54AD14BD1E9F08530D9F023D083FD2C
:107D300018C082FFF7CF04C07FDE8193615031F01D
:107D40009091F3008091F200892BB1F7C4DF6115A7
:107D500049F704C033D129F0853019F00BD080FFEA
:107D6000F9CF8EE79091E80089238093E800089589
:107D700084E05BDB8091E80008958091E200089543
:107D8000FCDF8E7F80618093E200089582E061ECE9
:107D900009D083E061E802D084E060E842E103C0FA
:107DA00080E060E042E041DB81E007D01092ED002E
:107DB0006093EC004093ED0008959091EB00892BC7
:107DC0008093EB00089560E0923029F0913029F41F
:107DD000E0E062E102C0E2E16EE3F1E0089580914B
:107DE0005B0188234CF402C0E9D0C1F3C3DF82FFFA
:107DF000FBCF71CFE3D091F3BDDF80FFFBCFB1CFDD
:107E000040916101509162014617510520F0462FC3
:107E1000611509F4A6DF50E022C0D0D061F18530B1
:107E200051F1A8DF83FD57CFA5DF82FD21C080FF80
:107E300016C03091F3002091F20006C0819180932A
:107E4000F10041502F5F3F4F411519F028303105A7
:107E5000A8F350E02830310509F451E082DF4115E4
:107E6000E1F65523D1F604C0A9D029F0853019F0E8
:107E700081DF82FFF9CF2FCFEBE5F1E0DDDD8193EC
:107E8000E336E1F72BDF76DF83FF91C080915B0162
:107E900090915C01913009F170F09330F1F09530E0
:107EA00009F444C0963009F456C0983009F460C013
:107EB000993059F767C0823841F780915F01B4DA91
:107EC0002091EB001092E90077D022952695217041
:107ED0002093F1001092F10052C0882311F08230FB
:107EE000A1F68F71823089F680915D018823D1F4EB
:107EF00020915F01277049F22093E9008091EB0007
:107F000080FF10C0933011F480E20BC080E155DF98
:107F100081E0880F2A95E9F78093EA001092EA0041
:107F200088E04BDF1092E90047D02AC0882391F403
:107F300010915D0110680FB7F8943ED050DF1ADF42
:107F400080FFFDCF1093E300103883E009F482E056
:107F50008EBB0FBF2CC08058823048F580915D01E8
:107F600090915E0130DF603011F126D049DF1FC0F3
:107F70008038E9F421D0809153018093F100F1DE43
:107F80002EDF15C0882399F490915D01923078F42A
:107F90009093530111D023DF80915301882321F462
:107FA0008091E30091E087FD94E09EBBEFDEE2DE8E
:107FB00083FF089580E201DF87EFD4CE8EB388235C
:107FC0000895A3E6B1E0F437B8F40ED090E40D9034
:107FD0001D9081E087BFE89532969A95C1F71124EC
:107FE000E058F04085E001C083E001D081E187BF27
:107FF000E89507B600FCFDCF08953230E4CFFBDCF6
:00000001FF
