:100000000C9408190C9430190C9430190C94301974
:100010000C9430190C9430190C9430190C9430193C
:100020000C9430190C9430190C94AA200C941921BA
:100030000C9430190C9430190C9430190C9430191C
:100040000C9430190C9430190C9430190C9430190C
:100050000C9430190C9430190C9430190C944B23D7
:100060000C9430190C9430190C9430190C943019EC
:100070000C9430190C9430190C9430190C943019DC
:100080000C942B250C9430190C9430190C943019C5
:100090000C9430190C9430190C9430190C943019BC
:1000A0000C9430190C9495230C9430190000000026
:1000B000003E5B4F5B3E3E6B4F6B3E1C3E7C3E1CEE
:1000C000183C7E3C181C577D571C1C5E7F5E1C0034
:1000D000183C1800FFE7C3E7FF0018241800FFE7EB
:1000E000DBE7FF30483A060E2629792926407F05AE
:1000F0000507407F05253F5A3CE73C5A7F3E1C1CC4
:1001000008081C1C3E7F14227F22145F5F005F5F83
:1001100006097F017F006689956A6060606060946F
:10012000A2FFA29408047E040810207E2010080874
:100130002A1C08081C2A08081E101010100C1E0C7F
:100140001E0C30383E3830060E3E0E060000000011
:100150000000005F00000007000700147F147F14F8
:10016000242A7F2A1223130864623649562050003D
:1001700008070300001C2241000041221C002A1C29
:100180007F1C2A08083E0808008070300008080814
:100190000808000060600020100804023E51494534
:1001A0003E00427F400072494949462141494D3352
:1001B0001814127F1027454545393C4A49493141B9
:1001C000211109073649494936464949291E000087
:1001D00014000000403400000008142241141414DC
:1001E0001414004122140802015909063E415D59C8
:1001F0004E7C1211127C7F494949363E41414122D1
:100200007F4141413E7F494949417F090909013EFA
:10021000414151737F0808087F00417F4100204021
:10022000413F017F081422417F404040407F021C33
:10023000027F7F0408107F3E4141413E7F0909094A
:10024000063E4151215E7F09192946264949493216
:1002500003017F01033F4040403F1F2040201F3FDC
:100260004038403F63140814630304780403615961
:10027000494D43007F4141410204081020004141A3
:10028000417F04020102044040404040000307084F
:100290000020545478407F2844443838444444284B
:1002A000384444287F385454541800087E090218F2
:1002B000A4A49C787F0804047800447D400020407A
:1002C000403D007F1028440000417F40007C0478BE
:1002D00004787C080404783844444438FC18242406
:1002E0001818242418FC7C08040408485454542486
:1002F00004043F44243C4040207C1C2040201C3C03
:100300004030403C44281028444C9090907C4464F9
:10031000544C44000836410000007700000041368C
:10032000080002010204023C2623263C1EA1A16112
:10033000123A4040207A3854545559215555794144
:100340002154547841215554784020545579400C1B
:100350001E527212395555555939545454593955FC
:100360005454580000457C410002457D420001453F
:100370007C40F0292429F0F0282528F07C545545AC
:10038000002054547C547C0A097F4932494949323F
:100390003248484832324A4848303A4141217A3A54
:1003A00042402078009DA0A07D39444444393D401E
:1003B00040403D3C24FF2424487E4943662B2FFCCB
:1003C0002F2BFF0929F620C0887E09032054547979
:1003D000410000447D413048484A32384040227A4A
:1003E000007A0A0A727D0D19317D2629292F2826C7
:1003F0002929292630484D402038080808080808CF
:100400000808382F10C8ACBA2F102834FA00007B27
:10041000000008142A142222142A1408950022002D
:1004200095AA005500AAAA55AA55AA000000FF00E7
:10043000101010FF00141414FF001010FF00FF1024
:1004400010F010F0141414FC001414F700FF000056
:10045000FF00FF1414F404FC141417101F10101FD5
:10046000101F1414141F00101010F0000000001FC3
:10047000101010101F10101010F010000000FF10CE
:100480001010101010101010FF10000000FF1400CA
:1004900000FF00FF00001F10170000FC04F41414FC
:1004A0001710171414F404F40000FF00F7141414C8
:1004B00014141414F700F7141414171410101F1048
:1004C0001F141414F4141010F010F000001F101F6B
:1004D0000000001F14000000FC140000F010F010D9
:1004E00010FF10FF141414FF141010101F00000050
:1004F00000F010FFFFFFFFFFF0F0F0F0F0FFFFFF54
:100500000000000000FFFF0F0F0F0F0F38444438AA
:10051000447C2A2A3E147E02020606027E027E02E5
:1005200063554941633844443C04407E201E200604
:10053000027E020299A5E7A5991C2A492A1C4C7241
:1005400001724C304A4D4D303048784830BC625AC8
:10055000463D3E494949007E0101017E2A2A2A2A58
:100560002A44445F444440514A444040444A514034
:100570000000FF0103E080FF000008086B6B0836F5
:1005800012362436060F090F060000181800000066
:100590001010003040FF0101001F01011E00191D55
:1005A0001712003C3C3C3C0000000000F0F89C8E20
:1005B0008783878E9CF8F00000FEFF03030303038C
:1005C000070EFCF80000FEFF0303030303070EFC05
:1005D000F80000FFFF00000000000000FFFF000027
:1005E000FEFF8383838383C7EE7C380000F8FC0E14
:1005F00007030303070EFCF800003F7FE0C0808084
:10060000C0E07F3FFFFF01010101010101FFFF0089
:1006100000FFFF0C0C0C0C1C3E77E3C100007FFFB9
:10062000C0C0C0C0C0E0703F1F00001F3F70E0C0EE
:10063000C0C0E0703F1F00007FFFC1C1C1C1C1E366
:10064000773E1C00001F3F70E0C0C0C0E0703F1F3D
:10065000000000000001FFFF01000000D5F08D1434
:10066000A1C881CFD9F1AF2000C0A0D92181FFA8B6
:1006700000A800A83F776080000000000000008014
:10068000000000000000008000000000000000806A
:100690000000000000000080000000000000007E5C
:1006A00000613B333B4343800000000000000080BA
:1006B0000000000000000080007F713C262A378087
:1006C000056A564952483D80075B472F483F3C80AA
:1006D000065546315058440F1E18391D51573D14C8
:1006E0008E14472544613D16AF2E3B2737634C17C8
:1006F000682D3727396A49186F263A2E376A441809
:10070000641B4032346A401739154037317435154F
:100710002C06503A2A74341226084D3C26763010A6
:1007200012035621425C3E0E020A3B27535A370EF3
:10073000001E3D2A3E51521400213E32324E4D0ED3
:10074000001B38403B424D800853345049394180AA
:10075000065A374943424580014F42413C47440DC8
:1007600001844E38384D4611068F67392F484B1497
:10077000028E5A443148462100863E3E4D3D441487
:1007800000312D2F463E4480055A464F5031400BD4
:10079000043C3E5445303C10023547534542451217
:1007A00001965D6233295117089BF1205A1D571895
:1007B0001C8D6C2E49394E1827084D343F5446196C
:1007C000321B3E204E5A41182F2B381A40614B17CE
:1007D000202B3E0E425B50140C1E44084E584C1009
:1007E00006183D164E5E420F030A45165F503F0D38
:1007F000052C4E33413948040C32554942424507D5
:100800000C39573F3247370A0E364F4146403A14AB
:100810000944533F3D3C3E0A003E3C48443C3A16A6
:1008200019865F325426581C158D642A6125512083
:100830000693535946264E21059455564B29482078
:1008400002965452512E411E029A62584D1E4C1C63
:10085000059C7A434E1D521B13946E413B36501B30
:100860002B05522C4650471A2418402445653E1843
:1008700022253B1A40614618292B3A113E5C51173C
:100880001F2F360A415D531512323207455D521152
:100890000F362A0A445D50130228231D485E421475
:1008A0000028321151574780066A2B314131398077
:1008B000217440373C3E3F8008793A1E37524C0C39
:1008C0000E004E235A4C3E2B140056284950452901
:1008D00019005A24445C3F091385612E355E400897
:1008E0001386662043603806128861312D702C050E
:1008F00006947D1942632C05008B641B4D5933050A
:1009000000154C2D314D4C80002544313B3E4C05AB
:1009100000183B3B3F453F4A004040413141418048
:100920000000000000000080000000000000004304
:1009300000143B373A3B486700182F3B3D3A4C1BAD
:100940000018343D4338457000274A284A383C8017
:10095000000000000000002200273A483E3E41808F
:100960000000000000000080000000000000008087
:10097000000000000000007E004040404040400079
:100980000035423F404040180036363636363D008E
:1009900000303934413A3602003A473A3937323575
:1009A0000038403C3D3A3B50002C38333E343F0049
:1009B000002E443F3F442E800000000000000080D5
:1009C0000000000000000080000000000000008027
:1009D0000000000000000080000000000000008017
:1009E0000000000000000080000000000000008007
:1009F00000000000000000230029262C414544008F
:100A00000016323D454433800000000000000080A5
:100A10000000000000000080000000000000000056
:100A200000003F403F4040800000000000000062A6
:100A3000420A0414443F630A04174041630E0D0F39
:100A40003D475B3B101337475D3B0D1731495F193D
:100A50000C0A4047583B0C0F39495A3B0C15324A97
:100A60005D460B1139465D3B0B1436475E3B0B0C64
:100A700043415D460A1336495C3B0B0D40445B3BEA
:100A80000A14344A5C3B0B1239465D0E0708424794
:100A9000573B0B1338465D3B060F39495B3B081942
:100AA0003147613B070B463F5C3B091438465E3BD0
:100AB000081832495D3B0616314C5C46060B424530
:100AC0005946061733485E3B071339465C3B06160A
:100AD00034495C46061736465F46050F41425B0EB9
:100AE000051339485B46051934485E46051D3148F3
:100AF0005F460207444B5346051938465C46020CD4
:100B000045455646041B36465D4602084E3F57464D
:100B100003183F475746031B3C455A46021A3C48B8
:100B20005846021F40455746021D46425846021B82
:100B300047435846011A49465346012249485246FE
:100B400001204C47504601294C4754460016504A54
:100B50004A4601224E425146012449415646012B44
:100B600044475346001259424A030919574E554EFD
:100B7000132D45575F4E1426475A570A12234362D6
:100B8000500A10244162504E0E24455E534E0F2AE7
:100B900046585B0A0C2A445B5A4E0A2B405E594E5B
:100BA0000A28435E560A0B264858590A082B445A0D
:100BB0005B0A0824455E540A072244614F0A072550
:100BC0004163504E082C45585D0A072C45585E0A73
:100BD0000627445D560A0628435E560A0627455CEA
:100BE000570A042D435A5D0A052C415D5A0A042315
:100BF0004461504E04264062524E0428445C580A18
:100C0000042A48565D0A0327465A594E031F446377
:100C10004B0A031D46614B0A03284759590A02290A
:100C2000465A5A0A0226465B560A021C47604B0A7D
:100C30000120475E500A0123475D530A01284956A7
:100C40005B0A012848585A0A011F4C58540A001CD4
:100C500047604C0A00224C55574E001D4E55530A12
:100C6000002947535D460021444E5046001F524321
:100C7000574600264C425B46001F4E475146002C0B
:100C80004844574600254C4556460022454E4E46A0
:100C9000002A4C4158470027484853080717434744
:100CA0005F380A1646426238091A3E486012091A2D
:100CB000434364380A1D3F4565380A1C4241663883
:100CC0000A1D40436638081B42426538081B4243F0
:100CD0006438081846416438071743446238071AD5
:100CE0003F46623807194343643806184244623865
:100CF00006184443623807194442643805184542CF
:100D00006338051A44416538051A40476138051DA6
:100D10003D476338041D3F456438051E3E45651256
:100D2000041A3F48613803174642633803154A3EA8
:100D3000641203164A3D6538021943426438021AA8
:100D40004242642502164A3B663801184442643820
:100D5000011A41446338021C40446538011845417A
:100D60006438011A41446438011943446238001F51
:100D70003E456538001B41456338001746406425F1
:100D8000001A43436338001C3D496138001741484D
:100D90005E0800154A3F5F2F001F3D3E5625001B91
:100DA0003E455213002B39414C0B00404040407EE1
:100DB0000040404040800000000000800000000033
:100DC0000080000000000006010E48524F38081A4B
:100DD000414562380A18454164380A17464163386C
:100DE00008194441653809194341653809174542D6
:100DF00063380A19414562380919453F65380A1CAC
:100E000041426638091A453E6738091B4242653837
:100E1000091B41446425091C41436638081C3F45B1
:100E20006438071B40456338071743466138061787
:100E300046416338061A4242643805194342643811
:100E4000041743456138041548416238051B3E4785
:100E50006238041941456238041E3C476438042056
:100E60003A48640A0D1A3E41650A0E16433E650A69
:100E70000F16443E640A0D154340630A0C16433EA8
:100E8000650A0C184041640A0B174042620A0B16AF
:100E90004043620A0B16423F640A0A164141630A44
:100EA0000919403F660A0A18413F650A0A15463C7F
:100EB000650A0715433E650A0813473D630A08198A
:100EC0003E43630A06183F42630A0614453D640A1E
:100ED0000615443D650A0515453D640A0519403F60
:100EE000650A0515434062000414453D640A041672
:100EF0004140630A0415433F63020E18324C5C3BC9
:100F00000F1039485B3B111C2A4B61190E103849F0
:100F10005B3B0F1B2E47613B0D0B404659190E17CB
:100F200032485F3B0A0E3D475A3B0A16314B5D3B48
:100F30000B15324A5D3B0B1732475F3B0A0C4045AD
:100F40005A3B0B1E284B613B0814334C5B3B081784
:100F5000314B5D3B081339455E3B070F3D465B3B1C
:100F60000817304C5C3B070B40475819050C3B4DAC
:100F7000563B070E3D49583B080C43425B0E061199
:100F80003B445D3B051138495A3B060D3E48583BF2
:100F9000071439475B3B030B4248573B0310394A60
:100FA0005A3B03084546563B03084C40573B031049
:100FB0003E49563B0314374B5852020A4549535297
:100FC00002064848523B02074D4452510208504124
:100FD00052510109474A5152010E4149550201003F
:100FE0005B404D5102164A4453520214454B4E0386
:100FF00001114A42525100005654365201194F4FC6
:10100000475101224A4B4F51013748475952000F6F
:1010100057464B51001256434E5100244F495251EE
:101020000131454B53520107643C430A0C2B3D628E
:10103000560A102D405E590A0F2F425A5E0A0D259E
:101040004262510A0E2342634F0A0E23465D530A41
:101050000C30425A5F0A0A2C435B5C0A092B406041
:10106000570A08244262500A082B425D590A082D8B
:10107000435B5C0A082A415F574E0725435F530ACA
:101080000723455F520A062A415F570A062A435D35
:10109000580A062A435C590A0624445F530A042A64
:1010A000415E580A042B425D590A042D425C5C0AD9
:1010B000042B415F580A0324445F530A0328435D0D
:1010C000570A032947585B0A032D44595E0A032334
:1010D000455F510A0326435F530A022A445A5A0ABB
:1010E000022D45585E0A022947585B0A011C4B5BDA
:1010F0004F0A01244360510A012F415B5D0A012F11
:101100004852630A012948555D0A012848565B0A7E
:1011100000234B55570A002A4A535D0A002C4754B6
:101120005E03001F4B4C5003001F5245510A001E26
:101130004E435751002A4B455451003547455452B0
:1011400000314A4556510029504158510023484921
:101150004F52002A494151080510444F563809168C
:10116000464163380A17444362380A1945406538D6
:101170000A19434363380A1A41456238091D3E463D
:101180006338081C3E476238081C3F456438091C18
:1011900041436538081C3F456338071846406538A9
:1011A0000717493D6638061A3F476138061843431A
:1011B0006338071940466125051A4243643805160D
:1011C00046416338051745436225051A4145633892
:1011D000041D40426638041C42416638041E3E46E7
:1011E0006438041847406438041B40456238041BC7
:1011F00041446438021B3F456338031A4145633854
:1012000002164642623802174246603801174540CE
:101210006438011C404266380115493E6338011CA0
:101220003E466338011D3C4962120018454362384E
:10123000001E40436638001943456112001A3F49B9
:101240005F38001E3A4B6038001B3F466208001AA8
:101250003C4F5B2500223A4454800028433C568092
:1012600000184042507E004040404019004033404A
:10127000437E0040404040800000000000800000AD
:1012800000000080000000000038051A4245623866
:101290000A1A424463380B19424463380A1844421C
:1012A00063380919424364380917434462380919FD
:1012B00042456238091B42426538091B42416612A9
:1012C000091B40456338091A40466238091E3B48ED
:1012D0006338091D41436538071E3D456538061AC8
:1012E00042436438071A43426438071A424264385A
:1012F000061A43416538061A4440663805184147C6
:1013000060380417434462380518444263380418AF
:10131000444363380317483E653804194540650067
:101320000A164242620A1015443E640A0F144340F2
:10133000620A0D154241620A0C1B3B44630A0C16FB
:101340004140630A0D164241620A0A17413F650A8D
:101350000A16423E650A0A1A3E40660A0A17433DCB
:10136000650A0A174040640A0813473C640A0714D8
:10137000453E630A081A3C44630A0815443F630A61
:101380000714453D640A0615443D640A0615433FAB
:10139000630A0617433D650A05184040640A0513B1
:1013A000463D640A04174140640A04193D43630A38
:1013B00003193C456200060C45415D3B0D0F384A60
:1013C0005A3B0F183048603B090F38495B3B0E16FB
:1013D000334A5D3B0911364A5B3B0C17314B5D3B91
:1013E0000B1438455F3B091336495C3B0B123748F9
:1013F0005C3B0910374C593B0A15324C5C3B0811D9
:10140000374A5B0E090D41445C3B0915324C5B3B8E
:10141000071634475F0E07143151583B0714344AFE
:101420005C0E07103D455C19060C3B4F543B051202
:1014300039465D0E0611374B5A0E060A3E4C553B97
:1014400003153051593B0515354A5C0E061B3146D4
:10145000613B06114144590E04133B445D0E0309E0
:101460003F4E520E04113E445B0E041833495D0E8C
:1014700005143D425D0E0113344E590E030C4B3ED4
:101480005A0E03163D47590302104448555D032088
:101490003F435A5D020F4C3E5803020A4D494E5DD0
:1014A00001154245555E01085044500303273D464F
:1014B0005A5E01274448575E01224C49535E002E74
:1014C000474A575E01254948565E012D4847585DF9
:1014D000012A4945585E001D4D44545D000B50479C
:1014E0004B5E00224B4D51030A253F654F0A1126E2
:1014F000425F540A0E2A435D580A0D2948585B0A78
:101500000F28445C570A0D26435E550A0C2641629B
:10151000524E0A294060560A0B2C44595C0A0A288C
:10152000425F554E06284061540A0829425E570A18
:10153000082C445A5D4E062D415D5B4E0828425FE3
:10154000560A06243E664D0A06284162530A062BB7
:10155000455A5B0A062B425C5A0A05234460514EE9
:101560000527435E564E0428435E560A052C445A0E
:101570005C0A0325445F530A0329445C590A032487
:101580004262514E0326475A580A032E435A5D0AB7
:10159000032C445A5C0A022440644F0A022143632C
:1015A0004D0A022B435C5A0A012946595A0A012A5C
:1015B000455A590A012D425A5D0A011E485D4F4E97
:1015C000012B47575D0A01254D525C0A001E495DFB
:1015D0004F4E001E4D55530A001C52515503002317
:1015E0004D54565E0025494E565E00284C485A031D
:1015F00000284153535E002A4547535E000F47536E
:10160000425E00304A465B5E00104C543E5E001F56
:10161000454C4E000203524F4A3808184345613882
:10162000091942446238091944426438081546438E
:101630006138091843446238091A42446338091A68
:1016400043426438081A42436438091B4440662503
:10165000081A473D6838081C40446438071B404559
:101660006412071843446238071943436338061766
:1016700045416438051A3E486138051845416438CB
:10168000051943436338061944426338041D3E4438
:101690006538041A41446338041E3A4B6138041D0E
:1016A0003E466438041B3E486138041E3F4366389A
:1016B00003184541643803184640643802144C3B13
:1016C0006638021745426338011944416438011BEA
:1016D0003D4861120118444163380119434264389E
:1016E0000117493D6512011A42456238001944420A
:1016F0006438001D40426738001D3D486238001FB5
:101700003C466438001E3D49613800194444622556
:1017100000204141543800233D3B5738001F4238D8
:10172000530C00204440407E0026462646800000A0
:101730000000008000000000008000000000008029
:101740000000000000080421354F6138081F3B47A6
:1017500064380A1B414265250A19473F66380A1A50
:10176000434165380A18444264380A1844426438D0
:10177000081A41436538091942426438081743463C
:1017800060380916483E65380918473E6638091B17
:1017900043416638071A43426438071A42446338A3
:1017A000081C40456438071D3F456438061B42430A
:1017B0006538061945416525051745446138051703
:1017C00045416338051942436425041A414464388D
:1017D000041742466038041841466109071146441F
:1017E0005D0A0E154141620A0D183E42630A0F1B45
:1017F0003B44640A0C15443F640A0C13473D630ADA
:101800000C15443D640A0C173F42620A0B18404114
:10181000640A0B17433E650A0A154240630A09171A
:101820004040630A0918403F650A091A3D42650AAB
:101830000916433E640A0713443F620A0715443EF3
:10184000640A0616433E640A07183F41640A0616F6
:101850004241630A05144340620A0516423E650A86
:101860000518413E650A041A3E41650A0414453EC6
:10187000630A0414434062800000000000611846BF
:1018800000030000035800032800041000014D0766
:10189000014D08014D05014E04014C03014D0501A8
:1018A0004D06014D02014D04014D02014D02014D55
:1018B00002014D03014D03014D02014D04014D0292
:1018C000004D03004E03014E03011C0A03605A023F
:1018D000155903165702153A02144002163701151E
:1018E0002C01152401162401152302142002161AB6
:1018F00001161201141302161B01160E01140B011E
:10190000170E00160E01140D02170F011609015FC4
:101910000902170A0115060013050116080015072C
:101920000013050215070116040111050217050130
:101930001705001501011306016B0B010E050111BE
:1019400002011501013E01013E01013E01011500A8
:10195000003E00013E01011500013E00011500019D
:101960003E00013E00011500011500011206012C88
:101970001D014E1D014B16014C15014D0F014E0E60
:10198000014F0F014D0C014B0B004C0A014E0A0197
:101990004C0A014E07014D0A014C06014D09014D4B
:1019A00005014C08014D05004D05014B0901195277
:1019B00002184F02173F04185A0217480818470226
:1019C000182B04173303183703172804183102178C
:1019D0001E04182501181903181902181E031713DD
:1019E00003181C01170E02191301180D0218140117
:1019F000181002180A02181201170802190D01170F
:101A00000702180B01180901180701180C01180822
:101A100002190A0117050219080118070118050221
:101A200018090118060319070118040119050118FE
:101A300005011904021809021903014604011802DC
:101A4000011903011803024604014604014302017F
:101A50004503011702014603011802021902011889
:101A600002011801011902011601014502011701C5
:101A7000014501011802021A01014501014301015A
:101A80001901001800024501014201014501011838
:101A9000010117000146010117000246010115016D
:101AA000024701014601014B03014B04010C0302F3
:101AB0004B04015201014A02014902014C01014A51
:101AC00001013001014A01005300014A01014A02AB
:101AD000021B00014A01013000014801005C0002C4
:101AE0001900011700021700014300011800011737
:101AF00000024300024300021700010E02014C12D3
:101B0000014C16014D0F014D0B014D0A014D0C0208
:101B10004D0F014D08014D07014E07014D05004DC8
:101B200004014D06014E07014D03004D04014D0413
:101B3000014D0501148D0215DA0315C70215A10226
:101B4000159902156C0215780215620215590115D6
:101B50004801153D02155202153601153A02152AA3
:101B600001162E01142902152301152601151C0248
:101B7000152301161F01141602151C021615011556
:101B80001502151701161401151402151001161768
:101B90000115100214190215150115110114100276
:101BA000150E01150E02150D02150C01150B011471
:101BB0000902160B0115080115090215080115097E
:101BC00002140C021208011507013E050115050259
:101BD0001504023E02013E02011502023E030215F7
:101BE00006044C1D012B19012A0F014E0D01500C4A
:101BF00001110C014B0B014C0A025110024D08015E
:101C00004C04014D07014D04014D05014D04014DEA
:101C10000501201702187001174E02175302177B97
:101C200005175A03176103174103185202173F059E
:101C3000184702173303183E02183B0217280218F0
:101C40002F01172603182E0117210218220118232D
:101C500002172002182301171A02181D0117140277
:101C6000181601171D021815021821011710021865
:101C70001401171002181201171702181001181278
:101C800001180B01180F01170C02181101170C0194
:101C9000180B01180C01170A01180D01170802444E
:101CA0000C01180801180901190A0117080118097F
:101CB0000141060218070142070143070119070104
:101CC0001806011907011705011806011706021960
:101CD0000501180602180401440401180302450511
:101CE0000117020244040142020118030118030112
:101CF00018020144030142020144040117020117C2
:101D000002011702011702014502004402014503C6
:101D100001180102450201190201180101440101E3
:101D20004401014502015701021903011701014451
:101D300002014601001701021902015801021802AE
:101D40000117010119020146040146050243010180
:101D50004301014300014300024200021700024216
:101D6000000243000143000143000144010229191C
:101D7000014C25014D1E014C15014D0F014D0D016A
:101D80004C0D014C0B014C0F014F0B014B0B004E46
:101D900009014C07004C07014D06014D07014C0697
:101DA000004D05004D0501156402157E01156A02FE
:101DB000156A0216670115420215500216430115F5
:101DC0003B02153902163101152C01152702163177
:101DD00001161F01142B01142401152401151B01E8
:101DE000151901113E01142901131E01141F0115BB
:101DF0001E01143002132202151B011414011317C3
:101E000001490C014D05014D05014D04014D030132
:101E10004C07011A5A02175A07175403174F07178E
:101E20005904174E05172D04173603172D091736B9
:101E300003172005182002442302171A0217130360
:101E40001712031710031718024C34012D2F014AE3
:101E500029012B22024C24011119011418014919DE
:101E6000014912014D11014E0C014F0C014D0900A9
:101E70004E09004D09004C0A0126990225870126CA
:101E80006C01266401256E01276201253B00253780
:101E900000273800263B00274E0125240026280174
:101EA00025200026130026110025110029200029D5
:101EB0003201271F01261401261100270D00240AD4
:101EC00001250B01260C02250C0023060026070025
:101ED0005005004C03014E05014D0200212D032346
:101EE0009E01226C01226701225C012257012357C7
:101EF00001227201225A0122490122680224590159
:101F000022350122470122360159280123390125B2
:101F10004301262701233201243101251F012426F4
:101F200001241C01231B002417012508006E050154
:101F30004E06014E03014B03014E04014C02014BBE
:101F40000401154902156F03155902155E02154566
:101F500002153401163401152B02153702162E0115
:101F6000152301142501671F0115240115180115FA
:101F70001701141A010F3401114101132301121822
:101F80000112170114160112110114140114160183
:101F9000130F015210024D06014E06014D04014D72
:101FA00003004D0301194802435C03174D03175A00
:101FB00004174D031746036E3303173203172F031D
:101FC000173602422F031732034228031724021741
:101FD0002103172B03172C022C42014842016E27C4
:101FE000021630012E2D034629012E21012E160244
:101FF0004D0F014D0B014D07014E07014C08014DDE
:1020000007014E0B0226B802269F01269001265298
:1020100000254F00264A01254600264600253E01A0
:10202000274F0126420126210026180026150026EA
:102030001601261B01251B00283D012B4101291CEF
:1020400001282F012A120127120028140128140147
:10205000210B002A0902250C014E05014B04014EFB
:1020600005004D0401224A02239A01235E01227ECB
:1020700002227102224F01235401224801223F0112
:10208000223B012243012242012335012240015912
:102090002901233301245001253701252401242B54
:1020A00001251E01232701241D01231A01260F01EA
:1020B0002707002B03001E03014E03014C03014EB2
:1020C00002004B0501158F0215BE033DB40415B384
:1020D00003159103158404156702155E021552035A
:1020E000154002154802153402153A01152D011547
:1020F0003202153502123901134201133F02134710
:102100000313470214290114280114280114300173
:102110001424024E0D014C09014D06014D0A014DDA
:102120000701182104177403437002166004175C3A
:1021300002174C05175103175003173A034567025E
:10214000164603172F03172703172C03172003170F
:102150001F03421D031725024D48016F3E01123235
:10216000021435022D2A01492B012D2803112702C3
:102170004D11014E0B014C0B014E0D014D08014D4F
:102180000A01279A0226BD015F6D01266E012661B4
:1021900001256201266201264401265301275C01C4
:1021A000252A00262700252101262A01262101268D
:1021B00016012621012A3F01272100292501272177
:1021C00001271801271501271501291301240C00E7
:1021D0002908000D04015004004C02014D030122A6
:1021E0006102229901228001226001227A02226E7C
:1021F00001235101225601225601233D01244701AA
:10220000233701222D01222F01222E01253B0126F9
:102210004401234A01552E01232902564502222D4D
:1022200002221E01232D0121FF1F2BFF112D980ECD
:102230002C2C052D18064E0C044C0F062D97022D44
:1022400093012D6C022D48012D3F022D35022C2CBF
:10225000022C2A022C26022D28012D21012D1B02E1
:102260002C1E022C1A022C2F012C46012C28012C8A
:102270001B022D26022D12012B14022A1001290DFA
:1022800001260F015D21012915012307004F0600DA
:102290004C03014D05014D030009310426F60226C9
:1022A0009301268B01256A01267B01256C01275DA0
:1022B00001263C002640012650012655015F3201CF
:1022C000254F01295401296601252D0028320127B7
:1022D00048012734012821002943012B3301271B02
:1022E000012A2601281601260B002907014E0C01A0
:1022F0004C0A014D05014D0401079F0222D702221D
:10230000B60258A10222A502228C01237F0124706B
:1023100001236C01236F01235D01246602237102F6
:10232000224801224302225C02255A01264501244B
:102330003F01252F01252E012432012428012429C3
:1023400001242501221E014F0B004D05004B030106
:102350004E0501480B0326B50225A502269B012543
:102360005A01265701254D00265101255C012541C2
:1023700001265201253800273B0025230026200195
:102380005F2B01284101292E002A3501273101291F
:102390001401282901271B01291D012717012609DE
:1023A000012807014F09014C05014C05014D0401AD
:1023B000146302157302157802155A021557011598
:1023C0005301154B02155902154E01153801654789
:1023D00001142E02153E02152901152B011433019B
:1023E000153A01133502142B011527011427021584
:1023F0003102153001151A01130F014D04014D036F
:10240000014C03014A0601185D02178C041792075C
:10241000177504176F07176A0417580517510446F4
:102420006103434904423C04172B03172803172A6E
:10243000041742022C53016F4F01122D022D390255
:102440004631012D2202182A01161F0217220116F9
:102450002302171D034927012C10014C09014D08C7
:102460000109640222C60123A201228A01228A01F3
:1024700022840223990123710123730124A90224D8
:102480007501235001235E01235101244701267D5C
:1024900001265901234801233E01224C01553401F4
:1024A000225202565202212302510C004F07004CC7
:1024B00005004E05014D05014C070126AE02259889
:1024C00001257C012583012676012572012656010E
:1024D000253600263E00253C01264E01263E0126DB
:1024E0003301254801274C01282D002629012733D7
:1024F00000281E01252801261C01261501230F0096
:102500002C0A012106015005014C05014E06014926
:102510001202229602229D01226901236A0123628E
:102520000123560122560123510123500122480163
:10253000225E01223A01223B01247602265F012419
:102540005301244F02244401234201233901213441
:1025500001222502223101241502500C014D0901EE
:102560004B08014D0A014C210226C20225A8012672
:102570008401255D01267301267B01255F012790DB
:1025800001243F00264901253C01264E0126560123
:102590002738012451012837012630012520012741
:1025A0002A01282B01292602230C012607014B04AE
:1025B000014E03004D03014D04010D2B042CE102DB
:1025C0002DA0012D77022D55022C57012C59022CDC
:1025D00046022C39022C27022D1D022D19022D1620
:1025E000022D19020E25012D20012C1A022C1C028D
:1025F0002C14012B0F012B08012A1401292A002A6F
:102600002000281400250C002105011605010A747C
:102610000225B102268E01267C01266F012552007B
:10262000265E01254601265601264D012634012647
:102630004101262D00251E012856012928012628A2
:1026400000282D012722012520012816012525011A
:10265000260D002407005106007105014E07014BAD
:102660000B010A330223B20223B001237F0123822C
:1026700001227501226D01227301228401236B0165
:10268000235C01237902235A012347012575022483
:102690005501234701224A01213E01223201223005
:1026A00001222F012707011E07015004004C0501DC
:1026B0000B280225A302257D01268501265A012526
:1026C0004D00275D01253500265C01254801264A7D
:1026D000012649012623002530002A38012852010D
:1026E000292401282F01282F012A3101241A002929
:1026F0001700261300250E01281602250D002606B8
:10270000014B05014A2D0214AF0314CD0314BB0382
:1027100015E304159A0315A002157903157B0367C9
:102720008502155402155002154902145902116907
:1027300002145202154301143202153D01153001F5
:102740001529021528014D06014E04014D04014CC6
:1027500004014D0501183402178D0417A7031774DF
:1027600004176603176303175D0417510217430329
:10277000454F024440021734031732031731031444
:1027800043021438012D3E014533012D280217382C
:1027900001162902172901172702173303182D01E3
:1027A0002C1B02181A010A830222BC0223C2012236
:1027B0009101229001239602228B01237E0222980E
:1027C00002227F02226001237A01245E01234A0152
:1027D000225101236401225701565D01224E01223C
:1027E0003F01224201234A02234001222101230EFC
:1027F000004E0A014C0C014E0901258D0426FF02F2
:10280000258601269D01267501265A01254E0026A2
:102810005201266101255E01275201244C01272E19
:1028200000262900252C01296101273B01262901C9
:10283000262101261F00260F01241D01250F002837
:10284000080021050025020118170322A10223AD6B
:1028500002228A01226C02228E02228301226A0154
:10286000227601237A0222530122550123480123B3
:102870004101554E01236E02554501224801234F67
:1028800002234001242A01233301242801242801A2
:10289000241800500600490301266F0225B10225C5
:1028A0009B01256101265901254C01265E01256504
:1028B00001264D01255101263E00252B0025420110
:1028C000274401284E01254201252900292A0126F5
:1028D00028012736022918022716014B11024D0A3A
:1028E000014C23014C2B014C49024C72032DE50491
:1028F0002DCD032DC0042D7F042D85042B7E032CAC
:1029000064022C5E022D43022D2C022D26022C2F58
:10291000031345053162092D54051B4C051B420468
:10292000283A03283003272902293F012B360129A1
:102930003C01252C002316014B180309800325D8E0
:1029400002259D0126740125770126860125670150
:10295000268E01265A01263B002632002633012608
:102960005701275701284501292F00242200292A31
:1029700001262B01261E01272601261B00270A01FE
:102980002106015103014B04014D1F0222D10222F5
:10299000A701229A01228201227701236F0122607E
:1029A00001226301237502235B01225401226E027E
:1029B000226D01546801237402235801234201232C
:1029C0003C01223901232C01223501223001231937
:1029D00001210D01510A014B0A02234A0325CA02B3
:1029E000257A01267201255700265401256A012601
:1029F0005C01266D01255901263900263400252F5A
:102A000000263501273C01273D01273B01273A02DB
:102A1000272B00292901261800261900291701252E
:102A20001C0125100127090014710214BC0315D5DF
:102A30000315ED0415BD0315A402158503159403B4
:102A4000156802146502145D02154F02155902152E
:102A50003B02675701135102144702155202143DFD
:102A600001143201143001152E011220014F07010B
:102A70004C06014D05004D04011865021787036DD2
:102A80008004177903176304176504175404174665
:102A900004174303424A026D3A036D38036D2A035B
:102AA0001241022D5D024947022D360317470215D8
:102AB0002502172A011724021725021821011814CC
:102AC000021817011B0B02216902229A02237E01C0
:102AD000226D01236F02226601226601225C012120
:102AE000690209770222560222420222500222443F
:102AF00002257501266B01095302244601233C017E
:102B0000233801223401082C02223901211E024FF0
:102B10000D014D0C014C100126D30226E50226AB17
:102B200001268F01266A0126650125560127960197
:102B3000266C012650012553012630002628002648
:102B400028012741012636012731012728012528A0
:102B500001251900271601251001251000280B0159
:102B60002405015202004A010109600222C0022329
:102B7000BF0222A102228F0222800122850122743B
:102B800001226C01237401225B0122620122700286
:102B9000224A02238402227D02225F02224E012267
:102BA0005401223F01223701223401223201390728
:102BB000024B0D014E0A01151D0126B301258B01A3
:102BC000267A01255901266001266E01254B012632
:102BD0006101255000275E01253100263101263C88
:102BE00001275301285101293F01242300272001F7
:102BF000251D002617012833022623012816012748
:102C00001101250B014A0C024D0C024D0501123A2F
:102C1000032DB1022D9C022C91022E59022C4C0244
:102C20002C4E022B4C012B4C012C2C022D1B012D68
:102C300016022D2C012C2B012C26012C16012B13F6
:102C4000012C11012C0F012B0F012A350228340110
:102C50002519002406001A0401131101267C0126FF
:102C600058012651015D6601266301265C01253B62
:102C700000262E002539002636002637012637018A
:102C8000272F01274B01292B00241D00271901267E
:102C90002101251800261B01251200250B012214F5
:102CA000015108004B05014E090109900223AB01B7
:102CB00023A90222AA0222AA02228702227E02233A
:102CC0009702247301236302237C02235C012358AF
:102CD00002248E0125640123520158470121360147
:102CE000213C01223601224001232B01241401281A
:102CF00005015009014B060125660226B902269EF0
:102D000001258801265500255900264201266C011F
:102D1000255701253B01264701263D012431012885
:102D20008001274801274501274E01283001252B26
:102D300001262901661E01211701291001210F0119
:102D4000500B013E19033DC70315C50415DD0415DD
:102D5000AB0215B403157D021577021461021557F5
:102D6000021555011542021552021646021446027A
:102D700015330215370115350115230115320115DB
:102D80002101152802162901152001142002151D04
:102D900001151701151902161501151A01140F0254
:102DA000151C01151001141D02160F011515011532
:102DB0001102151301161201151302131B02151629
:102DC00002150E02151002150E01691C01111601E3
:102DD000131A01141501131101140F011410021418
:102DE0001502141002150D01150C01150B01150F1C
:102DF00001150A01150C021510014E02014E0200C8
:102E00004D02014D03014D01011C150217DE04178F
:102E1000D90317B404179C04179E04179005177C58
:102E200003176F041759021754031750031762034F
:102E3000173E03174B02173502173C01172D0217D7
:102E40003902172902172502172A02172E02182DF8
:102E500001172502172501171F02172102172B0240
:102E6000171C02172002171902431B01171602181C
:102E70001E01171302171601171402171602171B4B
:102E8000026E1902451C01171301171402171502CF
:102E9000171002170D02170A02170802420802173C
:102EA0000A031709024208024207024207024207C8
:102EB000021708024206021705021705024206021F
:102EC00017050242050242050217040217040242D6
:102ED0000502170502170402170402170402420430
:102EE000021704021704021703021705022C13032A
:102EF0004D3D012C25014A20012B16014A16014A9D
:102F000015012B1202491E012B0E01491201160F49
:102F100001180F01491001480D01190F01170B018C
:102F20001710015012024A0C014D09014D09014DC3
:102F300007004E07004C07014D0C014C07014E09DC
:102F4000014D06004C05004D07004C06014D0901DE
:102F50004C06014E09014D04004D04004D05004D85
:102F600003014D06014C03004D05004C03004C04C9
:102F7000004C04004C03004D04014C03014D0400BF
:102F80004D0B011585013C6701157B011574021479
:102F90007102155C01154301144802153E01153AF2
:102FA00001152A01152B01162701152401153001E1
:102FB000162701151D01151C01161E01151F0114F0
:102FC0001601161701151401141B02151A0115110B
:102FD00001140E01150F01151601150E0115120130
:102FE000151401141001141201150E01150C011510
:102FF0000A01150B021509011507013E0601150509
:10300000011507021505011505011505013E04020C
:103010001505023E03011503013E03011503023E9F
:1030200003013E02021503023E02021503023E02A4
:10303000021502021505022A2A010E39014C32013D
:103040004D23024E26014E16014F18014A16014C1F
:1030500014014F0D014F0F014C0D014F0B024C118C
:10306000014C0E014F0D014E09014B0C014F0800A0
:103070004C07004C0A005007014E0E014B0801504E
:103080000C011C06004C08004F05014F07014A07C0
:10309000014E07014E09014C05004D06004C05008C
:1030A0004C05014C07014C07014D06014C04004D35
:1030B00003004C04004C04014D06014C060119911B
:1030C0000217FF0317E20317A402179703179503CC
:1030D000179904177603177603176002175C021717
:1030E0005303176E02174803174802173802173B9D
:1030F00002173502173602172A0117250217280270
:10310000172B02182A02172A02172101171E02176D
:103110002203432402171F03182202171902171A49
:1031200001171B02171902171C02171702171801A3
:103130001715021718021714021713014211014242
:103140001102171302171303171402420D02170E70
:1031500001170C01180C02181102170D02430D0182
:10316000170A02180C01170A02180C01180A011894
:103170000801180901170803170902170803440971
:10318000011904014400011700024A000150000126
:103190004600014E0001480001470001140006806E
:1031A0000000080B000202020000090400000102F6
:1031B000020000052400100105240101010424027D
:1031C00006052406000107058103100040090401DB
:1031D00000020A0000000705020240000007058304
:1031E000024000000403090412010002EF02014042
:1031F0004123368000010102030141726475696E4A
:103200006F204C4C430041726475626F79007525E4
:1032100011241FBECFEFDAE0DEBFCDBF12E0A0E089
:10322000B1E0EAE2F1E702C005900D92A439B107DE
:10323000D9F727E0A4E9B2E001C01D92AA35B20790
:10324000E1F719E1C8E0D9E104C02197FE010E942D
:103250008638C730D107C9F70E94CA250C94933825
:103260000C94000040FD4FEF582F87FF02C0680FFD
:1032700050E090E8951B691708F4962F28E331E099
:1032800021FD34E020FD330F22FD3295319580E49D
:10329000A1E081FDA4E080FDAA0F82FDA295A19589
:1032A000732F70956A2F60958FE326952695269546
:1032B000869586958695E5E0F3E0B0E82B9FE00DD6
:1032C000F11D1124E50FF11D821B711101C08F5FEB
:1032D000611101C08F5F50E8591B232F2423362F23
:1032E0003423882319F4A72B32231CC0772349F0F9
:1032F000B92F00800722022A0192BA95D1F7E50F73
:10330000F11D8A9569F0B92FB0FF02C0B39501C0D5
:1033100041934193B250E1F7E50FF11D8A9599F77A
:10332000662331F000800A22032A01929A95D1F790
:103330000895809103028F3F31F081E08093040370
:1033400080E28093030308952F923F924F925F9201
:103350006F927F928F929F92AF92BF92CF92DF92A5
:10336000EF92FF920F931F93CF93DF9300D000D083
:10337000CDB7DEB76A01E62E43E0442EA5E0B3E008
:10338000F22FBB24682E969596959695E1E001FD67
:10339000E4E000FDEE0F02FDE2955FEF5E9F10019D
:1033A00020943094159507951595079515950795D3
:1033B000402F4F3F4CF44095941B40FC440F489FD6
:1033C000C00CD11CEB1C4FEF37FF0BC0620E40FE50
:1033D00002C0220F331FC21AD30AEB0837FDE39451
:1033E000FF2750E845030F0EA00DB11D5F1B6516AA
:1033F00008F0652E57E0541B591714F4952FB39419
:1034000050E85619682F772741FC02C06619770BE0
:1034100040FE02C0660F771F1124A42EFE2E0090DE
:103420000103D00C00900203E01C19C0729843E025
:103430004EBDC60ED71EE11C7724861509F0739485
:103440000CD0EEBC07D0DEBC05D0CEBC03D01EBC79
:1034500003D00895C8950000C895C8950895C61A68
:10346000D70AE108E3DFA1141CF0992371F564C0C9
:10347000A058BF4F962C40FC0CC02EB51EBC2F9DF3
:103480008C90832081288D92C89500C09A94A9F7CA
:1034900011C02EB51EBC2F9D9001DEDF2EB41EBCC8
:1034A0002F9C10018C9030948320832A8D92C89594
:1034B0009A9479F71124A619B1099A9509F45CC078
:1034C000772019F00DB4729AB1DFFD01E058FF4F7B
:1034D000962C40FC0EC02EB51EBC2F9D8C908220D9
:1034E00080288D9280808320812881929A9499F7F8
:1034F00016C02EB51EBC2F9D90018C903080AEDF83
:1035000000C02EB41EBC2F9C00948020822A8D9275
:1035100010943120332A319200009A9451F71124EB
:10352000A50FB11D9A9561F6BB2031F1772021F0EE
:103530000DB4729A7BDFC89540FC0CC02EB51EBC42
:103540002F9D8C90822080288D92C89500C06A940F
:10355000A9F712C02EB51EBC2F9D90017DDF9EB530
:103560001EBC9F9D902D8C9090958922822A8D92D1
:10357000C8956A9479F7C8951124729A0DB40F9082
:103580000F900F900F90DF91CF911F910F91FF90AF
:10359000EF90DF90CF90BF90AF909F908F907F90F3
:1035A0006F905F904F903F902F9008950F931F93CF
:1035B000CF93DF93DC018B01CA01B901209155073C
:1035C00021110EC021E02093550732E43093C00052
:1035D0002093C1002FEF2093D1002FE72093CF003D
:1035E00010920403B0930003A093FF02FD013196F3
:1035F000C491FD01D4912C2F22952F702093FE02AF
:103600001092FD021092FC021092030221E020931E
:10361000020220E030E040E353E40E94C1370E9400
:103620003C376093FB020115110599F46C2F70E093
:10363000762F662766277F706D2B7093FA02609352
:10364000F90284E080937200DF91CF911F910F9176
:103650000895C801880F991F6DE270E00E945E38DE
:10366000ECCF20E030E040E85FE370E060E00C94F5
:10367000D61AE5E0F3E0A0E0B8E000800EBC8111CE
:10368000012C1197A0FDFDCF0192B9F70DB408955B
:10369000FC018091F802882311F13FB7F89482E091
:1036A0008093E9002091F200822F90E0181619060D
:1036B00014F481E090E0882339F0289844E64093A0
:1036C000F7024091F1004083222339F02091F2006B
:1036D000211103C02BE62093E8003FBF08958FEF30
:1036E0009FEF08952FB7F89483E08093E9009091BD
:1036F000E800892F807295FF04C09091F20080E469
:10370000891B2FBF08958091EF0281110DC082E0C7
:103710008093EB0284E08093EC021092EE02109210
:10372000ED0281E08093EF028BEE92E00895CF935B
:10373000DF931F92CDB7DEB76983DC01ED91FC9179
:103740000280F381E02D41E050E0BE016F5F7F4FCA
:1037500009950F90DF91CF91089583E08093E90060
:103760008091F200882319F08AE38093E80008959D
:103770000E94721B90E00895CF93DF931F92CDB704
:10378000DEB7FC018485958597FD08C02FEF3FEFDC
:10379000358724870F90DF91CF910895CE01019650
:1037A0000E94481B019719F4898190E0F3CF8FEFB5
:1037B0009FEFF0CF0F931F93CF93DF931F92CDB75F
:1037C000DEB78C01FC018485958597FF0BC0CE0187
:1037D00001960E94481B019771F4898190E0F801DD
:1037E00095878487F801848595850F90DF91CF9127
:1037F0001F910F9108958FEF9FEFF1CFFC0184850A
:10380000958597FD0BC09FB7F89482E08093E900FF
:103810008091F2009FBF90E0019608959FB7F894C1
:1038200082E08093E9008091F2009FBF90E00895CC
:103830004091E5025091E6022091E3023091E402CA
:1038400042175307B4F49091E8009570E1F390911A
:10385000E80092FD19C08093F1008091E5029091FB
:10386000E60201968F739927892B19F48EEF8093C6
:10387000E8008091E5029091E60201969093E602BD
:103880008093E50281E0089580E00895DF92EF9251
:10389000FF920F931F93CF93DF93D82E8A01EB01F2
:1038A0007B01E40EF51ECE15DF0559F0D7FE12C0E0
:1038B000FE0184910E94181C21968111F4CF0FEF14
:1038C0001FEFC801DF91CF911F910F91FF90EF90F3
:1038D000DF9008958881EECF0F931F93CF93DF93EE
:1038E0001F92CDB7DEB782E0898342E450E062EAFE
:1038F00071E380E80E94461C0E94831BDC01129643
:103900000D911C910115110589F0D801ED91FC91E3
:103910000280F381E02DBE016F5F7F4FC8010995E2
:1039200097FD04C0F80100851185ECCF89810F90C7
:10393000DF91CF911F910F910895615030F0209148
:10394000F100FC0120830196F8CF289884E680934B
:10395000F7020895811105C081E0611106C080E081
:1039600004C0813019F46230D0F3089581E06330EF
:10397000E0F7F5CFAF92BF92CF92DF92EF92FF9236
:103980000F931F93CF93DF936C017B018B01040F87
:10399000151FEB015E01AE18BF08C017D10759F023
:1039A0006991D601ED91FC910190F081E02DC60165
:1039B0000995892B79F7C501DF91CF911F910F915F
:1039C000FF90EF90DF90CF90BF90AF9008958FB1B0
:1039D0008095807F669B88601C9B846008958EBD67
:1039E00000000DB407FEFDCF089590E1282F81E07F
:1039F00061FD84E060FD880F62FD8295687F969F7F
:103A0000D0011124A20FAB5FBC4F0C90082A40FFDD
:103A100008260C9208959091CD02982329F0909158
:103A2000CE02982381E009F080E008959091CD02C4
:103A3000982329F49091CE02982381E009F480E044
:103A400008950DB407FEFDCF8EB5729A08950DB49A
:103A500007FEFDCF8EB51EBC089572980E94451DCD
:103A6000862F0E94451D852F0E94451D842F0C9492
:103A7000451D462F50910103570F60910203681FA7
:103A800083E00E942D1D1EBC08958EBD00008EB5E2
:103A90000DB407FEFCCF0895FC010E94E61D31978E
:103AA00028F068517C4F8F4F9F4FF9CFAB01FC013D
:103AB0000E94E61D641775078E079F07C8F30895D7
:103AC0008F929F92AF92BF92CF92DF92EF92FF922E
:103AD0000F931F93CF93DF936C017B018A01809139
:103AE0000102882309F45AC08091F802882309F45E
:103AF00055C08091EA0280FF05C08091E00082609D
:103B00008093E000E801B12C8AEFA82E93E0892E83
:103B10002AE3922E209711F4BB20C9F10E94721B58
:103B2000811108C0AA94AA20C9F181E090E00E9406
:103B30004C1DF0CF8C171D0611F00CF08C2F9FB789
:103B4000F8948092E9002091E80025FD02C09FBF13
:103B5000E1CF282F30E0C21BD30BF701815020F0BA
:103B600041914093F100FACFE20EF31EBB2021F009
:103B70009092E800B12CEBCF8091E80085FDE7CF73
:103B80009092E800BB24B394209709F3F3CF5D989B
:103B900084E68093E902101611063CF081E090E083
:103BA000F6019383828310E000E0C801DF91CF919A
:103BB0001F910F91FF90EF90DF90CF90BF90AF904B
:103BC0009F908F90089590E00C944C1DA5ECB2E06E
:103BD0002FB7F8947D918D919C9166B52FBFA89BCE
:103BE00005C06F3F18F47F5F8F4F9F4F22E0660F35
:103BF000771F881F991F2A95D1F7089530E73CBD9C
:103C0000DC0130E8439FC0011124A80FB91F5E9169
:103C1000352F6111372F3C93C89500C052235EBDEC
:103C20000197A9F704D003D030E50DB43CBD089549
:103C30009F92AF92BF92CF92DF92EF92FF920F933B
:103C40001F93CF93DF93F82E192F6B01A42EE22E32
:103C5000602F8091E2020E94AA1C982ECF2DD12FB6
:103C6000AC0EBD2EB11CEC0CFD2CF11CCA15DB05F5
:103C7000E4F48601D7FE02C010E000E0C70121E4B1
:103C8000E216F10414F080E490E0081719075CF4E0
:103C9000C038D10528F4492DB801CE010E94F51C89
:103CA0000F5F1F4FEBCF2196E1CFDF91CF911F9197
:103CB0000F91FF90EF90DF90CF90BF90AF909F90CB
:103CC00008956F927F928F929F92AF92BF92CF9200
:103CD000DF92EF92FF920F931F93CF93DF936D309C
:103CE00089F0C090DB02D090DC026A30E1F41092DF
:103CF000DE021092DD0288E0C80ED11CD092DC02F8
:103D0000C092DB0281E090E0DF91CF911F910F9193
:103D1000FF90EF90DF90CF90BF90AF909F908F90EB
:103D20007F906F900895C62FE090DD02F090DE0244
:103D3000D091E202609109018D2F0E94AA1C082FE8
:103D400060E08D2F0E94AA1C682E08130EC028E088
:103D500046E0B601C7010E94181E86E0E80EF11C7D
:103D6000F092DE02E092DD02CDCFE5E0CE9FE001F1
:103D70001124C455DF4F570110E0712C153029F084
:103D8000CE010196FE017490EC01912C812C462D00
:103D900070FC402FF0E8AF16B10448F4B601680D8E
:103DA000791D6034710518F4C5010E94F51C7694E4
:103DB0008FEF881A980AE8E08E16910441F71F5F8A
:103DC000FFEFAF1ABF0A1630C1F6C7CFFC01362F7E
:103DD00082859385BC016F5F7F4F738762876185A2
:103DE00070E00E947238BC01660F771F680F791F60
:103DF0008091E202860F972F911D892B99F480857F
:103E00009781891718F48F5F80870895158631117F
:103E1000108641119087222329F00E94991981E090
:103E20008093D40208958091D2029091D302181603
:103E300019062CF401979093D3028093D2028091BB
:103E4000D2029091D302892B39F480910B01811118
:103E500003C081E080930B010895AF92BF92CF928F
:103E6000DF92EF92FF920F931F93CF93DF93EC01BA
:103E70005B016901E42E842FB9010E94391D0E9463
:103E8000271DF82E0E94211DC038D1050CF03EC020
:103E900090E4A916B1040CF039C02F2D30E0A9012F
:103EA0004C0F5D1F141615060CF030C0E82FF0E023
:103EB000AF014A0D5B1D141615060CF027C0FE2F2E
:103EC000EE27EF29F32B92E0C90ED11CE11C93E001
:103ED00001151105A1F086958695869590FD880FB0
:103EE0008F9D9001219FD00CE11C309FD00CE11CD4
:103EF000319FE00C209FC00CD11C1124E11C8501D6
:103F00009E016E2DA601CF010E94A419DF91CF91D1
:103F10001F910F91FF90EF90DF90CF90BF90AF90E7
:103F200008951F93CF93DF93EC01162F5C98FE0149
:103F30008591EF010E94EF1C1150C9F75C9ADF9147
:103F4000CF911F910895089590E080E008958F9299
:103F50009F92AF92BF920F931F93CF93DF93CDB7F2
:103F6000DEB7A1970FB6F894DEBF0FBECDBF19A282
:103F7000423008F44AE08E010F5D1F4F842E912CD1
:103F8000B12CA12CA50194010E949736E62FB9010E
:103F9000CA01EA3044F5E05DD801EE938D01232B90
:103FA000242B252B79F790E080E0109769F0FD0134
:103FB00001900020E9F73197AF014A1B5B0BBD016F
:103FC00086E597E00E94BA1CA1960FB6F894DEBF72
:103FD0000FBECDBFDF91CF911F910F91BF90AF90DA
:103FE0009F908F900895E95CD7CFCF92DF92EF92A8
:103FF000FF92CF93DF9397FF1BC06B017C016DE2B3
:1040000086E597E00E94611EEC0166277727CB01C9
:104010006C197D098E099F094AE00E94A71F8C0F29
:104020009D1FDF91CF91FF90EF90DF90CF9008958B
:104030004AE0DF91CF91FF90EF90DF90CF900C940A
:10404000A71F0E94F33523E030E040E050E00E94DB
:1040500065366F5F7F4F8F4F9F4F6130710541F421
:1040600081E0809348021092AA0110929C01089569
:104070006230710531F41092480281E08093AA0108
:10408000F4CF6330710539F4109248021092AA01FE
:1040900081E080939C010895CF92DF92EF921F936D
:1040A000CF93DF9384E690E0A0E0B0E080937E01C0
:1040B00090937F01A0938001B093810111E0109350
:1040C000D8020E9421202CE332E0D90118961C92DC
:1040D000CEE9D1E0188660E971E0FB01108610920C
:1040E000D4021092D6021092E00210930A01E2E884
:1040F000F1E080E3C82E82E5D82EE12CC482D5827F
:10410000E6828CEC91E0DC0119964C91199741877D
:104110001086109259021092580244E050E05093D9
:10412000AD014093AC0140E550E04D935C938AE2D1
:1041300090E0F901938382839B838A83DB0113964A
:104140009C938E931297DF91CF911F91EF90DF9008
:10415000CF9008951F920F920FB60F9211248F9354
:104160009F938091E1009091E100937F9093E10013
:1041700083FF0FC01092E90091E09093EB00109242
:10418000EC0092E39093ED001092F80298E0909387
:10419000F00082FF22C093E09093E9009091F2003A
:1041A000992319F09AE39093E8009091E9029923FA
:1041B00041F09091E90291509093E902911101C070
:1041C0005D9A9091F702992341F09091F7029150F6
:1041D0009093F702911101C0289A84FF18C0809132
:1041E000E2008E7E81608093E2008091E1008F7E0C
:1041F0008093E1008091EA028E7E80618093EA02E2
:104200009F918F910F900FBE0F901F90189580FF78
:10421000F7CF8091E2008E7E80618093E2008091F2
:10422000E1008E7E8093E1008091EA028E7E8160C3
:10423000E5CF1F920F920FB60F921124CF92DF920B
:10424000EF92FF920F931F932F933F934F935F93A0
:104250006F937F938F939F93AF93BF93EF93FF934E
:10426000CF93DF93CDB7DEB76C97DEBFCDBF109293
:10427000E9008091E80083FF25C068E0CE01459603
:104280000E949D1C82EF8093E8008D8987FF39C0D2
:104290009091E80090FFFCCF982F907609F034C100
:1042A0009E894F89588D2F89F88C911131C08038A3
:1042B00061F58091E8028093F1001092F1008EEF99
:1042C0008093E8006C960FB6F894DEBF0FBECDBFAA
:1042D000DF91CF91FF91EF91BF91AF919F918F911E
:1042E0007F916F915F914F913F912F911F910F910E
:1042F000FF90EF90DF90CF900F900FBE0F901F9028
:1043000018959EEF9093E800C7CF1092F100D5CF9B
:10431000913059F48111D3CF4130510581F680910C
:10432000E8028D7F8093E802CACF933049F481116F
:10433000C6CF4130510519F68091E8028260F2CF74
:10434000953041F48091E80080FFFCCF20682093F5
:10435000E300B5CF963009F0A9C00B8D1C8D22E08B
:104360001092E9001092E6021092E502F2122EC0BD
:104370001092E4021092E3020E946C1C1F8299E0EA
:104380009983FA8291E09E8390EA98879AEF9987C1
:104390002091E5023091E602275F3F4F3C832B835B
:1043A0008D831092E9001092E6021092E5021093BC
:1043B000E4020093E30249E050E0BE016F5F7F4FEB
:1043C00080E00E94461C0E946C1C79CF1093E4028E
:1043D0000093E3020E94831BDC0112960D911C9155
:1043E0000115110509F451C1D801ED91FC9104802A
:1043F000F581E02DBE016B5E7F4FC80109950097E6
:1044000009F03EC1F80100851185EACFF3E0FF1203
:104410000EC08F89882309F440C0823061F440E8DF
:1044200067E086E092E30E944225811148CF81E255
:104430008093EB0047CF813029F440E86BE08AEFAE
:1044400091E3F1CF833099F70E94831BDC01129630
:10445000ED90FC908E010F5F1F4F6801E114F10495
:1044600079F0D701ED91FC910680F781E02DB8013C
:10447000C7010995080F111DF701E084F184EECF03
:10448000D8011C92F60101900020E9F73197BF0195
:104490006C197D0940E0C601C6CF64EE71E3FB01F3
:1044A000449150E080E80E94461C09CF973009F4FF
:1044B000BECF983021F481E08093F10000CF993095
:1044C00009F0FDCE837009F0B2CFEBE6F2E081E0B7
:1044D00031E096E32191222371F08093E90030933B
:1044E000EB00DF0111972C912093EC009093ED00ED
:1044F0008F5F873079F78EE78093EA001092EA00A9
:104500008F898093F802DBCE8B8D9C8D1092E90011
:104510001092E6021092E5029093E4028093E30287
:10452000898D811192C08E899D89913A49F4813299
:1045300009F07DCF47E050E06AEF71E080E0B3CF53
:10454000913209F074CF833269F48F89988DB0E08D
:10455000A0E08093F6019093F701A093F801B09347
:10456000F901ADCE803269F48091E80082FFFCCF82
:1045700067E08AEF91E00E949D1C8BEF8093E8003A
:104580009ECE823209F09BCE8F8980930102EEEF9E
:10459000FFE7859194918B3F9C4D51F1E0E0F8E06D
:1045A0008091FA019091FB01A091FC01B091FD0175
:1045B000803B9440A105B105F1F48091010280FD9A
:1045C0001AC0EE3F8AE0F80789F587E797E79183FD
:1045D0008083809160008093E70288E19BE00FB6C2
:1045E000F894A895809360000FBE9093600067CE0A
:1045F000EEEFFAE0D5CF808191818737974709F0B8
:104600005ECEA89580916000886180936000809163
:10461000E70280936000EE3F2AE0F20789F0809184
:10462000FE0A9091FF0A9183808349CE8081918117
:104630008737980751F29093FF0A8093FE0AC5CFFF
:104640001092FF0A1092FE0A3ACE0E94831BDC01F0
:1046500012960D911C910115110509F4E8CED801AF
:10466000ED91FC910190F081E02DBE016B5E7F4FDA
:10467000C8010995811123CEF80100851185EBCF82
:10468000181619060CF41BCED2CEF1E0FF12BECEE6
:1046900068EE71E304CF0F920FB68F939F93EF9361
:1046A000FF938091C0028D5F8D3708F08D57809306
:1046B000C002E1ECF2E080818E4F808391819F4FB8
:1046C000918382818F4F828383818F4F8383E5EC37
:1046D000F2E080818F5F808381818F4F818382812F
:1046E0008F4F828383818F4F83838FB18F606699D1
:1046F0001C9B88278F3681F48091BF02981B9630CF
:1047000068F0E0E0F8E087E78083818388E18093C8
:104710006000F0936000FFCF9093BF02FF91EF9194
:104720009F918F910FBE0F9018951F920F920FB609
:104730000F921124BF92CF92DF92EF92FF920F93CC
:104740001F932F933F934F935F936F937F938F9319
:104750009F93AF93BF93CF93DF93EF93FF93D0914A
:104760000302DF3F31F0809102028150E1F080933B
:104770000202FF91EF91DF91CF91BF91AF919F9195
:104780008F917F916F915F914F913F912F911F91E9
:104790000F91FF90EF90DF90CF90BF900F900FBEE2
:1047A0000F901F90189584E080930202C09104033B
:1047B000CC2309F433C180910303811168C08FE7D2
:1047C0008093CF00109272008FEF809303021092BB
:1047D0000403CFCF242F30E02E5F3F4F269FC00130
:1047E000279F900D369F900D11242091FF0230914C
:1047F0000003FC013296E20FF31FE491E7FD30C0A5
:10480000EC5EE093BE02FC013396E20FF31FE491ED
:10481000F0E0F093BD02E093BC02E6EAEE2EE2E0A7
:10482000FE2E280F391FB12C00E410E0C12CF0E15E
:10483000DF2EB416D1F0F9013496649167FF12C0EF
:104840006F776054770BC6010E947238F70161934D
:1048500071937F01060F171FB3942F5F3F4FE9CF6E
:10486000E0E0CFCF6054770BF1CF2FE7209FC0015E
:10487000219F900D11249093BB028093BA0240E1D6
:1048800050E06FE770E086E992E00E948C381D2FBF
:104890001F70C1116EC06091BE02662389F18D2F19
:1048A0000E945238911165C02091BC023091BD0226
:1048B0004FE7429FC001439F900D1124F090FE02EC
:1048C000A6EAB2E050E040E0212F30E0890101503B
:1048D00011094F1508F050C06D917D91F801E41B4E
:1048E000F50BEF70FF27EA56FD4FD081D69FF00100
:1048F000D79FF00D11248E1B9F0B4F5F5F4FE9CFA9
:104900004091940250919502FA01EE5FFE4F608152
:1049100080910001909101012BE3629F800D911D18
:104920001124292F3327620F732F711D70930101FA
:104930006093000180834F5F5F4F47305105A0F4C3
:104940005093950240939402482F4F57550B9A016C
:104950004091BC025091BD02249FC001259F900D43
:10496000349F900D1124AACF1092950210929402B8
:10497000EBCF90E080E0A2CF4091BA025091BB0211
:10498000840F951F66E0959587956A95E1F78F3FAF
:10499000910519F014F08FEF90E097FF02C090E0BE
:1049A00080E0409103034423F1F0DC01AF57B109EB
:1049B000E42FF0E0C1112AC060E270E06E1B7F0BB3
:1049C0006A9FC0016B9F900D7A9F900D112497FDF7
:1049D0004F9655E0959587955A95E1F781589F4FE9
:1049E0004150409303032A563D4FF9018083809341
:1049F000CF00809103028F5F809303029091FB02AE
:104A0000891708F4B6CE10920302B3CEAE9FC00150
:104A1000AF9F900DBE9F900D1124D9CFD11137CFEC
:104A20004091FE026091FC027091FD02CB01019663
:104A30009093FD028093FC022091F9023091FA02DA
:104A40002817390708F0C6CE81E08093040380E27E
:104A5000809303038ECE1F920F920FB60F921124F4
:104A60008F939F9382E496E09093990080939800AF
:104A700081E08093CB029F918F910F900FBE0F909A
:104A80001F901895EF92FF920F931F93CF93DF9390
:104A9000F82E192FE62E042F81E0860F880F0E9432
:104AA000181C83E00E94181CCF2DD12FEC0EFD2E78
:104AB000F11CCE15DF05B9F007FF13C0FE0184918C
:104AC0000E94181C182F80E00E94181C8123219638
:104AD0008111EFCFDF91CF911F910F91FF90EF9058
:104AE00008958881EDCF81E0F5CFE5E0F7E013820E
:104AF000128288EE93E0A0E0B0E084839583A683E1
:104B0000B78385E792E0918380838FEF9FEF95874E
:104B10008487E6E5F7E01382128287E892E09183CA
:104B2000808310925507EAE4F2E0A8E5B2E08D91A7
:104B30009C91119740969183808312968D919C91C0
:104B4000089793838283EEE2F2E0ACE3B2E08D91CA
:104B50009C9111979183808312968D919C91938360
:104B60008283A0E2B2E02D913C911197E2E1F2E064
:104B70003183208312968D919C91AC014250510952
:104B800053834283E4E0F2E03183208308969383E9
:104B900082830895789483E084BD83E085BD81E0BD
:104BA00080936E00E1E8F0E083E08083E0E881E05C
:104BB0008083E1E983E08083E0E981E08083E1ECC8
:104BC00087E08083E3EC81E08083E0EC82E0808317
:104BD000E2EC81E08083EAE787E08083806880837D
:104BE0001092F8021092E8021092EA028091D70027
:104BF00081608093D70080EA8093D80089B5806176
:104C000089BD89B5826089BD09B400FEFDCF81E010
:104C100090E00E944C1D8091D8008F7C8061809331
:104C2000D8008091E000807F8093E0008091E100D7
:104C30008E7E8093E1008DE08093E200559A209A69
:104C400081EC80937C0081EF85B987EE84B984E3A1
:104C50008BB984EF8AB9769A6E9880EF81BB10BACF
:104C600080E58CBDC1E0CDBD85E00E94E31D5F9A6B
:104C700085E00E94E31D5C98ECE5F6E085910E94DA
:104C8000EF1CE936D9F75C9A81E880936400C09301
:104C9000650080E00E94391B0E94E71C87FF12C05C
:104CA0005C9885EA0E94EF1C5C9A2E982F982D98AC
:104CB0008091640080628093640081E083BF889566
:104CC00013BEFCCF0E94E71C82FF37C02D980E94C4
:104CD000E71C84788438A1F42D9A88EC0E94E31DA7
:104CE0002F986FEF82E090E00E94533684EF91E0BE
:104CF0000E944C1D2F9A0E94E71C84788438D9F3B7
:104D00000E94E71C84718431A1F42D9A88EC0E94E2
:104D1000E31D2E9860E082E090E00E94533684EF1D
:104D200091E00E944C1D2E9A0E94E71C84718431F0
:104D3000D9F388EC0E94E31DC5CF2D9A82E090E064
:104D40000E944B36882309F4A4C03E9A3F9A81E022
:104D500090E00E944B36182F147081FF0AC0111189
:104D60002E98C1EFDFEF0E94E71C86FF95C02E9AB8
:104D70002F9A82E30E94E31D0E94E71C8111F9CF64
:104D800068E089E696E00E94911F2FB7F89482E4CC
:104D900096E0909399008093980093E09093900010
:104DA0008BE1809391001092950010929400809175
:104DB00071008260809371002FBF909309015E9A09
:104DC000E4E1F0E08BEE9DEF60EF7FEF2591359110
:104DD000559145912851354909F4CA018093010341
:104DE000909302032591359155914591285135496C
:104DF00009F4BA016093C9027093CA0272988BEAEF
:104E00000E94451D729A809164008E7F8093640099
:104E100080917A00806480937A0080917A0086FD88
:104E2000FCCFC0917800D09179000E94E61DAB01C3
:104E3000BC01CE01B0E0A0E0DC01992788278C01FD
:104E40009D01040F151F261F371FC901B8012091AE
:104E5000640021602093640061157105810591054E
:104E600011F00E944236A8E06A2EA1E27A2E812C2F
:104E7000F9E1AF2EB12CF8948091CB028111A8C03A
:104E800083B7816083BF7894889583B78E7F83BF13
:104E9000F2CF3E983F985BCF112329F0C430D10563
:104EA00011F42E9A2F9881E00E94391B0C2F077065
:104EB000A02EAE0103E0559547950A95E1F7CA018A
:104EC0009695982F8827979587958B5F9C4F70E0D4
:104ED00060E04E3F2FEF520769F130E020E0DB0148
:104EE000A455BA4F7C01E0E8EE0EF11CFD01E20F83
:104EF000F31FE491F0E03F010A2C02C0660C771C1E
:104F00000A94E2F74F3F540739F06C01C20ED31EEA
:104F1000F601B488B628B48AAA2039F06701C20E17
:104F2000D31EF60104890729048B2F5F3F4F2835D4
:104F30003105E1F64F5F5F4F80589F4F685A7F4FB2
:104F4000603B710531F680E00E94391B8FE00E94C2
:104F5000E31D2196C931D10509F005CF112311F0C8
:104F60002F9A2D9880E991E00E944C1D2D9A81E0A6
:104F700090E00E944B3680FFFCCE8AE090E00E94D9
:104F80004B369FEF980F9E3F08F0F3CE22E330E0C0
:104F90003093DE022093DD0228E330E03093DC0220
:104FA0002093DB02CAE0D0E0682F86E597E00E94FC
:104FB000611E2196CE010E944B36C031D105A1F76A
:104FC00080E00E94391B88EE93E00E944C1DD1CEF8
:104FD0001092CB027894C091E2022FE741E050E0BA
:104FE00061E070E085E896E00E94FE1D62E083E7E4
:104FF00096E00E94911F2FEF47E051E061E070E0E2
:1050000085E093E00E94FE1D62E081E796E00E9449
:10501000911F8EEF8C0FCF5F8E3F30F48091CC02CA
:105020008F5F8093CC02C0E0C093E2025E9A8091D1
:10503000CC02882329F181508093CC028091CE024A
:105040008093CD020E94E71C8093CE02E091E102A2
:10505000E930B0F4F0E0E15DF74D0C948638382883
:105060005828382AAF2AA52F792F382FFE29CE2885
:1050700080911101882309F4F9C1815080931101B5
:10508000E090E202CE2DD0E0E091E102E93010F0B4
:105090000C949D33F0E0E15BF74D0C94863877304B
:1050A00055358230A230AA32A833873508345329C7
:1050B000809103028F3F21F48DE798E10E94311B1C
:1050C00020E040E061E088EE91E00E94E61E8091E1
:1050D000D902813009F43FC0F8F0823089F68CE4BF
:1050E00090E09093E9018093E80186E390E090934B
:1050F000EB018093EA0180E80E94161D882319F0D5
:1051000081E08093D90288E00E94161D882311F463
:105110000C94513587E01CC087E590E09093E9013D
:105120008093E8018FE190E09093EB018093EA0196
:1051300080E10E94161D882319F081E08093D90236
:1051400088E00E94161D882311F40C94513582E0EA
:105150008093E10295CF8AE590E09093E9018093F6
:10516000E8018BE290E09093EB018093EA0180E804
:105170000E94161D81111092D90280E10E94161D15
:10518000882319F082E08093D90288E00E94161DDE
:10519000882311F40C94513588E0DACF8091DF0236
:1051A000813009F4F7C008F443C0823009F068CFB9
:1051B00020E040E061E088EE91E00E94E61E20E001
:1051C00040E061E080E791E00E94E61E20E040E0E0
:1051D00061E082E191E00E94E61E88E00E94161DD7
:1051E000882371F02AE03FEB40E0209340013093A8
:1051F0004101409342011092DF0281E08093E1027D
:1052000084E00E94161D811106C080E20E94161DD6
:10521000882309F435CF8CE097EDA0E0809340011E
:1052200090934101A093420181E08093DF0228CF57
:1052300020E040E061E08EE291E00E94E61E20E086
:1052400040E061E080E291E00E94E61E20E040E064
:1052500061E088EE91E00E94E61E20E040E061E01F
:1052600082E191E00E94E61E88E00E94161D8111F5
:1052700005C080E40E94161D882361F02CE037ED04
:1052800040E020934001309341014093420181E08E
:105290008093DF0284E00E94161D8111E7C0E09038
:1052A000E202CE2DD0E08091DF02813011F40C9427
:1052B000F93410F40C945134823011F00C949D3375
:1052C000209040013090410140904201C0903E0149
:1052D000D0903F018E01442D9101B60190E080E015
:1052E0000E942D1FF12C87010D5F1F4F442D91014E
:1052F000B60180E490E00E942D1F80911A01C3E066
:1053000087018C9F000D111D112420914E013091B9
:105310004F01409150016BE270E08DE690E00E94F9
:105320002D1F8091780187018C9F000D111D112484
:1053300020917401309175014091760160E170E037
:1053400082E790E00E942D1F8091F00187018C9FE1
:10535000000D111D11242091EC013091ED014091BF
:10536000EE0161E070E088E490E00E942D1F8091E2
:10537000F00187018C9F000D111D11242091EC017B
:105380003091ED014091EE016FE170E08EE590E02B
:105390000C94E13420E040E061E082E191E00E9481
:1053A000E61E88E00E94161D811105C080E40E945F
:1053B000161D882361F08EE09FEEA0E080934001EF
:1053C00090934101A093420182E08093DF0284E048
:1053D0000E94161D811106C080E20E94161D8823BE
:1053E00009F45DCF0AE01FEB20E000934001109329
:1053F0004101209342011092DF0242CE0E94131F0E
:1054000080910B018823A9F081E0809365010E94BF
:10541000F33528E631E040E050E00E946536665AF8
:105420007F4F8F4F9F4F7093D3026093D2021092A1
:105430000B0180916501882339F020E040E061E0B4
:1054400088E591E00E94E61E20E040E061E08AE409
:1054500091E00E94E61E88E00E94161D811106C0A0
:1054600084E00E94161D882309F40ACE81E070CEE4
:1054700088E00E94161D8823A1F081E08093D80265
:105480000E94212083E08093E10285E190E09093E7
:10549000DB018093DA018DE190E09093DD01809350
:1054A000DC0184E00E94161D882319F081E08093BE
:1054B000E1028091D702813091F1B8F0823009F099
:1054C000DFCD8AE090E09093DB018093DA018CE2FB
:1054D00090E09093DD018093DC0188EE93E090935F
:1054E000100180930F0180E811C08AE090E0909352
:1054F000DB018093DA011092DD011092DC0186E974
:1055000090E09093100180930F0180E10E94161D9E
:10551000882309F4B5CD81E08093D702B1CD8AE02C
:1055200090E09093DB018093DA0188E190E0909322
:10553000DD018093DC018CE291E090931001809377
:105540000F0180E80E94161D81111092D70280E1A0
:105550000E94161D882309F493CD82E0DDCFC09010
:105560007E01D0907F01E0908001F09081018091D8
:105570006B0181118EC08091D102811182C080E8BF
:105580000E94161D882309F181E08093B401809167
:105590006C0190916D01A0916E01B0916F01AC0111
:1055A000BD01475F5F4F6F4F7F4F4C155D056E0527
:1055B0007F055CF40A96A11DB11D80936C01909348
:1055C0006D01A0936E01B0936F0180E10E94161DE2
:1055D0008823D9F082E08093B40180916C0190918E
:1055E0006D01A0916E01B0916F018B309105A10505
:1055F000B1055CF00A97A109B10980936C01909301
:105600006D01A0936E01B0936F0180E20E94161DA0
:10561000882391F083E08093B4018091D4028111BA
:1056200003C081E08093D4028091D402813009F4D8
:10563000A4C081508093D40280E20E940B1D81118E
:105640000EC080E40E940B1D811109C080E80E94F9
:105650000B1D811104C080E10E940B1D811110926D
:10566000B40180E40E94161D882359F084E08093E1
:10567000B4018091D402833009F481C08F5F80939C
:10568000D402809103028F3F21F48DE798E10E94BC
:10569000311B20E040E061E088E592E00E94E61ED8
:1056A00020E040E061E08AE492E00E94E61E20E013
:1056B00040E061E088EE91E00E94E61E8091D40215
:1056C0008093280280910F0190911001092E000C07
:1056D000AA0BBB0BC816D906EA06FB0674F081E0DC
:1056E0008093D8020E9421208CE390E0909369017E
:1056F0008093680184E08093E10280916B018111C5
:105700000CC08091DA02813009F4CEC0D0F1823031
:1057100009F4D6C1833009F47CC20E94131F809122
:105720000B018823B9F081E080931F02809311025E
:1057300010920B010E94F33520EA30E040E050E087
:105740000E946536665A7F4F8F4F9F4F7093D302EA
:105750006093D202809114029091150220911F0251
:10576000222309F47DC28E3091050CF065C20296A9
:10577000909315028093140261C283E05BCF81E0B5
:105780007ECF88E00E94161D8823C9F18091D10246
:10579000811135C080917E0190917F01A09180019F
:1057A000B091810140916C0150916D0160916E0149
:1057B00070916F0184179507A607B70704F121E0E0
:1057C0002093D102841B950BA60BB70B80937E010F
:1057D00090937F01A0938001B09381011092D00239
:1057E0008091D4028130A1F5809349021092440245
:1057F000109247021092460281E08093DA0288E01C
:105800000E94161D882309F488CF8091D10281114E
:1058100084CF8091E002882309F47FCF91E09093B8
:10582000D10280910A01815080930A011092D00226
:105830008091D402813011F5809349021092440284
:10584000109247021092460281E08093DA0265CFFF
:10585000823049F42093AB011092A6011092A90165
:105860001092A801C9CF833039F620939D01109280
:10587000980110929B0110929A01BECF823049F498
:105880009093AB011092A6011092A9011092A80169
:10589000DBCF8330C9F690939D011092980110924E
:1058A0009B0110929A01D0CFC091D402C130D9F59A
:1058B00080914902882309F474C020E041E060E04F
:1058C0008CE392E00E94E61E8091490281112BC078
:1058D00080913C0290913D0220913E0230913F0226
:1058E00040914802442309F49DC0049690932F02EE
:1058F00080932E0230933102209330026092320264
:10590000709233028092340285E08093350282E007
:105910008093370282E08093DA028EE190E09093E8
:10592000690180936801C091D402C230D1F58091A1
:10593000AB01882309F4F1CE20E041E060E08EE97C
:1059400091E00E94E61E8091AB0181112AC08091F6
:105950009E0190919F012091A0013091A101409161
:10596000AA01442309F478C0049690932F028093EF
:105970002E023093310220933002609232027092F4
:1059800033028092340285E080933502C09337025F
:1059900082E08093DA028EE190E090936901809337
:1059A00068018091D402833009F0B7CE80919D01C7
:1059B000882309F4B2CE20E041E060E080E991E084
:1059C0000E94E61E80919D018111A7CE80919001D9
:1059D00090919101209192013091930140919C010D
:1059E000442309F454C0049690932F0280932E020E
:1059F000309331022093300260923202709233026F
:105A00008092340285E08093350282E080933702F1
:105A100082E08093DA028EE190E0909369018093B6
:105A200068017BCE089790932F0280932E02285115
:105A3000310930933102209330020CE713E721E063
:105A40000093320210933302209334028DE080934E
:105A50003502C09337025ECF089790932F02809350
:105A60002E022851310930933102209330022CE765
:105A700033E741E020933202309333024093340203
:105A80008DE08093350281E08093370281CF0897C3
:105A900090932F0280932E022851310930933102C6
:105AA000209330028CE793E7A1E080933202909339
:105AB0003302A09334028DE08093350281E0A6CFBB
:105AC0008091D002811162C031E03093D0023093D6
:105AD000CF022091D40240916C0150916D016091F0
