:100000000C944E050C9476050C9476050C947605AC
:100010000C9476050C9476050C9476050C94760574
:100020000C9476050C9476050C94B60B0C94250C68
:100030000C9476050C9476050C9476050C94760554
:100040000C9476050C9476050C9476050C94760544
:100050000C9476050C9476050C9476050C94F20FAE
:100060000C9476050C9476050C9476050C94760524
:100070000C9476050C9476050C9476050C94760514
:100080000C943C100C9476050C9476050C94760533
:100090000C9476050C9476050C9476050C947605F4
:1000A0000C9476050C94570E0C9476050000000015
:1000B000003E5B4F5B3E3E6B4F6B3E1C3E7C3E1CEE
:1000C000183C7E3C181C577D571C1C5E7F5E1C0034
:1000D000183C1800FFE7C3E7FF0018241800FFE7EB
:1000E000DBE7FF30483A060E2629792926407F05AE
:1000F0000507407F05253F5A3CE73C5A7F3E1C1CC4
:1001000008081C1C3E7F14227F22145F5F005F5F83
:1001100006097F017F006689956A6060606060946F
:10012000A2FFA29408047E040810207E2010080874
:100130002A1C08081C2A08081E101010100C1E0C7F
:100140001E0C30383E3830060E3E0E060000000011
:100150000000005F00000007000700147F147F14F8
:10016000242A7F2A1223130864623649562050003D
:1001700008070300001C2241000041221C002A1C29
:100180007F1C2A08083E0808008070300008080814
:100190000808000060600020100804023E51494534
:1001A0003E00427F400072494949462141494D3352
:1001B0001814127F1027454545393C4A49493141B9
:1001C000211109073649494936464949291E000087
:1001D00014000000403400000008142241141414DC
:1001E0001414004122140802015909063E415D59C8
:1001F0004E7C1211127C7F494949363E41414122D1
:100200007F4141413E7F494949417F090909013EFA
:10021000414151737F0808087F00417F4100204021
:10022000413F017F081422417F404040407F021C33
:10023000027F7F0408107F3E4141413E7F0909094A
:10024000063E4151215E7F09192946264949493216
:1002500003017F01033F4040403F1F2040201F3FDC
:100260004038403F63140814630304780403615961
:10027000494D43007F4141410204081020004141A3
:10028000417F04020102044040404040000307084F
:100290000020545478407F2844443838444444284B
:1002A000384444287F385454541800087E090218F2
:1002B000A4A49C787F0804047800447D400020407A
:1002C000403D007F1028440000417F40007C0478BE
:1002D00004787C080404783844444438FC18242406
:1002E0001818242418FC7C08040408485454542486
:1002F00004043F44243C4040207C1C2040201C3C03
:100300004030403C44281028444C9090907C4464F9
:10031000544C44000836410000007700000041368C
:10032000080002010204023C2623263C1EA1A16112
:10033000123A4040207A3854545559215555794144
:100340002154547841215554784020545579400C1B
:100350001E527212395555555939545454593955FC
:100360005454580000457C410002457D420001453F
:100370007C40F0292429F0F0282528F07C545545AC
:10038000002054547C547C0A097F4932494949323F
:100390003248484832324A4848303A4141217A3A54
:1003A00042402078009DA0A07D39444444393D401E
:1003B00040403D3C24FF2424487E4943662B2FFCCB
:1003C0002F2BFF0929F620C0887E09032054547979
:1003D000410000447D413048484A32384040227A4A
:1003E000007A0A0A727D0D19317D2629292F2826C7
:1003F0002929292630484D402038080808080808CF
:100400000808382F10C8ACBA2F102834FA00007B27
:10041000000008142A142222142A1408950022002D
:1004200095AA005500AAAA55AA55AA000000FF00E7
:10043000101010FF00141414FF001010FF00FF1024
:1004400010F010F0141414FC001414F700FF000056
:10045000FF00FF1414F404FC141417101F10101FD5
:10046000101F1414141F00101010F0000000001FC3
:10047000101010101F10101010F010000000FF10CE
:100480001010101010101010FF10000000FF1400CA
:1004900000FF00FF00001F10170000FC04F41414FC
:1004A0001710171414F404F40000FF00F7141414C8
:1004B00014141414F700F7141414171410101F1048
:1004C0001F141414F4141010F010F000001F101F6B
:1004D0000000001F14000000FC140000F010F010D9
:1004E00010FF10FF141414FF141010101F00000050
:1004F00000F010FFFFFFFFFFF0F0F0F0F0FFFFFF54
:100500000000000000FFFF0F0F0F0F0F38444438AA
:10051000447C2A2A3E147E02020606027E027E02E5
:1005200063554941633844443C04407E201E200604
:10053000027E020299A5E7A5991C2A492A1C4C7241
:1005400001724C304A4D4D303048784830BC625AC8
:10055000463D3E494949007E0101017E2A2A2A2A58
:100560002A44445F444440514A444040444A514034
:100570000000FF0103E080FF000008086B6B0836F5
:1005800012362436060F090F060000181800000066
:100590001010003040FF0101001F01011E00191D55
:1005A0001712003C3C3C3C0000000000F0F89C8E20
:1005B0008783878E9CF8F00000FEFF03030303038C
:1005C000070EFCF80000FEFF0303030303070EFC05
:1005D000F80000FFFF00000000000000FFFF000027
:1005E000FEFF8383838383C7EE7C380000F8FC0E14
:1005F00007030303070EFCF800003F7FE0C0808084
:10060000C0E07F3FFFFF01010101010101FFFF0089
:1006100000FFFF0C0C0C0C1C3E77E3C100007FFFB9
:10062000C0C0C0C0C0E0703F1F00001F3F70E0C0EE
:10063000C0C0E0703F1F00007FFFC1C1C1C1C1E366
:10064000773E1C00001F3F70E0C0C0C0E0703F1F3D
:10065000000000000001FFFF010000008D14A1C890
:1006600081CFD9F102AFC0A0D921D5F081FFA80078
:10067000A800A83F77608000000000000000800014
:10068000000000000000800000000000000080006A
:1006900000000000000080000000000000007E005C
:1006A000613B333B434380000000000000008000BA
:1006B00000000000000080007F713C262A37800582
:1006C0006A564952483D80075B472F483F3C8006A9
:1006D0005546315058440F1E18391D51573D148E40
:1006E00014472544613D16AF2E3B2737634C1768EE
:1006F0002D3727396A49186F263A2E376A4418640D
:100700001B4032346A401739154037317435152C87
:1007100006503A2A74341226084D3C2676301012C0
:10072000035621425C3E0E020A3B27535A370E0005
:100730001E3D2A3E51521400213E32324E4D0E00D3
:100740001B38403B424D80085334504939418006A4
:100750005A374943424580014F42413C47440D01CD
:10076000844E38384D4611068F67392F484B140296
:100770008E5A443148462100863E3E4D3D44140089
:10078000312D2F463E4480055A464F5031400B04D0
:100790003C3E5445303C100235475345424512011A
:1007A000965D6233295117089BF1205A1D57181C7A
:1007B0008D6C2E49394E1827084D343F5446193256
:1007C0001B3E204E5A41182F2B381A40614B1720E0
:1007D0002B3E0E425B50140C1E44084E584C100623
:1007E000183D164E5E420F030A45165F503F0D0539
:1007F0002C4E33413948040C325549424245070CCE
:1008000039573F3247370A0E364F4146403A1409AE
:1008100044533F3D3C3E0A003E3C48443C3A161996
:10082000865F325426581C158D642A612551200696
:1008300093535946264E21059455564B294820027C
:10084000965452512E411E029A62584D1E4C1C0560
:100850009C7A434E1D521B13946E413B36501B2B0A
:1008600005522C4650471A2418402445653E18224C
:10087000253B1A40614618292B3A113E5C51171F3F
:100880002F360A415D531512323207455D52110F62
:10089000362A0A445D50130228231D485E42140084
:1008A00028321151574780066A2B31413139802156
:1008B0007440373C3E3F8008793A1E37524C0C0E4C
:1008C000004E235A4C3E2B140056284950452919F6
:1008D000005A24445C3F091385612E355E4008139D
:1008E00086662043603806128861312D702C05061B
:1008F000947D1942632C05008B641B4D5933050010
:10090000154C2D314D4C80002544313B3E4C0500AB
:10091000183B3B3F453F4A00404041314141800048
:100920000000000000008000000000000000430004
:10093000143B373A3B486700182F3B3D3A4C1B00AD
:1009400018343D4338457000274A284A383C800017
:100950000000000000002200273A483E3E4180008F
:100960000000000000008000000000000000800087
:100970000000000000007E00404040404040000079
:1009800035423F404040180036363636363D00008E
:10099000303934413A3602003A473A393732350075
:1009A00038403C3D3A3B50002C38333E343F000049
:1009B0002E443F3F442E80000000000000008000D5
:1009C0000000000000008000000000000000800027
:1009D0000000000000008000000000000000800017
:1009E0000000000000008000000000000000800007
:1009F000000000000000230029262C41454400008F
:100A000016323D45443380000000000000008000A5
:100A10000000000000008000000000000000000056
:100A2000003F403F40408000000000000000080BF5
:100A30000002020200000904000001020200000599
:100A400024001001052401010104240206052406E6
:100A500000010705810310004009040100020A009B
:100A60000000070502024000000705830240000065
:100A70000403090412010002EF0201404123368001
:100A800000010102030141726475696E6F204C4CD4
:100A900043004142413131303600861011241FBEDF
:100AA000CFEFDAE0DEBFCDBF11E0A0E0B1E0ECE7D0
:100AB000F6E302C005900D92A63CB107D9F726E0F7
:100AC000A6ECB1E001C01D92A03BB207E1F715E032
:100AD000CEE4D5E004C02197FE010E942F1BCD3447
:100AE000D107C9F70E94A5100C943C1B0C94000080
:100AF000809193018F3F31F081E080935A0680E22C
:100B0000809359060895CF93DF93EC018985609116
:100B10005806660F70E093E0899F600D711D1124E7
:100B20008A859B850E94071B892B31F488859F81CC
:100B3000891750F48F5F88878A859B8501969B87EC
:100B40008A87DF91CF9108951D8698870E94780546
:100B5000F3CF2F923F924F925F926F927F928F923C
:100B60009F92AF92BF92CF92DF92EF92FF920F933C
:100B70001F93CF93DF9300D000D0CDB7DEB76A01CB
:100B8000E62E43E0442EA8E5B2E0F22FBB24682E07
:100B9000969596959695E1E001FDE4E000FDEE0F57
:100BA00002FDE2955FEF5E9F100120943094159551
:100BB00007951595079515950795402F4F3F4CF4D0
:100BC0004095941B40FC440F489FC00CD11CEB1C6B
:100BD0004FEF37FF0BC0620E40FE02C0220F331FE3
:100BE000C21AD30AEB0837FDE394FF2750E8450308
:100BF0000F0EA00DB11D5F1B651608F0652E57E0A6
:100C0000541B591714F4952FB39450E85619682FB4
:100C1000772741FC02C06619770B40FE02C0660FC1
:100C2000771F1124A42EFE2E00905602D00C0090A7
:100C30005702E01C19C05A9843E04EBDC60ED71E9D
:100C4000E11C7724861509F073940CD0EEBC07D014
:100C5000DEBC05D0CEBC03D01EBC03D00895C89521
:100C60000000C895C8950895C61AD70AE108E3DFC1
:100C7000A1141CF0992371F564C0A058BF4F962CA5
:100C800040FC0CC02EB51EBC2F9D8C90832081286B
:100C90008D92C89500C09A94A9F711C02EB51EBCBC
:100CA0002F9D9001DEDF2EB41EBC2F9C10018C9076
:100CB00030948320832A8D92C8959A9479F71124D1
:100CC000A619B1099A9509F45CC0772019F00DB402
:100CD0005A9AB1DFFD01E058FF4F962C40FC0EC040
:100CE0002EB51EBC2F9D8C90822080288D928080F6
:100CF0008320812881929A9499F716C02EB51EBC44
:100D00002F9D90018C903080AEDF00C02EB41EBCB1
:100D10002F9C00948020822A8D9210943120332AB7
:100D2000319200009A9451F71124A50FB11D9A95A4
:100D300061F6BB2031F1772021F00DB45A9A7BDFA8
:100D4000C89540FC0CC02EB51EBC2F9D8C908220F7
:100D500080288D92C89500C06A94A9F712C02EB55C
:100D60001EBC2F9D90017DDF9EB51EBC9F9D902DCA
:100D70008C9090958922822A8D92C8956A9479F7F1
:100D8000C89511245A9A0DB40F900F900F900F90A0
:100D9000DF91CF911F910F91FF90EF90DF90CF9057
:100DA000BF90AF909F908F907F906F905F904F908B
:100DB0003F902F900895E8E5F2E030EB20E146E027
:100DC0005C983EBD4A95F1F72EBD20E8239507C0FB
:100DD000449140815C9A4EBD8111412D41934491D3
:100DE0002A95B1F73395383B49F744910DB40895EE
:100DF000FC0180915502882311F13FB7F89482E0FD
:100E00008093E9002091F200822F90E018161906D5
:100E100014F481E090E0882339F0289844E6409368
:100E200054024091F1004083222339F02091F200D6
:100E3000211103C02BE62093E8003FBF08958FEFF8
:100E40009FEF08952FB7F89483E08093E900909185
:100E5000E800892F807295FF04C09091F20080E431
:100E6000891B2FBF089580914C0281110DC082E033
:100E70008093480284E08093490210924B021092C2
:100E80004A0281E080934C0288E492E00895CF9377
:100E9000DF931F92CDB7DEB76983DC01ED91FC9142
:100EA0000280F381E02D41E050E0BE016F5F7F4F93
:100EB00009950F90DF91CF91089583E08093E90029
:100EC0008091F200882319F08AE38093E800089566
:100ED0000E94220790E00895CF93DF931F92CDB731
:100EE000DEB7FC018485958597FD08C02FEF3FEFA5
:100EF000358724870F90DF91CF910895CE01019619
:100F00000E94F806019719F4898190E0F3CF8FEFE2
:100F10009FEFF0CF0F931F93CF93DF931F92CDB727
:100F2000DEB78C01FC018485958597FF0BC0CE014F
:100F300001960E94F806019771F4898190E0F8010A
:100F400095878487F801848595850F90DF91CF91EF
:100F50001F910F9108958FEF9FEFF1CFFC018485D2
:100F6000958597FD0BC09FB7F89482E08093E900C8
:100F70008091F2009FBF90E0019608959FB7F8948A
:100F800082E08093E9008091F2009FBF90E0089595
:100F9000409142025091430220914002309141021F
:100FA00042175307B4F49091E8009570E1F39091E3
:100FB000E80092FD19C08093F10080914202909167
:100FC000430201968F739927892B19F48EEF809332
:100FD000E80080914202909143020196909343026F
:100FE0008093420281E0089580E00895DF92EF92BD
:100FF000FF920F931F93CF93DF93D82E8A01EB01BB
:101000007B01E40EF51ECE15DF0559F0D7FE12C0A8
:10101000FE0184910E94C80721968111F4CF0FEF41
:101020001FEFC801DF91CF911F910F91FF90EF90BB
:10103000DF9008958881EECF0F931F93CF93DF93B6
:101040001F92CDB7DEB782E0898342E450E06EE2C2
:101050007AE080E80E94F6070E943307DC011296CE
:101060000D911C910115110589F0D801ED91FC91AC
:101070000280F381E02DBE016F5F7F4FC8010995AB
:1010800097FD04C0F80100851185ECCF89810F9090
:10109000DF91CF911F910F910895615030F0209111
:1010A000F100FC0120830196F8CF289884E6809314
:1010B00054020895811105C081E0611106C080E0ED
:1010C00004C0813019F46230D0F3089581E06330B8
:1010D000E0F7F5CFAF92BF92CF92DF92EF92FF92FF
:1010E0000F931F93CF93DF936C017B018B01040F50
:1010F000151FEB015E01AE18BF08C017D10759F0EC
:101100006991D601ED91FC910190F081E02DC6012D
:101110000995892B79F7C501DF91CF911F910F9127
:10112000FF90EF90DF90CF90BF90AF9008958FB178
:101130008095807F669B88601C9B846008958EBD2F
:1011400000000DB407FEFDCF089590E1282F81E047
:1011500061FD84E060FD880F62FD8295687F969F47
:10116000D0011124A20FA85ABD4F0C90082A40FFAD
:1011700008260C9208959091FF01982329F09091F0
:101180000002982381E009F080E008959091FF012A
:10119000982329F490910002982381E009F480E0DB
:1011A00008950DB407FEFDCF8EB55A9A08950DB47B
:1011B00007FEFDCF8EB51EBC08955A980E94F50813
:1011C000862F0E94F508852F0E94F508842F0C9425
:1011D000F508462F50915602570F60915702681F2D
:1011E00083E00E94DD081EBC08958EBD00008EB510
:1011F0000DB407FEFCCF0895FC010E9496093197BB
:1012000028F068517C4F8F4F9F4FF9CFAB01FC0105
:101210000E949609641775078E079F07C8F3089503
:101220008F929F92AF92BF92CF92DF92EF92FF92F6
:101230000F931F93CF93DF936C017B018A01809101
:101240009201882309F45AC080915502882309F439
:1012500055C08091470280FF05C08091E000826008
:101260008093E000E801B12C8AEFA82E93E0892E4C
:101270002AE3922E209711F4BB20C9F10E94220785
:10128000811108C0AA94AA20C9F181E090E00E94CF
:10129000FC08F0CF8C171D0611F00CF08C2F9FB7B7
:1012A000F8948092E9002091E80025FD02C09FBFDC
:1012B000E1CF282F30E0C21BD30BF701815020F083
:1012C00041914093F100FACFE20EF31EBB2021F0D2
:1012D0009092E800B12CEBCF8091E80085FDE7CF3C
:1012E0009092E800BB24B394209709F3F3CF5D9864
:1012F00084E680934602101611063CF081E090E0EF
:10130000F6019383828310E000E0C801DF91CF9162
:101310001F910F91FF90EF90DF90CF90BF90AF9013
:101320009F908F90089590E00C94FC08ACECB1E095
:101330002FB7F8947D918D919C9166B52FBFA89B96
:1013400005C06F3F18F47F5F8F4F9F4F22E0660FFD
:10135000771F881F991F2A95D1F708956F927F9262
:101360008F929F92AF92BF92CF92DF92EF92FF92B5
:101370000F931F93CF93DF936D3081F000910F0295
:10138000109110026A30D9F41092120210921102D8
:10139000085F1F4F1093100200930F0281E090E04E
:1013A000DF91CF911F910F91FF90EF90DF90CF9041
:1013B000BF90AF909F908F907F906F900895C62FB1
:1013C000E0901102F0901202D0915806609109014C
:1013D0008D2F0E945A08782E60E08D2F0E945A08A7
:1013E000682E78122FC0672D8D2F0E945A08782EF4
:1013F000570126E0A20EB11CE701480188E0880EE3
:10140000911CCA15DB0509F44FC0680117FF02C023
:10141000D12CC12CC401E1E48E16910414F080E4B7
:1014200090E0C816D90664F4C038D10528F4472DD9
:10143000B601CE010E94A508FFEFCF1ADF0AEACF5E
:101440002196DFCF25E0C29FE0011124C455DF4F74
:101450005701D12C85E0C12CD81629F0CE01019678
:10146000FE01C490EC01912C812C462DC0FC472D2F
:10147000F0E8AF16B10448F4B801680D791D603486
:10148000710518F4C5010E94A508C6942FEF821AB1
:10149000920A88E08816910441F7D394EFEFAE1AD0
:1014A000BE0AF6E0DF12D6CF26E0E20EF11CF09283
:1014B0001202E092110272CFDC0130E8439FC001BA
:1014C0001124A80FB91F505530E53CBD5C985EBD96
:1014D00020D01FD000C080E18EBD1BD01AD019D003
:1014E0005C9A30E73CBD80E80E90302D6111372FBB
:1014F0003C933491349102220EBC8A95A9F709D00D
:1015000008D053954A9501F704D003D030E50DB4C7
:101510003CBD0895AF92BF92CF92DF92EF92FF92BF
:101520000F931F93CF93DF93EC015B016901E42ECE
:10153000842FB9010E94E9080E94D708F82E0E9462
:10154000D108C038D1050CF03EC090E4A916B10412
:101550000CF039C02F2D30E0A9014C0F5D1F14167F
:1015600015060CF030C0E82FF0E0AF014A0D5B1D0E
:10157000141615060CF027C0FE2FEE27EF29F32BCB
:1015800092E0C90ED11CE11C93E001151105A1F0F8
:1015900086958695869590FD880F8F9D9001219F59
:1015A000D00CE11C309FD00CE11C319FE00C209F3F
:1015B000C00CD11C1124E11C85019E016E2DA601D9
:1015C000CF010E94A905DF91CF911F910F91FF904C
:1015D000EF90DF90CF90BF90AF9008951F93CF937F
:1015E000DF93EC01162F5C98FE018591EF010E94BC
:1015F0009F081150C9F75C9ADF91CF911F91089510
:10160000089590E080E008958F929F92AF92BF92EC
:101610000F931F93CF93DF93CDB7DEB7A1970FB68C
:10162000F894DEBF0FBECDBF19A2423008F44AE0E5
:101630008E010F5D1F4F842E912CB12CA12CA50182
:1016400094010E94CE18E62FB901CA01EA3044F590
:10165000E05DD801EE938D01232B242B252B79F708
:1016600090E080E0109769F0FD0101900020E9F71B
:101670003197AF014A1B5B0BBD018CEA96E00E94DB
:101680006A08A1960FB6F894DEBF0FBECDBFDF91FA
:10169000CF911F910F91BF90AF909F908F90089521
:1016A000E95CD7CFFC0101900020E9F73197AF0149
:1016B000481B590BBC018CEA96E00C946A08CF9247
:1016C000DF92EF92FF92CF93DF9397FF1BC06B01E6
:1016D0007C016DE28CEA96E00E94AE09EC0166277F
:1016E0007727CB016C197D098E099F094AE00E947A
:1016F000040B8C0F9D1FDF91CF91FF90EF90DF9037
:10170000CF9008954AE0DF91CF91FF90EF90DF9066
:10171000CF900C94040B0E942A1823E030E040E0A4
:1017200050E00E949C186F5F7F4F8F4F9F4F61303A
:10173000710541F481E080936D0110925F01109278
:10174000510108956230710531F410926D0181E00C
:1017500080935F01F4CF6330710539F410926D010D
:1017600010925F0181E08093510108951F920F92C2
:101770000FB60F9211248F939F938091E100909167
:10178000E100937F9093E10083FF0FC01092E90086
:1017900091E09093EB001092EC0092E39093ED00B7
:1017A0001092550298E09093F00082FF22C093E0DF
:1017B0009093E9009091F200992319F09AE39093A5
:1017C000E80090914602992341F090914602915091
:1017D00090934602911101C05D9A90915402992311
:1017E00041F090915402915090935402911101C094
:1017F000289A84FF18C08091E2008E7E81608093D9
:10180000E2008091E1008F7E8093E10080914702A9
:101810008E7E8061809347029F918F910F900FBEC3
:101820000F901F90189580FFF7CF8091E2008E7E79
:1018300080618093E2008091E1008E7E8093E100E0
:10184000809147028E7E8160E5CF1F920F920FB686
:101850000F921124CF92DF92EF92FF920F931F937A
:101860002F933F934F935F936F937F938F939F93A8
:10187000AF93BF93EF93FF93CF93DF93CDB7DEB7D3
:101880006C97DEBFCDBF1092E9008091E80083FF26
:1018900025C068E0CE0145960E944D0882EF8093F6
:1018A000E8008D8987FF39C09091E80090FFFCCF58
:1018B000982F907609F034C19E894F89588D2F89D1
:1018C000F88C911131C0803861F580914502809388
:1018D000F1001092F1008EEF8093E8006C960FB645
:1018E000F894DEBF0FBECDBFDF91CF91FF91EF9196
:1018F000BF91AF919F918F917F916F915F914F9128
:101900003F912F911F910F91FF90EF90DF90CF901B
:101910000F900FBE0F901F9018959EEF9093E800C8
:10192000C7CF1092F100D5CF913059F48111D3CFA8
:101930004130510581F6809145028D7F80934502AB
:10194000CACF933049F48111C6CF4130510519F601
:10195000809145028260F2CF953041F48091E80099
:1019600080FFFCCF20682093E300B5CF963009F0CC
:10197000A9C00B8D1C8D22E01092E9001092430249
:1019800010924202F2122EC01092410210924002B6
:101990000E941C081F8299E09983FA8291E09E833D
:1019A00090EA98879AEF99872091420230914302FA
:1019B000275F3F4F3C832B838D831092E900109269
:1019C000430210924202109341020093400249E008
:1019D00050E0BE016F5F7F4F80E00E94F6070E94DB
:1019E0001C0879CF10934102009340020E943307F4
:1019F000DC0112960D911C910115110509F451C1DC
:101A0000D801ED91FC910480F581E02DBE016B5E63
:101A10007F4FC8010995009709F03EC1F801008584
:101A20001185EACFF3E0FF120EC08F89882309F4F5
:101A300040C0823061F440E867E082E99AE00E94A9
:101A40005310811148CF81E28093EB0047CF813062
:101A500029F440E86BE086E89AE0F1CF833099F70B
:101A60000E943307DC011296ED90FC908E010F5F0F
:101A70001F4F6801E114F10479F0D701ED91FC9159
:101A80000680F781E02DB801C7010995080F111DE7
:101A9000F701E084F184EECFD8011C92F6010190A9
:101AA0000020E9F73197BF016C197D0940E0C601BC
:101AB000C6CF60E77AE0FB01449150E080E80E94E5
:101AC000F60709CF973009F4BECF983021F481E0B2
:101AD0008093F10000CF993009F0FDCE837009F0BA
:101AE000B2CFE9E9F1E081E031E096E321912223F0
:101AF00071F08093E9003093EB00DF0111972C9196
:101B00002093EC009093ED008F5F873079F78EE79C
:101B10008093EA001092EA008F8980935502DBCE11
:101B20008B8D9C8D1092E90010924302109242021C
:101B30009093410280934002898D811192C08E89D9
:101B40009D89913A49F4813209F07DCF47E050E018
:101B50006BE871E080E0B3CF913209F074CF83324B
:101B600069F48F89988DB0E0A0E08093870190930D
:101B70008801A0938901B0938A01ADCE803269F4C7
:101B80008091E80082FFFCCF67E08BE891E00E9443
:101B90004D088BEF8093E8009ECE823209F09BCEF9
:101BA0008F8980939201EEEFFFE7859194918B3FAF
:101BB0009C4D51F1E0E0F8E080918B0190918C0117
:101BC000A0918D01B0918E01803B9440A105B1059B
:101BD000F1F48091920180FD1AC0EE3F8AE0F8078F
:101BE00089F587E797E791838083809160008093F0
:101BF000440288E19BE00FB6F894A89580936000BA
:101C00000FBE9093600067CEEEEFFAE0D5CF8081F3
:101C100091818737974709F05ECEA8958091600043
:101C20008861809360008091440280936000EE3F61
:101C30002AE0F20789F08091FE0A9091FF0A9183D1
:101C4000808349CE808191818737980751F29093A4
:101C5000FF0A8093FE0AC5CF1092FF0A1092FE0A77
:101C60003ACE0E943307DC0112960D911C910115AA
:101C7000110509F4E8CED801ED91FC910190F081B5
:101C8000E02DBE016B5E7F4FC8010995811123CE07
:101C9000F80100851185EBCF181619060CF41BCE40
:101CA000D2CEF1E0FF12BECE64E77AE004CF1F92FD
:101CB0000F920FB60F921124BF92CF92DF92EF9244
:101CC000FF920F931F932F933F934F935F936F93C5
:101CD0007F938F939F93AF93BF93CF93DF93EF93B4
:101CE000FF93D0919301DF3F31F080910C0181503F
:101CF000E1F080930C01FF91EF91DF91CF91BF91C3
:101D0000AF919F918F917F916F915F914F913F9193
:101D10002F911F910F91FF90EF90DF90CF90BF9088
:101D20000F900FBE0F901F90189584E080930C01C8
:101D3000C0915A06CC2309F438C18091590681110B
:101D40006AC08FE78093CF008093D2001092720018
:101D50008FEF8093930110925A06CDCF242F30E05D
:101D60002E5F3F4F269FC001279F900D369F900DFD
:101D7000112420910A0230910B02FC013296E20FED
:101D8000F31FE491E7FD30C0EC5EE093FA01FC0143
:101D90003396E20FF31FE491F0E0F093F901E09342
:101DA000F80162EEE62E61E0F62E280F391FB12C05
:101DB00000E410E0C12C70E1D72EB416D1F0F90187
:101DC0003496649167FF12C06F776054770BC60139
:101DD0000E94071BD7016D937D937D01060F171F8E
:101DE000B3942F5F3F4FE9CFE0E0CFCF6054770B44
:101DF000F1CF2FE7209FC001219F900D11249093D8
:101E0000F7018093F60140E150E06FE770E082ED6A
:101E100091E00E94351BED2FEF70C1116FC06091F2
:101E2000FA01662391F18D2F0E94FB1A911166C071
:101E30002091F8013091F9014FE7429FC001439F83
:101E4000900D1124F090090242EE51E030E020E0C4
:101E5000F0E08F01015011092F1508F052C0DA018E
:101E60006D917D91AD01D801A21BB30BAF70BB2763
:101E7000AE52BE4FDC91D69FD001D79FB00D11243A
:101E80008A1B9B0B2F5F3F4FE7CF2091D0013091F2
:101E9000D101D901AE5FBE4F4C918091000190916C
:101EA0000101FBE34F9F800D911D1124692F7727BE
:101EB000460F572F511D50930101409300018C9301
:101EC0002F5F3F4F27303105A0F43093D10120938D
:101ED000D001482F4F57550B9A014091F80150916E
:101EE000F901249FC001259F900D349F900D11246E
:101EF000A9CF1092D1011092D001EBCF90E080E0F9
:101F0000A1CF2091F6013091F701820F931F46E097
:101F1000959587954A95E1F78F3F910519F014F053
:101F20008FEF90E097FF02C090E080E0209159068B
:101F30002223F1F0DC01AF57B109622F70E0C1112B
:101F40002CC040E250E0461B570B4A9FC0014B9FFC
:101F5000900D5A9F900D112497FD4F9635E0959561
:101F600087953A95E1F781589F4F21502093590664
:101F7000EE52FE4F80838093CF0080818093D20009
:101F8000809193018F5F809393019091060289174E
:101F900008F4B1CE10929301AECEA69FC001A79FC8
:101FA000900DB69F900D1124D7CFD11134CF409111
:101FB00009026091070270910802CB01019690938B
:101FC000080280930702209104023091050228172D
:101FD000390708F0C3CE81E080935A0680E28093EF
:101FE000590689CE0F920FB68F939F93EF93FF936D
:101FF0008091C7018D5F8D3708F08D578093C701A1
:10200000E8ECF1E080818E4F808391819F4F918336
:1020100082818F4F828383818F4F8383ECECF1E049
:1020200080818F5F808381818F4F818382818F4FF9
:10203000828383818F4F83838FB18F6066991C9BCE
:1020400088278F3681F48091C601981B963068F0FE
:10205000E0E0F8E087E78083818388E18093600097
:10206000F0936000FFCF9093C601FF91EF919F9195
:102070008F910FBE0F9018951F920F920FB60F926F
:1020800011248F939F9383E298E09093990080931B
:10209000980081E08093FD019F918F910F900FBE7A
:1020A0000F901F901895EF92FF920F931F93CF936D
:1020B000DF93F82E192FE62E042F81E0860F880F6C
:1020C0000E94C80783E00E94C807CF2DD12FEC0ED5
:1020D000FD2EF11CCE15DF05B9F007FF13C0FE0180
:1020E00084910E94C807182F80E00E94C8078123AE
:1020F00021968111EFCFDF91CF911F910F91FF902A
:10210000EF9008958881EDCF81E0F5CFEBE5F6E023
:102110001382128288EE93E0A0E0B0E0848395837E
:10212000A683B78383EA91E0918380838FEF9FEF4B
:1021300095878487ECEAF6E01382128285EB91E0C2
:10214000918380831092AB060895789483E084BDD8
:1021500083E085BD81E080936E00E1E8F0E083E0FC
:102160008083E0E881E08083E1E983E08083E0E947
:1021700081E08083E1EC87E08083E3EC81E0808391
:10218000E0EC82E08083E2EC81E08083EAE787E0B4
:1021900080838068808310925502109245021092CD
:1021A00047028091D70081608093D70080EA8093B6
:1021B000D80089B5806189BD89B5826089BD09B4BF
:1021C00000FEFDCF81E090E00E94FC088091D800E5
:1021D0008F7C80618093D8008091E000807F809325
:1021E000E0008091E1008E7E8093E1008DE080939D
:1021F000E200559A209A81EC80937C0081E785B9B2
:1022000087E684B985E38BB98FE38AB9769A6E98AD
:1022100080EF81BB10BA80E58CBDC1E0CDBD85E00B
:102220000E949309599A85E00E9493095C98ECE515
:10223000F6E085910E949F08E636D9F75C9A81E81E
:1022400080936400C093650080E00E94DB060E94DA
:10225000970887FF12C05C9885EA0E949F085C9AE5
:102260002E9858982D988091640080628093640025
:1022700081E083BF889513BEFCCF0E94970882FF40
:1022800037C02D980E94970884788438A1F42D9A3D
:1022900088EC0E94930958986FEF82E090E00E94CA
:1022A0008A1884EF91E00E94FC08589A0E949708CF
:1022B00084788438D9F30E94970884718431A1F41A
:1022C0002D9A88EC0E9493092E9860E082E090E0BD
:1022D0000E948A1884EF91E00E94FC082E9A0E94C6
:1022E000970884718431D9F388EC0E949309C5CF93
:1022F0002D9A82E090E00E948218882309F4F0C0B1
:102300003E9A579A81E090E00E948218182F14702C
:1023100081FF0AC011112E98C1EFDFEF0E949708CC
:1023200086FFE1C02E9A589A82E30E9493090E9488
:1023300097088111F9CF6AE086E696E00E94EE0ADE
:102340002FB7F89483E298E09093990080939800D7
:1023500093E0909390008BE1809391001092950010
:1023600010929400809171008260809371002FBF61
:10237000909309015B9AE4E1F0E08DE49FEF60EF58
:102380007FEF25913591559145912851354909F4B3
:10239000CA01809356029093570225913591559129
:1023A00045912851354909F4BA016093FB017093B6
:1023B000FC015A988BEA0E94F5085A9A8DEC9CEC25
:1023C000ACE4BEE380932B0290932C02A0932D02E9
:1023D000B0932E0210920D0110920E0110920F0177
:1023E000109210018DEC9CECACECBDE380931101DC
:1023F00090931201A0931301B09314011092150150
:1024000010921601109217011092180110921901E2
:1024100010921A0110921B0110921C018CEC97E291
:10242000A0E08093350290933602A093370280E0BB
:1024300090E0A4E9B2E48093130290931402A09375
:102440001502B09316021092170210921802109201
:10245000190210921A0287E0809338021092390212
:1024600081E080933A0210923E0210922302109271
:10247000240210922502109226028AE097EDA3E230
:10248000BCE38093270290932802A0932902B09383
:102490002A0210921B0210921C0210921D0210922E
:1024A0001E0210921F02109220021092210210921E
:1024B00022023CE3C32ED12CFF24F39493E0E92EB7
:1024C00024E0722EF8948091FD018111A7C083B79A
:1024D000816083BF7894889583B78E7F83BFF2CF66
:1024E0003E9857980FCF112329F0C430D10511F42D
:1024F0002E9A589881E00E94DB060C2F0770A02EC0
:10250000AE0163E0559547956A95E1F79A013695D6
:10251000322F222737952795285A3D4F70E060E0EB
:102520004E3F8FEF580761F190E080E0DB01A4554A
:10253000BA4F7901E0E8EE0EF11CFD01E80FF91F3A
:10254000E491F0E04F010A2C02C0880C991C0A9417
:10255000E2F74F3F540739F06901C80ED91EF60162
:10256000B488B828B48AAA2039F06701C80ED91EE9
:10257000F60104890929048B019688359105E9F64D
:102580004F5F5F4F20583F4F685A7F4F603B710548
:1025900039F680E00E94DB068FE00E9493092196C5
:1025A000C931D10509F0BACE112311F0589A2D98EE
:1025B00080E991E00E94FC082D9A81E090E00E9461
:1025C000821880FFB1CE8AE090E00E9482189FEFCF
:1025D000980F9E3F08F0A8CE22E330E0309312021D
:1025E0002093110228E330E03093100220930F0271
:1025F000CAE0D0E0682F8CEA96E00E94AE092196EE
:10260000CE010E948218C031D105A1F780E00E945E
:10261000DB0688EE93E00E94FC0886CE1092FD0156
:102620007894C09158062FE741E050E061E070E0F7
:1026300088ED95E00E945C0A62E082E796E00E94E5
:10264000EE0A2FEF47E051E061E070E088E592E0AC
:102650000E945C0A62E080E796E00E94EE0A81E058
:10266000CC2331F08091FE018F5F8093FE0180E0EA
:10267000809358065B9A8091FE01882389F08150EF
:102680008093FE01809100028093FF010E949708D1
:1026900080930002C0913F02CC23C9F0C13051F1B8
:1026A000C0915806CC0FD0E080913F02813009F4F0
:1026B00055C308F448C3833009F46CC45B9880E0C8
:1026C00090E0892B09F4FECE0E940000F5CE8091A7
:1026D0002F0190913001009731F0019790933001D4
:1026E00080932F01DDCFF0923F02F0920D020E9405
:1026F0008B0BD6CF80912E0181118AC0809102026E
:10270000811186C080E80E94C608882341F1C093E9
:1027100075018091350190913601A0913701B091FA
:1027200038018C019D01075F1F4F2F4F3F4F409194
:1027300031015091320160913301709134010417DD
:102740001507260737075CF40A96A11DB11D809373
:10275000350190933601A0933701B093380180E1A1
:102760000E94C6088823D9F082E080937501809189
:10277000350190913601A0913701B09138018B302D
:102780009105A105B1055CF00A97A109B1098093F3
:10279000350190933601A0933701B093380180E260
:1027A0000E94C608882381F080910C02E092750196
:1027B000811102C0F0920C0280910C02813009F468
:1027C000C1C1815080930C0280E20E94BB0881113C
:1027D0000EC080E40E94BB08811109C080E80E94FD
:1027E000BB08811104C080E10E94BB0881111092D6
:1027F000750180E40E94C608882351F080910C0284
:1028000070927501833009F4A0C18F5F80930C0230
:10281000C0910C02C0933F0180910302813009F402
:10282000E4C108F495C1823009F413C2833009F47D
:1028300063C280910D02882309F447C0F0922E01F3
:10284000F09286011092810110928401109283010E
:102850008091AB06811112C0F092AB06F2E4F093C6
:10286000C000F092C1008FEF8093D1008FE780937A
:10287000CF0005E40093C2008093D20010925A0664
:1028800084E796E090930B0280930A02E5E7F6E076
:102890008491E4E7F6E0949182958F708093090229
:1028A000109208021092070210929301F0920C010C
:1028B000F9E6F09306028CE790E09093050280938E
:1028C00004027092720010920D02C0915806CC0F53
:1028D00080918601882319F1809182016C2F70E02C
:1028E0008E9D600D711D1124809183019091840152
:1028F0000E94071B892B51F48091810190918001E6
:10290000891708F00EC28F5F809381018091830147
:102910009091840101969093840180938301D091DA
:102920003802809139028D13B0C080902B029090B4
:102930002C02A0902D02B0902E02A501940160916E
:102940000D0170910E0180910F01909110010E9474
:102950006C191B012C01A50194016091110170916A
:10296000120180911301909114010E946C194B0186
:102970005C0120E030E0A901C201B1010E94651AAA
:1029800018164CF020E030E0A901C501B4010E9406
:10299000651A181644F5A201910160911B0270910D
:1029A0001C0280911D0290911E020E9400196093EA
:1029B0001B0270931C0280931D0290931E02A501BE
:1029C000940160911F0270912002809121029091E8
:1029D00022020E94001960931F02709320028093CC
:1029E00021029093220220911B0230911C024091FF
:1029F0001D0250911E026091130270911402809189
:102A00001502909116020E940019609313027093B0
:102A10001402809315029093160220911F023091A8
:102A20002002409121025091220260911702709180
:102A300018028091190290911A020E940019609365
:102A40001702709318028093190290931A0220E0E3
:102A500030E0A901C201B1010E946A1A6093230209
:102A600070932402809325029093260220E030E0A8
:102A7000A901C501B4010E946A1A609327027093EC
:102A800028028093290290932A0220E030E04CEB48
:102A900054E460911702709118028091190290918C
:102AA0001A020E94651A181694F4109217021092D6
:102AB00018021092190210921A0210921F0210921C
:102AC00020021092210210922202F0922D01809198
:102AD0002D01882351F0F0923E021092390210929B
:102AE0003C0210923B0210922D0180913E028823FD
:102AF00009F180913A026C2F70E08E9D600D711D7E
:102B0000112480913B0290913C020E94071B892B6B
:102B100041F4809139028D1708F00EC18F5F8093C8
:102B2000390280913B0290913C02019690933C02C5
:102B300080933B0280910E02882309F4B1CDE0928C
:102B40003F02AECDE0920C023FCEF0920C0260CE7E
:102B500088E00E94C608882309F46BCE80910202A7
:102B6000811167CEF0920202809131019091320181
:102B7000A0913301B091340140913501509136015B
:102B80006091370170913801841B950BA60BB70B30
:102B90008093310190933201A0933301B0933401BB
:102BA00010920102C13059F4C0936E011092690174
:102BB00010926C0110926B01F09203023ACEC23077
:102BC00049F4F092600110925B0110925E01109244
:102BD0005D01F2CFC33081F7F092520110924D01A6
:102BE0001092500110924F01E7CFC130A9F48091AB
:102BF0006E01882309F41DCE81E691E00E948305D1
:102C000080916E01811115CE82E080930302D092F3
:102C10000B01C0920A010DCEC23061F480916001B7
:102C2000882309F406CE83E591E00E948305809114
:102C30006001E8CFC33009F0FCCD809152018823B8
:102C400009F4F7CD85E491E00E948305809152015B
:102C5000D9CF8091010281112CC0F09201028091A4
:102C60006D01C13021F0C23089F580915F01882368
:102C700001F1409135015091360160913701709119
:102C80003801440F551F661F771F809131019091C5
:102C90003201A0913301B0913401840F951FA61F1A
:102CA000B71F8093310190933201A0933301B09309
:102CB000340180910A0190910B01181619065CF4F9
:102CC000019790930B0180930A01B3CD809151013C
:102CD000C33069F2EECF8091310190913201A09121
:102CE0003301B0913401892B8A2B8B2B11F4F09294
:102CF0000E02E09203029DCD10926E0110926901C6
:102D00001092600110925B011092520110924D01DD
:102D10000E948B0B1092020210920302F092860125
:102D200088CD10928601909381010E947805F092DF
:102D30000C0210922E01EACD10923E02D09339027D
:102D40000E947805EECE8E0124ED34E840E070E07C
:102D500060E090E080E00E948A0AB0CC8E0122E020
:102D600033E040E070E060E090E080E00E948A0A9A
:102D70005E0193E0A90EB11C850122E033E040E042
:102D800070E060E080E490E00E948A0A8091810116
:102D90008E018E9D000D111D112420917D01309119
:102DA0007E0140917F0160917C0170E080917B0108
:102DB00090E00E948A0A850126ED3CE940E06CE241
:102DC00070E080E790E00E948A0A8E0126ED3CE9DF
:102DD00040E06CE270E08CE590E00E948A0A80910D
:102DE00039028E9D000D111D112440903502509026
:102DF000360260903702609117027091180280913C
:102E0000190290911A020E94DE194B01609113027F
:102E10007091140280911502909116020E94DE19A1
:102E2000CB01462D9201B4010E948A0A809175015E
:102E30008E018E9D000D111D112420917101309184
:102E40007201409173016091700170E080916F0197
:102E500090E00E948A0A809169018E018E9D000D8A
:102E6000111D112420916501309166014091670187
:102E700060916301709164018091610190916201A0
:102E80000E948A0A80915B018E018E9D000D111DAA
:102E900011242091570130915801409159016091BE
:102EA00055017091560180915301909154010E94F7
:102EB0008A0A80914D018E018E9D000D111D1124F5
:102EC0002091490130914A0140914B0160914701A5
:102ED0007091480180914501909146010E948A0AB3
:102EE00080913F018E018E9D000D111D11242091B6
:102EF0003B0130913C0140913D0160913A0170E00D
:102F00008091390190E00E948A0A10921202109278
:102F100011021092100210920F028DEB91E00E94AC
:102F2000520B60913501709136018091370190917B
:102F300038010E945F0BE4E6F0E0F0931202E093A8
:102F4000110288E390E09093100280930F0281ECCD
:102F500091E00E94520B6091310170913201809199
:102F60003301909134010E945F0BE4E6F0E0F093AE
:102F70001202E09311021092100210920F0283ECE1
:102F800091E00E94520B64E670E080E090E00E94C5
:102F90005F0B94CB8E012EE439E240E070E060E0FC
:102FA00090E080E00E948A0A0D5F1F4F2EE439E214
:102FB00040E070E060E080E490E0CDCE8F929F92A0
:102FC000AF92BF92CF92DF92EF92FF92CF93DF93B7
:102FD000EC01688179818A819B8161157105810588
:102FE000910521F464E279ED8BE597E02DE133EF73
:102FF00041E050E00E949C1849015A019B01AC013C
:10300000A7EAB1E40E94BB186B017C01ACEEB4EFFF
:10301000A50194010E94C918C60ED71EE81EF91E0C
:10302000F7FE06C081E0C81AD108E10880E8F80A76
:10303000C882D982EA82FB82C701B6019F77DF91FD
:10304000CF91FF90EF90DF90CF90BF90AF909F9087
:103050008F9008958F929F92AF92BF92CF92DF92FE
:10306000EF92FF9260919401709195018091960189
:1030700090919701611571058105910521F464E234
:1030800079ED8BE597E02DE133EF41E050E00E94D0
:103090009C1849015A019B01AC01A7EAB1E40E94C6
:1030A000BB186B017C01ACEEB4EFA50194010E944A
:1030B000C918C60ED71EE81EF91EF7FE06C081E02D
:1030C000C81AD108E10880E8F80AC0929401D092A9
:1030D0009501E0929601F0929701C701B6019F77A2
:1030E000FF90EF90DF90CF90BF90AF909F908F9028
:1030F0000895609394017093950180939601909345
:1031000097010895F999FECF92BD81BDF89A99274C
:1031100080B50895262FF999FECF92BD81BDF89A0A
:10312000019700B4021639F01FBA20BD0FB6F8940B
:10313000FA9AF99A0FBE0895052E97FB1EF4009493
:103140000E94B31857FD07D00E94CE1807FC03D089
:103150004EF40C94B31850954095309521953F4FFF
:103160004F4F5F4F089590958095709561957F4F73
:103170008F4F9F4F08950E94F018A59F900DB49F08
:10318000900DA49F800D911D11240895B7FF0C94FC
:10319000BB180E94BB18821B930B0895A1E21A2E44
:1031A000AA1BBB1BFD010DC0AA1FBB1FEE1FFF1FEB
:1031B000A217B307E407F50720F0A21BB30BE40B3B
:1031C000F50B661F771F881F991F1A9469F7609582
:1031D0007095809590959B01AC01BD01CF0108953C
:1031E000A29FB001B39FC001A39F700D811D112448
:1031F000911DB29F700D811D1124911D089550588D
:10320000BB27AA270E9417190C942B1A0E941D1A7B
:1032100038F00E94241A20F039F49F3F19F426F464
:103220000C941A1A0EF4E095E7FB0C94141AE92F8B
:103230000E943C1A58F3BA17620773078407950770
:1032400020F079F4A6F50C945E1A0EF4E0950B2E9E
:10325000BA2FA02D0B01B90190010C01CA01A001E8
:103260001124FF27591B99F0593F50F4503E68F143
:103270001A16F040A22F232F342F4427585FF3CF84
:10328000469537952795A795F0405395C9F77EF455
:103290001F16BA0B620B730B840BBAF09150A1F09E
:1032A000FF0FBB1F661F771F881FC2F70EC0BA0F24
:1032B000621F731F841F48F4879577956795B795AC
:1032C000F7959E3F08F0B0CF9395880F08F09927A7
:1032D000EE0F9795879508950E9480190C942B1AEC
:1032E0000E94241A58F00E941D1A40F029F45F3FF2
:1032F00029F00C94141A51110C945F1A0C941A1A98
:103300000E943C1A68F39923B1F3552391F3951B5E
:10331000550BBB27AA2762177307840738F09F5FF6
:103320005F4F220F331F441FAA1FA9F335D00E2E63
:103330003AF0E0E832D091505040E695001CCAF7D0
:103340002BD0FE2F29D0660F771F881FBB1F261793
:1033500037074807AB07B0E809F0BB0B802DBF016A
:10336000FF2793585F4F3AF09E3F510578F00C9439
:10337000141A0C945F1A5F3FE4F3983ED4F38695D9
:1033800077956795B795F7959F5FC9F7880F911D5A
:103390009695879597F90895E1E0660F771F881F46
:1033A000BB1F621773078407BA0720F0621B730BF9
:1033B000840BBA0BEE1F88F7E09508950E94E5197B
:1033C0006894B1110C945F1A08950E94441A88F011
:1033D0009F5798F0B92F9927B751B0F0E1F0660FD9
:1033E000771F881F991F1AF0BA95C9F714C0B1301A
:1033F00091F00E945E1AB1E008950C945E1A672F56
:10340000782F8827B85F39F0B93FCCF38695779548
:103410006795B395D9F73EF4909580957095619531
:103420007F4F8F4F9F4F089597F99F6780E870E017
:1034300060E008959FEF80EC089500240A9416162A
:10344000170618060906089500240A941216130692
:10345000140605060895092E0394000C11F4882320
:1034600052F0BB0F40F4BF2B11F460FF04C06F5F3C
:103470007F4F8F4F9F4F089557FD9058440F551F12
:1034800059F05F3F71F04795880F97FB991F61F0E6
:103490009F3F79F087950895121613061406551F5D
:1034A000F2CF4695F1DF08C0161617061806991FC9
:1034B000F1CF86957105610508940895E894BB27BE
:1034C00066277727CB0197F908950E94D71A08F449
:1034D0008FEF08950E947D1A0C942B1A0E941D1ADA
:1034E00038F00E94241A20F0952311F00C94141A3D
:1034F0000C941A1A11240C945F1A0E943C1A70F34F
:10350000959FC1F3950F50E0551F629FF001729F88
:10351000BB27F00DB11D639FAA27F00DB11DAA1F97
:10352000649F6627B00DA11D661F829F2227B00DE4
:10353000A11D621F739FB00DA11D621F839FA00D6F
:10354000611D221F749F3327A00D611D231F849FBF
:10355000600D211D822F762F6A2F11249F57504016
:103560009AF0F1F088234AF0EE0FFF1FBB1F661F91
:10357000771F881F91505040A9F79E3F510580F05A
:103580000C94141A0C945F1A5F3FE4F3983ED4F342
:10359000869577956795B795F795E7959F5FC1F7FE
:1035A000FE2B880F911D9695879597F90895990F91
:1035B0000008550FAA0BE0E8FEEF16161706E807FD
:1035C000F907C0F012161306E407F50798F0621B1E
:1035D000730B840B950B39F40A2661F0232B242BF3
:1035E000252B21F408950A2609F4A140A6958FEF12
:1035F000811D811D0895991B79E004C0991F9617BC
:1036000008F0961B881F7A95C9F78095089597FB57
:10361000072E16F4009407D077FD09D00E941B1BDB
:1036200007FC05D03EF4909581959F4F08957095C5
:1036300061957F4F0895AA1BBB1B51E107C0AA1FCC
:10364000BB1FA617B70710F0A61BB70B881F991F43
:103650005A95A9F780959095BC01CD010895EE0F7C
:10366000FF1F0590F491E02D0994DC0101C06D93DA
:0C36700041505040E0F70895F894FFCF5F
:10367C00420087DDDC1035BC5C013C000100000021
:10368C00000000003F0000004000000000000000AF
:10369C000000000000000000000000000001014BD1
:1036AC0000640000000A0000003110061E00030038
:1036BC00000000000040002A00589E000500040095
:1036CC000000002C002A00589E0005000400000198
:1036DC000018002A00589E00050004000000000499
:1036EC00270A2400040000000000005004124800C7
:1036FC0008000200000000FFFFFFFF00E1000000D7
:10370C00000000FF0100000000C1808100000000EB
:10371C000000004707100968075D07AE076C078AB1
:10372C000700000000AE096A08010B000B4265742B
:06373C00202400440000FF
:00000001FF
