:100000000C9408190C9430190C9430190C94301974
:100010000C9430190C9430190C9430190C9430193C
:100020000C9430190C9430190C94D2200C9441216A
:100030000C9430190C9430190C9430190C9430191C
:100040000C9430190C9430190C9430190C9430190C
:100050000C9430190C9430190C9430190C947323AF
:100060000C9430190C9430190C9430190C943019EC
:100070000C9430190C9430190C9430190C943019DC
:100080000C9458250C9430190C9430190C94301998
:100090000C9430190C9430190C9430190C943019BC
:1000A0000C9430190C94BD230C94301900000000FE
:1000B000003E5B4F5B3E3E6B4F6B3E1C3E7C3E1CEE
:1000C000183C7E3C181C577D571C1C5E7F5E1C0034
:1000D000183C1800FFE7C3E7FF0018241800FFE7EB
:1000E000DBE7FF30483A060E2629792926407F05AE
:1000F0000507407F05253F5A3CE73C5A7F3E1C1CC4
:1001000008081C1C3E7F14227F22145F5F005F5F83
:1001100006097F017F006689956A6060606060946F
:10012000A2FFA29408047E040810207E2010080874
:100130002A1C08081C2A08081E101010100C1E0C7F
:100140001E0C30383E3830060E3E0E060000000011
:100150000000005F00000007000700147F147F14F8
:10016000242A7F2A1223130864623649562050003D
:1001700008070300001C2241000041221C002A1C29
:100180007F1C2A08083E0808008070300008080814
:100190000808000060600020100804023E51494534
:1001A0003E00427F400072494949462141494D3352
:1001B0001814127F1027454545393C4A49493141B9
:1001C000211109073649494936464949291E000087
:1001D00014000000403400000008142241141414DC
:1001E0001414004122140802015909063E415D59C8
:1001F0004E7C1211127C7F494949363E41414122D1
:100200007F4141413E7F494949417F090909013EFA
:10021000414151737F0808087F00417F4100204021
:10022000413F017F081422417F404040407F021C33
:10023000027F7F0408107F3E4141413E7F0909094A
:10024000063E4151215E7F09192946264949493216
:1002500003017F01033F4040403F1F2040201F3FDC
:100260004038403F63140814630304780403615961
:10027000494D43007F4141410204081020004141A3
:10028000417F04020102044040404040000307084F
:100290000020545478407F2844443838444444284B
:1002A000384444287F385454541800087E090218F2
:1002B000A4A49C787F0804047800447D400020407A
:1002C000403D007F1028440000417F40007C0478BE
:1002D00004787C080404783844444438FC18242406
:1002E0001818242418FC7C08040408485454542486
:1002F00004043F44243C4040207C1C2040201C3C03
:100300004030403C44281028444C9090907C4464F9
:10031000544C44000836410000007700000041368C
:10032000080002010204023C2623263C1EA1A16112
:10033000123A4040207A3854545559215555794144
:100340002154547841215554784020545579400C1B
:100350001E527212395555555939545454593955FC
:100360005454580000457C410002457D420001453F
:100370007C40F0292429F0F0282528F07C545545AC
:10038000002054547C547C0A097F4932494949323F
:100390003248484832324A4848303A4141217A3A54
:1003A00042402078009DA0A07D39444444393D401E
:1003B00040403D3C24FF2424487E4943662B2FFCCB
:1003C0002F2BFF0929F620C0887E09032054547979
:1003D000410000447D413048484A32384040227A4A
:1003E000007A0A0A727D0D19317D2629292F2826C7
:1003F0002929292630484D402038080808080808CF
:100400000808382F10C8ACBA2F102834FA00007B27
:10041000000008142A142222142A1408950022002D
:1004200095AA005500AAAA55AA55AA000000FF00E7
:10043000101010FF00141414FF001010FF00FF1024
:1004400010F010F0141414FC001414F700FF000056
:10045000FF00FF1414F404FC141417101F10101FD5
:10046000101F1414141F00101010F0000000001FC3
:10047000101010101F10101010F010000000FF10CE
:100480001010101010101010FF10000000FF1400CA
:1004900000FF00FF00001F10170000FC04F41414FC
:1004A0001710171414F404F40000FF00F7141414C8
:1004B00014141414F700F7141414171410101F1048
:1004C0001F141414F4141010F010F000001F101F6B
:1004D0000000001F14000000FC140000F010F010D9
:1004E00010FF10FF141414FF141010101F00000050
:1004F00000F010FFFFFFFFFFF0F0F0F0F0FFFFFF54
:100500000000000000FFFF0F0F0F0F0F38444438AA
:10051000447C2A2A3E147E02020606027E027E02E5
:1005200063554941633844443C04407E201E200604
:10053000027E020299A5E7A5991C2A492A1C4C7241
:1005400001724C304A4D4D303048784830BC625AC8
:10055000463D3E494949007E0101017E2A2A2A2A58
:100560002A44445F444440514A444040444A514034
:100570000000FF0103E080FF000008086B6B0836F5
:1005800012362436060F090F060000181800000066
:100590001010003040FF0101001F01011E00191D55
:1005A0001712003C3C3C3C0000000000F0F89C8E20
:1005B0008783878E9CF8F00000FEFF03030303038C
:1005C000070EFCF80000FEFF0303030303070EFC05
:1005D000F80000FFFF00000000000000FFFF000027
:1005E000FEFF8383838383C7EE7C380000F8FC0E14
:1005F00007030303070EFCF800003F7FE0C0808084
:10060000C0E07F3FFFFF01010101010101FFFF0089
:1006100000FFFF0C0C0C0C1C3E77E3C100007FFFB9
:10062000C0C0C0C0C0E0703F1F00001F3F70E0C0EE
:10063000C0C0E0703F1F00007FFFC1C1C1C1C1E366
:10064000773E1C00001F3F70E0C0C0C0E0703F1F3D
:10065000000000000001FFFF010000008D14A1C890
:1006600081CFD9F102AFC0A0D921D5F081FFA80078
:10067000A800A83F77608000000000000000800014
:10068000000000000000800000000000000080006A
:1006900000000000000080000000000000007E005C
:1006A000613B333B434380000000000000008000BA
:1006B00000000000000080007F713C262A37800582
:1006C0006A564952483D80075B472F483F3C8006A9
:1006D0005546315058440F1E18391D51573D148E40
:1006E00014472544613D16AF2E3B2737634C1768EE
:1006F0002D3727396A49186F263A2E376A4418640D
:100700001B4032346A401739154037317435152C87
:1007100006503A2A74341226084D3C2676301012C0
:10072000035621425C3E0E020A3B27535A370E0005
:100730001E3D2A3E51521400213E32324E4D0E00D3
:100740001B38403B424D80085334504939418006A4
:100750005A374943424580014F42413C47440D01CD
:10076000844E38384D4611068F67392F484B140296
:100770008E5A443148462100863E3E4D3D44140089
:10078000312D2F463E4480055A464F5031400B04D0
:100790003C3E5445303C100235475345424512011A
:1007A000965D6233295117089BF1205A1D57181C7A
:1007B0008D6C2E49394E1827084D343F5446193256
:1007C0001B3E204E5A41182F2B381A40614B1720E0
:1007D0002B3E0E425B50140C1E44084E584C100623
:1007E000183D164E5E420F030A45165F503F0D0539
:1007F0002C4E33413948040C325549424245070CCE
:1008000039573F3247370A0E364F4146403A1409AE
:1008100044533F3D3C3E0A003E3C48443C3A161996
:10082000865F325426581C158D642A612551200696
:1008300093535946264E21059455564B294820027C
:10084000965452512E411E029A62584D1E4C1C0560
:100850009C7A434E1D521B13946E413B36501B2B0A
:1008600005522C4650471A2418402445653E18224C
:10087000253B1A40614618292B3A113E5C51171F3F
:100880002F360A415D531512323207455D52110F62
:10089000362A0A445D50130228231D485E42140084
:1008A00028321151574780066A2B31413139802156
:1008B0007440373C3E3F8008793A1E37524C0C0E4C
:1008C000004E235A4C3E2B140056284950452919F6
:1008D000005A24445C3F091385612E355E4008139D
:1008E00086662043603806128861312D702C05061B
:1008F000947D1942632C05008B641B4D5933050010
:10090000154C2D314D4C80002544313B3E4C0500AB
:10091000183B3B3F453F4A00404041314141800048
:100920000000000000008000000000000000430004
:10093000143B373A3B486700182F3B3D3A4C1B00AD
:1009400018343D4338457000274A284A383C800017
:100950000000000000002200273A483E3E4180008F
:100960000000000000008000000000000000800087
:100970000000000000007E00404040404040000079
:1009800035423F404040180036363636363D00008E
:10099000303934413A3602003A473A393732350075
:1009A00038403C3D3A3B50002C38333E343F000049
:1009B0002E443F3F442E80000000000000008000D5
:1009C0000000000000008000000000000000800027
:1009D0000000000000008000000000000000800017
:1009E0000000000000008000000000000000800007
:1009F000000000000000230029262C41454400008F
:100A000016323D45443380000000000000008000A5
:100A10000000000000008000000000000000000056
:100A2000003F403F40408000000000000000624264
:100A30000A0414443F630A04174041630E0D0F3D3E
:100A4000475B3B101337475D3B0D1731495F190C6E
:100A50000A4047583B0C0F39495A3B0C15324A5D46
:100A6000460B1139465D3B0B1436475E3B0B0C437E
:100A7000415D460A1336495C3B0B0D40445B3B0A23
:100A800014344A5C3B0B1239465D0E070842475747
:100A90003B0B1338465D3B060F39495B3B08193168
:100AA00047613B070B463F5C3B091438465E3B08F9
:100AB0001832495D3B0616314C5C46060B424559DF
:100AC00046061733485E3B071339465C3B0616342F
:100AD000495C46061736465F46050F41425B0E05E8
:100AE0001339485B46051934485E46051D31485F99
:100AF000460207444B5346051938465C46020C45EE
:100B0000455646041B36465D4602084E3F5746038F
:100B1000183F475746031B3C455A46021A3C485863
:100B200046021F40455746021D46425846021B4793
:100B3000435846011A494653460122494852460144
:100B4000204C47504601294C4754460016504A4A0B
:100B50004601224E425146012449415646012B444A
:100B6000475346001259424A030919574E554E132E
:100B70002D45575F4E1426475A570A122343625099
:100B80000A10244162504E0E24455E534E0F2A46F1
:100B9000585B0A0C2A445B5A4E0A2B405E594E0A97
:100BA00028435E560A0B264858590A082B445A5BBC
:100BB0000A0824455E540A072244614F0A0725416A
:100BC00063504E082C45585D0A072C45585E0A06AE
:100BD00027445D560A0628435E560A0627455C5799
:100BE0000A042D435A5D0A052C415D5A0A04234428
:100BF00061504E04264062524E0428445C580A0458
:100C00002A48565D0A0327465A594E031F44634B30
:100C10000A031D46614B0A03284759590A0229460F
:100C20005A5A0A0226465B560A021C47604B0A01C2
:100C300020475E500A0123475D530A012849565B4D
:100C40000A012848585A0A011F4C58540A001C47E8
:100C5000604C0A00224C55574E001D4E55530A0059
:100C60002947535D460021444E5046001F524357CA
:100C70004600264C425B46001F4E475146002C481A
:100C800044574600254C4556460022454E4E4600E8
:100C90002A4C415847002748485308071743475FE5
:100CA000380A1646426238091A3E486012091A4349
:100CB0004364380A1D3F4565380A1C424166380ABC
:100CC0001D40436638081B42426538081B42436496
:100CD00038081846416438071743446238071A3FFA
:100CE000466238071943436438061842446238069E
:100CF0001844436238071944426438051845426372
:100D000038051A44416538051A40476138051D3DCC
:100D1000476338041D3F456438051E3E456512048F
:100D20001A3F48613803174642633803154A3E6448
:100D30001203164A3D6538021943426438021A42CA
:100D400042642502164A3B66380118444264380161
:100D50001A41446338021C40446538011845416417
:100D600038011A41446438011943446238001F3E77
:100D7000456538001B41456338001746406425002F
:100D80001A43436338001C3D496138001741485EEF
:100D90000800154A3F5F2F001F3D3E5625001B3EB1
:100DA000455213002B39414C0B00404040407E001F
:100DB0004040404080000000000080000000000033
:100DC00080000000000006010E48524F38081A410A
:100DD0004562380A18454164380A174641633808A5
:100DE000194441653809194341653809174542637B
:100DF000380A19414562380919453F65380A1C41CE
:100E0000426638091A453E6738091B42426538096F
:100E10001B41446425091C41436638081C3F456456
:100E200038071B40456338071743466138061746A5
:100E3000416338061A424264380519434264380453
:100E40001743456138041548416238051B3E476227
:100E500038041941456238041E3C47643804203A7E
:100E600048640A0D1A3E41650A0E16433E650A0F94
:100E700016443E640A0D154340630A0C16433E6552
:100E80000A0C184041640A0B174042620A0B1640D4
:100E900043620A0B16423F640A0A164141630A097B
:100EA00019403F660A0A18413F650A0A15463C6523
:100EB0000A0715433E650A0813473D630A08193EB1
:100EC00043630A06183F42630A0614453D640A0656
:100ED00015443D650A0515453D640A0519403F6501
:100EE0000A0515434062000414453D640A04164196
:100EF00040630A0415433F63020E18324C5C3B0FFB
:100F00001039485B3B111C2A4B61190E1038495BA4
:100F10003B0F1B2E47613B0D0B404659190E1732F4
:100F2000485F3B0A0E3D475A3B0A16314B5D3B0B6F
:100F300015324A5D3B0B1732475F3B0A0C40455A5E
:100F40003B0B1E284B613B0814334C5B3B081731AD
:100F50004B5D3B081339455E3B070F3D465B3B0845
:100F600017304C5C3B070B40475819050C3B4D565E
:100F70003B070E3D49583B080C43425B0E06113BB4
:100F8000445D3B051138495A3B060D3E48583B0726
:100F90001439475B3B030B4248573B0310394A5A0D
:100FA0003B03084546563B03084C40573B03103E65
:100FB00049563B0314374B5852020A4549535202D3
:100FC000064848523B02074D4452510208504152D4
:100FD000510109474A5152010E4149550201005B36
:100FE000404D5102164A4453520214454B4E0301E0
:100FF000114A42525100005654365201194F4F4780
:101000005101224A4B4F51013748475952000F575F
:10101000464B51001256434E5100244F4952510144
:1010200031454B53520107643C430A0C2B3D625639
:101030000A102D405E590A0F2F425A5E0A0D2542B2
:1010400062510A0E2342634F0A0E23465D530A0C77
:1010500030425A5F0A0A2C435B5C0A092B406057F6
:101060000A08244262500A082B425D590A082D439F
:101070005B5C0A082A415F574E0725435F530A0706
:1010800023455F520A062A415F570A062A435D58E4
:101090000A062A435C590A0624445F530A042A417B
:1010A0005E580A042B425D590A042D425C5C0A0416
:1010B0002B415F580A0324445F530A0328435D57BA
:1010C0000A032947585B0A032D44595E0A03234546
:1010D0005F510A0326435F530A022A445A5A0A02FE
:1010E0002D45585E0A022947585B0A011C4B5B4F8D
:1010F0000A01244360510A012F415B5D0A012F4818
:1011000052630A012948555D0A012848565B0A00C6
:10111000234B55570A002A4A535D0A002C47545E58
:1011200003001F4B4C5003001F5245510A001E4E36
:10113000435751002A4B45545100354745545200FE
:10114000314A455651002950415851002348494FD2
:1011500052002A494151080510444F563809164695
:101160004163380A17444362380A19454065380A12
:1011700019434363380A1A41456238091D3E4663E4
:1011800038081C3E476238081C3F456438091C413A
:10119000436538081C3F45633807184640653807E3
:1011A00017493D6638061A3F4761380618434363BE
:1011B00038071940466125051A424364380516462A
:1011C000416338051745436225051A4145633804D4
:1011D0001D40426638041C42416638041E3E466487
:1011E00038041847406438041B40456238041B41EA
:1011F000446438021B3F456338031A414563380293
:10120000164642623802174246603801174540646C
:1012100038011C404266380115493E6338011C3EC6
:10122000466338011D3C496212001845436238008C
:101230001E40436638001943456112001A3F495F5A
:1012400038001E3A4B6038001B3F466208001A3CCB
:101250004F5B2500223A4454800028433C568000CE
:10126000184042507E004040404019004033404307
:101270007E004040404080000000000080000000F0
:10128000000080000000000038051A424562380A5C
:101290001A424463380B19424463380A18444263C3
:1012A000380919424364380917434462380919421E
:1012B000456238091B42426538091B4241661209E2
:1012C0001B40456338091A40466238091E3B486393
:1012D00038091D41436538071E3D456538061A42E9
:1012E000436438071A43426438071A424264380696
:1012F0001A43416538061A4440663805184147606C
:1013000038041743446238051844426338041844CB
:101310004363380317483E65380419454065000AA1
:10132000164242620A1015443E640A0F144340629A
:101330000A0D154241620A0C1B3B44630A0C16411C
:1013400040630A0D164241620A0A17413F650A0AC4
:1013500016423E650A0A1A3E40660A0A17433D6570
:101360000A0A174040640A0813473C640A071445F8
:101370003E630A081A3C44630A0815443F630A079F
:1013800014453D640A0615443D640A0615433F634F
:101390000A0617433D650A05184040640A051346CE
:1013A0003D640A04174140640A04193D43630A037B
:1013B000193C456200060C45415D3B0D0F384A5A09
:1013C0003B0F183048603B090F38495B3B0E163322
:1013D0004A5D3B0911364A5B3B0C17314B5D3B0BB9
:1013E0001438455F3B091336495C3B0B1237485CA8
:1013F0003B0910374C593B0A15324C5C3B081137FE
:101400004A5B0E090D41445C3B0915324C5B3B07BE
:101410001634475F0E07143151583B0714344A5CA9
:101420000E07103D455C19060C3B4F543B05123925
:10143000465D0E0611374B5A0E060A3E4C553B03CD
:10144000153051593B0515354A5C0E061B31466176
:101450003B06114144590E04133B445D0E03093F02
:101460004E520E04113E445B0E041833495D0E05C6
:10147000143D425D0E0113344E590E030C4B3E5A7F
:101480000E03163D47590302104448555D03203FA3
:10149000435A5D020F4C3E5803020A4D494E5D010E
:1014A000154245555E01085044500303273D465AF6
:1014B0005E01274448575E01224C49535E002E4787
:1014C0004A575E01254948565E012D4847585D013F
:1014D0002A4945585E001D4D44545D000B50474B52
:1014E0005E00224B4D51030A253F654F0A112642EB
:1014F0005F540A0E2A435D580A0D2948585B0A0FAB
:1015000028445C570A0D26435E550A0C2641625258
:101510004E0A294060560A0B2C44595C0A0A28429C
:101520005F554E06284061540A0829425E570A0852
:101530002C445A5D4E062D415D5B4E0828425F5695
:101540000A06243E664D0A06284162530A062B45C8
:101550005A5B0A062B425C5A0A05234460514E0529
:1015600027435E564E0428435E560A052C445A5CB7
:101570000A0325445F530A0329445C590A032442A1
:1015800062514E0326475A580A032E435A5D0A03F6
:101590002C445A5C0A022440644F0A022143634DE2
:1015A0000A022B435C5A0A012946595A0A012A4564
:1015B0005A590A012D425A5D0A011E485D4F4E01DB
:1015C0002B47575D0A01254D525C0A001E495D4FAD
:1015D0004E001E4D55530A001C5251550300234D19
:1015E00054565E0025494E565E00284C485A03006A
:1015F000284153535E002A4547535E000F4753422C
:101600005E00304A465B5E00104C543E5E001F4553
:101610004C4E000203524F4A3808184345613809BE
:101620001942446238091944426438081546436136
:1016300038091843446238091A42446338091A4386
:10164000426438081A42436438091B44406625083E
:101650001A473D6838081C40446438071B404564FD
:101660001207184344623807194343633806174585
:10167000416438051A3E486138051845416438050B
:101680001943436338061944426338041D3E4465D8
:1016900038041A41446338041E3A4B6138041D3E35
:1016A000466438041B3E486138041E3F43663803D5
:1016B000184541643803184640643802144C3B66B0
:1016C00038021745426338011944416438011B3D13
:1016D00048611201184441633801194342643801DA
:1016E00017493D6512011A424562380019444264A7
:1016F00038001D40426738001D3D486238001F3CDD
:10170000466438001E3D4961380019444462250092
:10171000204141543800233D3B5738001F42385385
:101720000C00204440407E002646264680000000F3
:101730000000800000000000800000000000800029
:1017400000000000080421354F6138081F3B476442
:10175000380A1B414265250A19473F66380A1A4371
:101760004165380A18444264380A1844426438080B
:101770001A414365380919424264380817434660E4
:10178000380916483E65380918473E6638091B4334
:10179000416638071A43426438071A4244633808DE
:1017A0001C40456438071D3F456438061B424365AD
:1017B0003806194541652505174544613805174523
:1017C000416338051942436425041A4144643804CE
:1017D0001742466038041841466109071146445DC6
:1017E0000A0E154141620A0D183E42630A0F1B3B67
:1017F00044640A0C15443F640A0C13473D630A0C09
:1018000015443D640A0C173F42620A0B18404164BC
:101810000A0B17433E650A0A154240630A0917403E
:1018200040630A0918403F650A091A3D42650A09E2
:1018300016433E640A0713443F620A0715443E6498
:101840000A0616433E640A07183F41640A06164218
:1018500041630A05144340620A0516423E650A05C3
:1018600018413E650A041A3E41650A0414453E6368
:101870000A04144340628000000000006118460022
:10188000030000035800032800041000014D070165
:101890004D08014D05014E04014C03014D05014D5C
:1018A00006014D02014D04014D02014D02014D02A0
:1018B000014D03014D03014D02014D04014D020094
:1018C0004D03004E03014E03011C0A03605A02152A
:1018D0005903165702153A02144002163701152C07
:1018E00001152401162401152302142002161A01E1
:1018F000161201141302161B01160E01140B011708
:101900000E00160E01140D02170F011609015F09D2
:1019100002170A0115060013050116080015070035
:101920001305021507011604011105021705011719
:1019300005001501011306016B0B010E05011102D3
:10194000011501013E01013E01013E0101150000AA
:101950003E00013E01011500013E00011500013E5F
:1019600000013E00011500011500011206012C1DA9
:10197000014E1D014B16014C15014D0F014E0E017C
:101980004F0F014D0C014B0B004C0A014E0A014C4C
:101990000A014E07014D0A014C06014D09014D0592
:1019A000014C08014D05004D05014B09011952027A
:1019B000184F02173F04185A021748081847021810
:1019C0002B04173303183703172804183102171E86
:1019D00004182501181903181902181E03171303F8
:1019E000181C01170E02191301180D021814011802
:1019F0001002180A02181201170802190D01170720
:101A000002180B01180901180701180C0118080227
:101A1000190A01170502190801180701180502180B
:101A20000901180603190701180401190501180511
:101A300001190402180902190301460401180201E0
:101A4000190301180302460401460401430201453B
:101A500003011702014603011802021902011802CC
:101A600001180101190201160101450201170101C6
:101A70004501011802021A01014501014301011942
:101A80000100180002450101420101450101180150
:101A9000011700014601011700024601011501026C
:101AA0004701014601014B03014B04010C03024BAA
:101AB00004015201014A02014902014C01014A019B
:101AC000013001014A01005300014A01014A0202AA
:101AD0001B00014A01013000014801005C000219AD
:101AE0000001170002170001430001180001170050
:101AF000024300024300021700010E02014C1201D2
:101B00004C16014D0F014D0B014D0A014D0C024DBC
:101B10000F014D08014D07014E07014D05004D0411
:101B2000014D06014E07014D03004D04014D040116
:101B30004D0501148D0215DA0315C70215A1021512
:101B40009902156C021578021562021559011548A3
:101B500001153D02155202153601153A02152A01EA
:101B6000162E01142902152301152601151C021534
:101B70002301161F01141602151C02161501151556
:101B8000021517011614011514021510011617017C
:101B90001510021419021515011511011410021562
:101BA0000E01150E02150D02150C01150B0114097D
:101BB00002160B0115080115090215080115090285
:101BC000140C021208011507013E05011505021546
:101BD00004023E02013E02011502023E0302150606
:101BE000044C1D012B19012A0F014E0D01500C014F
:101BF000110C014B0B014C0A025110024D08014C13
:101C000004014D07014D04014D05014D04014D0531
:101C100001201702187001174E02175302177B0597
:101C2000175A03176103174103185202173F05188B
:101C30004702173303183E02183B02172802182FD9
:101C400001172603182E011721021822011823025A
:101C5000172002182301171A02181D011714021861
:101C60001601171D02181502182101171002181469
:101C7000011710021812011717021810011812018B
:101C8000180B01180F01170C02181101170C01187D
:101C90000B01180C01170A01180D01170802440C5A
:101CA00001180801180901190A011708011809018A
:101CB00041060218070142070143070119070118ED
:101CC0000601190701170501180601170602190573
:101CD0000118060218040144040118030245050115
:101CE00017020244040142020118030118030118FB
:101CF00002014403014202014404011702011702D8
:101D000001170201170201450200440201450301C7
:101D100018010245020119020118010144010144A0
:101D20000101450201570102190301170101440293
:101D300001460100170102190201580102180201AF
:101D4000170101190201460401460502430101433E
:101D50000101430001430002420002170002420059
:101D6000024300014300014300014401022919011B
:101D70004C25014D1E014C15014D0F014D0D014C1F
:101D80000D014C0B014C0F014F0B014B0B004E0989
:101D9000014C07004C07014D06014D07014C0600A0
:101DA0004D05004D0501156402157E01156A0215E9
:101DB0006A02166701154202155002164301153BCF
:101DC00002153902163101152C01152702163101B1
:101DD000161F01142B01142401152401151B0115D4
:101DE0001901113E01142901131E01141F01151EB2
:101DF00001143002132202151B01141401131701E0
:101E0000490C014D05014D05014D04014D03014CE7
:101E100007011A5A02175A07175403174F07175981
:101E200004174E05172D04173603172D091736030F
:101E3000172005182002442302171A02171303174C
:101E400012031710031718024C34012D2F014A29D1
:101E5000012B22024C240111190114180149190106
:101E60004912014D11014E0C014F0C014D09004E5C
:101E700009004D09004C0A01269902258701266CAC
:101E800001266401256E01276201253B00253700EC
:101E9000273800263B00274E01252400262801254F
:101EA00020002613002611002511002920002932C8
:101EB00001271F01261401261100270D00240A0105
:101EC000250B01260C02250C0023060026070050D6
:101ED00005004C03014E05014D0200212D03239EF8
:101EE00001226C01226701225C0122570123570164
:101EF000227201225A012249012268022459012238
:101F00003501224701223601592801233901254391
:101F100001262701233201243101251F0124260136
:101F2000241C01231B002417012508006E05014E07
:101F300006014E03014B03014E04014C02014B0408
:101F400001154902156F03155902155E0215450268
:101F5000153401163401152B02153702162E011502
:101F60002301142501671F011524011518011517F8
:101F700001141A010F340111410113230112180138
:101F80001217011416011211011414011416011371
:101F90000F015210024D06014E06014D04014D0382
:101FA000004D0301194802435C03174D03175A04FF
:101FB000174D031746036E3303173203172F03170A
:101FC0003602422F03173203422803172402172137
:101FD00003172B03172C022C42014842016E2702E3
:101FE0001630012E2D034629012E21012E16024DF9
:101FF0000F014D0B014D07014E07014C08014D0724
:10200000014E0B0226B802269F012690012652009F
:10201000254F00264A01254600264600253E012779
:102020004F012642012621002618002615002616FB
:1020300001261B01251B00283D012B4101291C0104
:10204000282F012A12012712002814012814012127
:102050000B002A0902250C014E05014B04014E0517
:10206000004D0401224A02239A01235E01227E02CE
:10207000227102224F01235401224801223F0122F2
:102080003B0122430122420123350122400159290B
:1020900001233301245001253701252401242B017C
:1020A000251E01232701241D01231A01260F0127C4
:1020B00007002B03001E03014E03014C03014E02D7
:1020C000004B0501158F0215BE033DB40415B30383
:1020D000159103158404156702155E021552031548
:1020E0004002154802153402153A01152D0115322A
:1020F00002153502123901134201133F021347033F
:102100001347021429011428011428011430011462
:1021100024024E0D014C09014D06014D0A014D07E7
:1021200001182104177403437002166004175C023F
:10213000174C05175103175003173A03456702164A
:102140004603172F03172703172C03172003171F06
:1021500003421D031725024D48016F3E0112320252
:102160001435022D2A01492B012D28031127024D78
:1021700011014E0B014C0B014E0D014D08014D0A92
:1021800001279A0226BD015F6D01266E01266101BD
:10219000256201266201264401265301275C0125A0
:1021A0002A00262700252101262A0126210126169C
:1021B000012621012A3F012721002925012721018C
:1021C000271801271501271501291301240C0029BF
:1021D00008000D04015004004C02014D030122616E
:1021E00002229901228001226001227A02226E01DC
:1021F000235101225601225601233D012447012388
:102200003701222D01222F01222E01253B012644D8
:1022100001234A01552E01232902564502222D028F
:10222000221E01232D0121FF1F2BFF112D980E2CA3
:102230002C052D18064E0C044C0F062D97022D93DD
:10224000012D6C022D48012D3F022D35022C2C0250
:102250002C2A022C26022D28012D21012D1B022CB7
:102260001E022C1A022C2F012C46012C28012C1B9B
:10227000022D26022D12012B14022A1001290D0114
:10228000260F015D21012915012307004F06004C8F
:1022900003014D05014D030009310426F602269382
:1022A00001268B01256A01267B01256C01275D0132
:1022B000263C002640012650012655015F320125AB
:1022C0004F01295401296601252D00283201274894
:1022D000012734012821002943012B3301271B0149
:1022E0002A2601281601260B002907014E0C014C55
:1022F0000A014D05014D0401079F0222D70222B6B3
:102300000258A10222A502228C01237F0124700120
:10231000236C01236F01235D0124660223710222D5
:102320004801224302225C02255A01264501243F2E
:1023300001252F01252E0124320124280124290101
:10234000242501221E014F0B004D05004B03014EB9
:102350000501480B0326B50225A502269B01255A37
:1023600001265701254D00265101255C012541011B
:10237000265201253800273B002523002620015F37
:102380002B01284101292E002A350127310129146A
:1023900001282901271B01291D01271701260901F1
:1023A0002807014F09014C05014C05014D0401149A
:1023B0006302157302157802155A02155701155359
:1023C00001154B02155902154E01153801654701DB
:1023D000142E02153E02152901152B011433011587
:1023E0003A01133502142B01152701142702153168
:1023F00002153001151A01130F014D04014D03019F
:102400004C03014A0601185D02178C041792071746
:102410007504176F07176A041758051751044661AA
:1024200003434904423C04172B03172803172A04CB
:102430001742022C53016F4F01122D022D39024613
:1024400031012D2202182A01161F0217220116231C
:1024500002171D034927012C10014C09014D0801E9
:1024600009640222C60123A201228A01228A0122D2
:10247000840223990123710123730124A902247585
:1024800001235001235E01235101244701267D01D0
:10249000265901234801233E01224C0155340122D3
:1024A0005202565202212302510C004F07004C05E4
:1024B000004E05014D05014C070126AE022598018D
:1024C000257C0125830126760125720126560125EA
:1024D0003600263E00253C01264E01263E012633CD
:1024E00001254801274C01282D002629012733000A
:1024F000281E01252801261C01261501230F002C6A
:102500000A012106015005014C05014E0601491240
:1025100002229602229D01226901236A012362019F
:102520002356012256012351012350012248012242
:102530005E01223A01223B01247602265F012453E8
:1025400001244F0224440123420123390121340193
:10255000222502223101241502500C014D09014BA4
:1025600008014D0A014C210226C20225A801268439
:1025700001255D01267301267B01255F012790015E
:10258000243F00264901253C01264E0126560127FD
:102590003801245101283701263001252001272A3E
:1025A00001282B01292602230C012607014B0401D7
:1025B0004E03004D03014D04010D2B042CE1022DAF
:1025C000A0012D77022D55022C57012C59022C46C3
:1025D000022C39022C27022D1D022D19022D160264
:1025E0002D19020E25012D20012C1A022C1C022C63
:1025F00014012B0F012B08012A1401292A002A207B
:1026000000281400250C002105011605010A74029A
:1026100025B102268E01267C01266F012552002657
:102620005E01254601265601264D0126340126412C
:1026300001262D00251E01285601292801262800E3
:10264000282D0127220125200128160125250126F4
:102650000D002407005106007105014E07014B0BC8
:10266000010A330223B20223B001237F0123820136
:10267000227501226D01227301228401236B012343
:102680005C01237902235A01234701257502245551
:1026900001234701224A01213E0122320122300159
:1026A000222F012707011E07015004004C05010BD2
:1026B000280225A302257D01268501265A01254DE4
:1026C00000275D01253500265C01254801264A01C9
:1026D0002649012623002530002A380128520129E5
:1026E0002401282F01282F012A3101241A0029173B
:1026F00000261300250E01281602250D00260601CE
:102700004B05014A2D0214AF0314CD0314BB03156E
:10271000E304159A0315A002157903157B03678559
:10272000021554021550021549021459021169028A
:10273000145202154301143202153D0115300115E2
:1027400029021528014D06014E04014D04014C04D7
:10275000014D0501183402178D0417A703177404DF
:10276000176603176303175D0417510217430345E8
:102770004F02444002173403173203173103144346
:10278000021438012D3E014533012D28021738016E
:10279000162902172901172702173303182D012CB8
:1027A0001B02181A010A830222BC0223C2012291D1
:1027B00001229001239602228B01237E022298029D
:1027C000227F02226001237A01245E01234A012232
:1027D0005101236401225701565D01224E01223F1F
:1027E00001224201234A02234001222101230E003B
:1027F0004E0A014C0C014E0901258D0426FF0225CD
:102800008601269D01267501265A01254E00265275
:1028100001266101255E01275201244C01272E006B
:10282000262900252C01296101273B0126290126A3
:102830002101261F00260F01241D01250F00280855
:102840000021050025020118170322A10223AD0271
:10285000228A01226C02228E02228301226A012234
:102860007601237A02225301225501234801234194
:1028700001554E01236E02554501224801234F02A6
:10288000234001242A012333012428012428012480
:102890001800500600490301266F0225B102259B4E
:1028A00001256101265901254C01265E012565019E
:1028B000264D01255101263E00252B0025420127EA
:1028C0004401284E01254201252900292A012628F4
:1028D000012736022918022716014B11024D0A0161
:1028E0004C23014C2B014C49024C72032DE5042D65
:1028F000CD032DC0042D7F042D85042B7E032C6475
:10290000022C5E022D43022D2C022D26022C2F03B9
:102910001345053162092D54051B4C051B42042843
:102920003A03283003272902293F012B3601293C8D
:1029300001252C002316014B180309800325D8021A
:10294000259D01267401257701268601256701262C
:102950008E01265A01263B002632002633012657D7
:1029600001275701284501292F00242200292A0187
:10297000262B01261E01272601261B00270A0121DE
:1029800006015103014B04014D1F0222D10222A76F
:1029900001229A01228201227701236F0122600124
:1029A000226301237502235B01225401226E02225D
:1029B0006D01546801237402235801234201233C12
:1029C00001223901232C0122350122300123190172
:1029D000210D01510A014B0A02234A0325CA02258F
:1029E0007A01267201255700265401256A01265CCA
:1029F00001266D01255901263900263400252F00B6
:102A0000263501273C01273D01273B01273A0227B4
:102A10002B00292901261800261900291701251C39
:102A20000125100127090014710214BC0315D503F8
:102A300015ED0415BD0315A40215850315940315A2
:102A40006802146502145D02154F02155902153B08
:102A500002675701135102144702155202143D0137
:102A6000143201143001152E011220014F07014CC0
:102A700006014D05004D04011865021787036D809E
:102A800004177903176304176504175404174604E1
:102A9000174303424A026D3A036D38036D2A03124D
:102AA00041022D5D024947022D36031747021525C5
:102AB00002172A01172402172502182101181402EF
:102AC0001817011B0B02216902229A02237E0122A0
:102AD0006D01236F02226601226601225C012169D9
:102AE00002097702225602224202225002224402A6
:102AF000257501266B01095302244601233C01235D
:102B00003801223401082C02223901211E024F0D06
:102B1000014D0C014C100126D30226E50226AB0123
:102B2000268F01266A012665012556012796012672
:102B30006C01265001255301263000262800262846
:102B400001274101263601273101272801252801C7
:102B5000251900271601251001251000280B012436
:102B600005015202004A010109600222C00223BF8E
:102B70000222A102228F02228001228501227401F9
:102B8000226C01237401225B012262012270022265
:102B90004A02238402227D02225F02224E01225435
:102BA00001223F012237012234012232013907027A
:102BB0004B0D014E0A01151D0126B301258B01267F
:102BC0007A01255901266001266E01254B012661F7
:102BD00001255000275E01253100263101263C01E8
:102BE000275301285101293F0124230027200125D3
:102BF0001D0026170128330226230128160127115C
:102C000001250B014A0C024D0C024D0501123A033D
:102C10002DB1022D9C022C91022E59022C4C022C1B
:102C20004E022B4C012B4C012C2C022D1B012D167E
:102C3000022D2C012C2B012C26012C16012B13010B
:102C40002C11012C0F012B0F012A350228340125EC
:102C500019002406001A0401131101267C012658CC
:102C6000012651015D6601266301265C01253B00BA
:102C7000262E002539002636002637012637012763
:102C80002F01274B01292B00241D00271901262184
:102C900001251800261B01251200250B0122140115
:102CA0005108004B05014E090109900223AB012395
:102CB000A90222AA0222AA02228702227E022397C6
:102CC00002247301236302237C02235C0123580244
:102CD000248E012564012352015847012136012128
:102CE0003C01223601224001232B01241401280536
:102CF000015009014B060125660226B902269E01F4
:102D0000258801265500255900264201266C0125FB
:102D10005701253B01264701263D0124310128802A
:102D200001274801274501274E01283001252B01A5
:102D3000262901661E01211701291001210F0150CA
:102D40000B013E19033DC70315C50415DD0415AB82
:102D50000215B403157D021577021461021557029E
:102D60001555011542021552021646021446021567
:102D700033021537011535011523011532011521CF
:102D800001152802162901152001142002151D0124
:102D9000151701151902161501151A01140F021540
:102DA0001C01151001141D02160F01151501151136
:102DB00002151301161201151302131B0215160238
:102DC000150E02151002150E01691C0111160113D2
:102DD0001A01141501131101140F01141002141516
:102DE00002141002150D01150C01150B01150F0130
:102DF000150A01150C021510014E02014E02004D7C
:102E000002014D03014D01011C150217DE0417D903
:102E10000317B404179C04179E04179005177C032E
:102E2000176F04175902175403175003176203173B
:102E30003E03174B02173502173C01172D021739B5
:102E400002172902172502172A02172E02182D0130
:102E5000172502172501171F02172102172B02172A
:102E60001C02172002171902431B01171602181E15
:102E700001171302171601171402171602171B0267
:102E80006E1902451C0117130117140217150217BA
:102E90001002170D02170A02170802420802170A49
:102EA00003170902420802420702420702420702D0
:102EB000170802420602170502170502420602170A
:102EC00005024205024205021704021704024205E8
:102ED0000217050217040217040217040242040233
:102EE0001704021704021703021705022C13034DDF
:102EF0003D012C25014A20012B16014A16014A15D5
:102F0000012B1202491E012B0E01491201160F015D
:102F1000180F01491001480D01190F01170B011776
:102F200010015012024A0C014D09014D09014D07D3
:102F3000004E07004C07014D0C014C07014E0901E2
:102F40004D06004C05004D07004C06014D09014C93
:102F500006014E09014D04004D04004D05004D03CE
:102F6000014D06014C03004D05004C03004C0400CC
:102F70004C04004C03004D04014C03014D04004D72
:102F80000B011585013C6701157B01157402147155
:102F900002155C01154301144802153E01153A0162
:102FA000152A01152B0116270115240115300116CC
:102FB0002701151D01151C01161E01151F011416F0
:102FC00001161701151401141B02151A0115110120
:102FD000140E01150F01151601150E01151201151C
:102FE0001401141001141201150E01150C01150A1B
:102FF00001150B021509011507013E060115050112
:103000001507021505011505011505013E040215F8
:1030100005023E03011503013E03011503023E03B1
:10302000013E02021503023E02021503023E0202A5
:103030001502021505022A2A010E39014C32014DF2
:1030400023024E26014E16014F18014A16014C1458
:10305000014F0D014F0F014C0D014F0B024C11019F
:103060004C0E014F0D014E09014B0C014F08004C55
:1030700007004C0A005007014E0E014B0801500C8E
:10308000011C06004C08004F05014F07014A0701CB
:103090004E07014E09014C05004D06004C05004C41
:1030A00005014C07014C07014D06014C04004D037E
:1030B000004C04004C04014D06014C06011991021C
:1030C00017FF0317E20317A40217970317950317B7
:1030D0009904177603177603176002175C021753DB
:1030E00003176E02174803174802173802173B02EE
:1030F000173502173602172A01172502172802175B
:103100002B02182A02172A02172101171E02172262
:1031100003432402171F03182202171902171A016A
:10312000171B02171902171C02171702171801178D
:103130001502171802171402171301421101421148
:1031400002171302171303171402420D02170E0180
:10315000170C01180C02181102170D02430D01176C
:103160000A02180C01170A02180C01180A011808A3
:103170000118090117080317090217080344090178
:103180001904014400011700024A000150000146E1
:1031900000014E00014800014700011400068000B4
:1031A00000080B00020202000009040000010202F4
:1031B0000000052400100105240101010424020679
:1031C00005240600010705810310004009040100E1
:1031D000020A000000070502024000000705830202
:1031E0004000000403090412010002EF0201404103
:1031F00023368000010102030141726475696E6F1C
:10320000204C4C4300414241313130360000A22570
:1032100011241FBECFEFDAE0DEBFCDBF12E0A0E089
:10322000B1E0E0E9F1E702C005900D92A439B107E1
:10323000D9F727E0A4E9B2E001C01D92AA35B20790
:10324000E1F719E1C8E0D9E104C02197FE010E942D
:10325000B938C730D107C9F70E94F7250C94C63892
:103260000C94000040FD4FEF582F87FF02C0680FFD
:1032700050E090E8951B691708F4962F28E331E099
:1032800021FD34E020FD330F22FD3295319580E49D
:10329000A1E081FDA4E080FDAA0F82FDA295A19589
:1032A000732F70956A2F60958FE326952695269546
:1032B000869586958695E5E0F3E0B0E82B9FE00DD6
:1032C000F11D1124E50FF11D821B711101C08F5FEB
:1032D000611101C08F5F50E8591B232F2423362F23
:1032E0003423882319F4A72B32231CC0772349F0F9
:1032F000B92F00800722022A0192BA95D1F7E50F73
:10330000F11D8A9569F0B92FB0FF02C0B39501C0D5
:1033100041934193B250E1F7E50FF11D8A9599F77A
:10332000662331F000800A22032A01929A95D1F790
:103330000895809103028F3F31F081E08093040370
:1033400080E28093030308952F923F924F925F9201
:103350006F927F928F929F92AF92BF92CF92DF92A5
:10336000EF92FF920F931F93CF93DF9300D000D083
:10337000CDB7DEB76A01E62E43E0442EA5E0B3E008
:10338000F22FBB24682E969596959695E1E001FD67
:10339000E4E000FDEE0F02FDE2955FEF5E9F10019D
:1033A00020943094159507951595079515950795D3
:1033B000402F4F3F4CF44095941B40FC440F489FD6
:1033C000C00CD11CEB1C4FEF37FF0BC0620E40FE50
:1033D00002C0220F331FC21AD30AEB0837FDE39451
:1033E000FF2750E845030F0EA00DB11D5F1B6516AA
:1033F00008F0652E57E0541B591714F4952FB39419
:1034000050E85619682F772741FC02C06619770BE0
:1034100040FE02C0660F771F1124A42EFE2E0090DE
:103420000103D00C00900203E01C19C05A9843E03D
:103430004EBDC60ED71EE11C7724861509F0739485
:103440000CD0EEBC07D0DEBC05D0CEBC03D01EBC79
:1034500003D00895C8950000C895C8950895C61A68
:10346000D70AE108E3DFA1141CF0992371F564C0C9
:10347000A058BF4F962C40FC0CC02EB51EBC2F9DF3
:103480008C90832081288D92C89500C09A94A9F7CA
:1034900011C02EB51EBC2F9D9001DEDF2EB41EBCC8
:1034A0002F9C10018C9030948320832A8D92C89594
:1034B0009A9479F71124A619B1099A9509F45CC078
:1034C000772019F00DB45A9AB1DFFD01E058FF4F93
:1034D000962C40FC0EC02EB51EBC2F9D8C908220D9
:1034E00080288D9280808320812881929A9499F7F8
:1034F00016C02EB51EBC2F9D90018C903080AEDF83
:1035000000C02EB41EBC2F9C00948020822A8D9275
:1035100010943120332A319200009A9451F71124EB
:10352000A50FB11D9A9561F6BB2031F1772021F0EE
:103530000DB45A9A7BDFC89540FC0CC02EB51EBC5A
:103540002F9D8C90822080288D92C89500C06A940F
:10355000A9F712C02EB51EBC2F9D90017DDF9EB530
:103560001EBC9F9D902D8C9090958922822A8D92D1
:10357000C8956A9479F7C89511245A9A0DB40F909A
:103580000F900F900F90DF91CF911F910F91FF90AF
:10359000EF90DF90CF90BF90AF909F908F907F90F3
:1035A0006F905F904F903F902F9008950F931F93CF
:1035B000CF93DF93DC018B01CA01B901209155073C
:1035C000211113C021E02093550732E43093C0004D
:1035D0002093C1002FEF2093D1002FE72093CF003D
:1035E00035E43093C2002093D20010920403B093CC
:1035F0000003A093FF02FD013196C491FD01D49117
:103600002C2F22952F702093FE021092FD02109213
:10361000FC021092030221E02093020220E030E03D
:1036200040E353E40E94F4370E946F376093FB023B
:103630000115110599F46C2F70E0762F6627662727
:103640007F706D2B7093FA026093F90284E080938F
:103650007200DF91CF911F910F910895C801880FDB
:10366000991F6DE270E00E949138ECCF20E030E0CD
:1036700040E85FE370E060E00C94D61AE5E0F3E028
:1036800030EB20E146E05C983EBD4A95F1F72EBD57
:1036900020E8239507C0449140815C9A4EBD81117A
:1036A000412D419344912A95B1F73395383B49F721
:1036B00044910DB40895FC018091F802882311F122
:1036C0003FB7F89482E08093E9002091F200822FC6
:1036D00090E01816190614F481E090E0882339F080
:1036E000289844E64093F7024091F100408322235A
:1036F00039F02091F200211103C02BE62093E8005D
:103700003FBF08958FEF9FEF08952FB7F89483E0A0
:103710008093E9009091E800892F807295FF04C0A2
:103720009091F20080E4891B2FBF08958091EF02F1
:1037300081110DC082E08093EB0284E08093EC0263
:103740001092EE021092ED0281E08093EF028BEE78
:1037500092E00895CF93DF931F92CDB7DEB76983D0
:10376000DC01ED91FC910280F381E02D41E050E01D
:10377000BE016F5F7F4F09950F90DF91CF91089544
:1037800083E08093E9008091F200882319F08AE3B6
:103790008093E80008950E94851B90E00895CF93E0
:1037A000DF931F92CDB7DEB7FC018485958597FD29
:1037B00008C02FEF3FEF358724870F90DF91CF911F
:1037C0000895CE0101960E945B1B019719F489812F
:1037D00090E0F3CF8FEF9FEFF0CF0F931F93CF9336
:1037E000DF931F92CDB7DEB78C01FC0184859585F0
:1037F00097FF0BC0CE0101960E945B1B019771F4ED
:10380000898190E0F80195878487F8018485958502
:103810000F90DF91CF911F910F9108958FEF9FEF40
:10382000F1CFFC018485958597FD0BC09FB7F89477
:1038300082E08093E9008091F2009FBF90E00196C2
:1038400008959FB7F89482E08093E9008091F20098
:103850009FBF90E008954091E5025091E6022091CB
:10386000E3023091E40242175307B4F49091E80068
:103870009570E1F39091E80092FD19C08093F100FA
:103880008091E5029091E60201968F739927892B2A
:1038900019F48EEF8093E8008091E5029091E602A2
:1038A00001969093E6028093E50281E0089580E01E
:1038B0000895DF92EF92FF920F931F93CF93DF93C0
:1038C000D82E8A01EB017B01E40EF51ECE15DF0533
:1038D00059F0D7FE12C0FE0184910E942B1C219644
:1038E0008111F4CF0FEF1FEFC801DF91CF911F912E
:1038F0000F91FF90EF90DF9008958881EECF0F93A6
:103900001F93CF93DF931F92CDB7DEB782E08983F9
:1039100042E450E061EA71E380E80E94591C0E9491
:10392000961BDC0112960D911C910115110589F071
:10393000D801ED91FC910280F381E02DBE016F5F13
:103940007F4FC801099597FD04C0F80100851185D6
:10395000ECCF89810F90DF91CF911F910F91089546
:10396000615030F02091F100FC0120830196F8CFE6
:10397000289884E68093F7020895811105C081E0BC
:10398000611106C080E004C0813019F46230D0F3C8
:10399000089581E06330E0F7F5CFAF92BF92CF9208
:1039A000DF92EF92FF920F931F93CF93DF936C01FF
:1039B0007B018B01040F151FEB015E01AE18BF08E0
:1039C000C017D10759F06991D601ED91FC91019092
:1039D000F081E02DC6010995892B79F7C501DF91AA
:1039E000CF911F910F91FF90EF90DF90CF90BF90FC
:1039F000AF9008958FB18095807F669B88601C9BF7
:103A0000846008958EBD00000DB407FEFDCF0895BB
:103A100090E1282F81E061FD84E060FD880F62FD68
:103A20008295687F969FD0011124A20FAB5FBC4F97
:103A30000C90082A40FF08260C9208959091CD0220
:103A4000982329F09091CE02982381E009F080E03C
:103A500008959091CD02982329F49091CE02982355
:103A600081E009F480E008950DB407FEFDCF8EB526
:103A70005A9A08950DB407FEFDCF8EB51EBC089569
:103A80005A980E94581D862F0E94581D852F0E940B
:103A9000581D842F0C94581D462F50910103570F29
:103AA00060910203681F83E00E94401D1EBC0895C0
:103AB0008EBD00008EB50DB407FEFCCF0895FC014D
:103AC0000E94F91D319728F068517C4F8F4F9F4F0E
:103AD000F9CFAB01FC010E94F91D641775078E0731
:103AE0009F07C8F308958F929F92AF92BF92CF9293
:103AF000DF92EF92FF920F931F93CF93DF936C01AE
:103B00007B018A0180910102882309F45AC08091C7
:103B1000F802882309F455C08091EA0280FF05C0AD
:103B20008091E00082608093E000E801B12C8AEF90
:103B3000A82E93E0892E2AE3922E209711F4BB2021
:103B4000C9F10E94851B811108C0AA94AA20C9F15D
:103B500081E090E00E945F1DF0CF8C171D0611F0F0
:103B60000CF08C2F9FB7F8948092E9002091E80028
:103B700025FD02C09FBFE1CF282F30E0C21BD30B31
:103B8000F701815020F041914093F100FACFE20E0D
:103B9000F31EBB2021F09092E800B12CEBCF809176
:103BA000E80085FDE7CF9092E800BB24B39420970E
:103BB00009F3F3CF5D9884E68093E90210161106AD
:103BC0003CF081E090E0F6019383828310E000E016
:103BD000C801DF91CF911F910F91FF90EF90DF907F
:103BE000CF90BF90AF909F908F90089590E00C94ED
:103BF0005F1DA5ECB2E02FB7F8947D918D919C915B
:103C000066B52FBFA89B05C06F3F18F47F5F8F4F2D
:103C10009F4F22E0660F771F881F991F2A95D1F7C3
:103C20000895DC0130E8439FC0011124A80FB91F9B
:103C3000505530E53CBD5C985EBD20D01FD000C023
:103C400080E18EBD1BD01AD019D05C9A30E73CBD04
:103C500080E80E90302D6111372F3C9334913491D0
:103C600002220EBC8A95A9F709D008D053954A952F
:103C700001F704D003D030E50DB43CBD08959F9208
:103C8000AF92BF92CF92DF92EF92FF920F931F936A
:103C9000CF93DF93F82E192F6B01A42EE22E602F05
:103CA0008091E2020E94BD1C982ECF2DD12FAC0E28
:103CB000BD2EB11CEC0CFD2CF11CCA15DB05E4F487
:103CC0008601D7FE02C010E000E0C70121E4E21641
:103CD000F10414F080E490E0081719075CF4C03890
:103CE000D10528F4492DB801CE010E94081D0F5FAF
:103CF0001F4FEBCF2196E1CFDF91CF911F910F9115
:103D0000FF90EF90DF90CF90BF90AF909F9008957D
:103D10006F927F928F929F92AF92BF92CF92DF92DB
:103D2000EF92FF920F931F93CF93DF936D3089F043
:103D3000C090DB02D090DC026A30E1F41092DE0227
:103D40001092DD0288E0C80ED11CD092DC02C09235
:103D5000DB0281E090E0DF91CF911F910F91FF9006
:103D6000EF90DF90CF90BF90AF909F908F907F901B
:103D70006F900895C62FE090DD02F090DE02D091A2
:103D8000E202609109018D2F0E94BD1C082F60E0A6
:103D90008D2F0E94BD1C682E08130EC028E046E03F
:103DA000B601C7010E943F1E86E0E80EF11CF092AA
:103DB000DE02E092DD02CDCFE5E0CE9FE0011124EE
:103DC000C455DF4F570110E0712C153029F0CE019A
:103DD0000196FE017490EC01912C812C462D70FC13
:103DE000402FF0E8AF16B10448F4B601680D791D14
:103DF0006034710518F4C5010E94081D76948FEF98
:103E0000881A980AE8E08E16910441F71F5FFFEFC9
:103E1000AF1ABF0A1630C1F6C7CFFC01362F828514
:103E20009385BC016F5F7F4F73876287618570E008
:103E30000E94A538BC01660F771F680F791F80911B
:103E4000E202880F860F972F911D892B99F48085A8
:103E50009781891718F48F5F80870895158631112F
:103E6000108641119087222329F00E94991981E040
:103E70008093D40208958091D2029091D3021816B3
:103E800019062CF401979093D3028093D20280916B
:103E9000D2029091D302892B39F480910B018111C8
:103EA00003C081E080930B010895AF92BF92CF923F
:103EB000DF92EF92FF920F931F93CF93DF93EC016A
:103EC0005B016901E42E842FB9010E944C1D0E9400
:103ED0003A1DF82E0E94341DC038D1050CF03EC0AA
:103EE00090E4A916B1040CF039C02F2D30E0A901DF
:103EF0004C0F5D1F141615060CF030C0E82FF0E0D3
:103F0000AF014A0D5B1D141615060CF027C0FE2FDD
:103F1000EE27EF29F32B92E0C90ED11CE11C93E0B0
:103F200001151105A1F086958695869590FD880F5F
:103F30008F9D9001219FD00CE11C309FD00CE11C83
:103F4000319FE00C209FC00CD11C1124E11C850185
:103F50009E016E2DA601CF010E94A419DF91CF9181
:103F60001F910F91FF90EF90DF90CF90BF90AF9097
:103F700008951F93CF93DF93EC01162F5C98FE01F9
:103F80008591EF010E94021D1150C9F75C9ADF91E3
:103F9000CF911F910895089590E080E008958F9249
:103FA0009F92AF92BF920F931F93CF93DF93CDB7A2
:103FB000DEB7A1970FB6F894DEBF0FBECDBF19A232
:103FC000423008F44AE08E010F5D1F4F842E912C81
:103FD000B12CA12CA50194010E94CA36E62FB9018B
:103FE000CA01EA3044F5E05DD801EE938D01232B40
:103FF000242B252B79F790E080E0109769F0FD01E4
:1040000001900020E9F73197AF014A1B5B0BBD011E
:1040100086E597E00E94CD1CA1960FB6F894DEBF0E
:104020000FBECDBFDF91CF911F910F91BF90AF9089
:104030009F908F900895E95CD7CFCF92DF92EF9257
:10404000FF92CF93DF9397FF1BC06B017C016DE262
:1040500086E597E00E94881EEC0166277727CB0152
:104060006C197D098E099F094AE00E94CF1F8C0FB1
:104070009D1FDF91CF91FF90EF90DF90CF9008953B
:104080004AE0DF91CF91FF90EF90DF90CF900C94BA
:10409000CF1F0E94263623E030E040E050E00E942F
:1040A00098366F5F7F4F8F4F9F4F6130710541F49E
:1040B00081E0809348021092AA0110929C01089519
:1040C0006230710531F41092480281E08093AA01B8
:1040D000F4CF6330710539F4109248021092AA01AE
:1040E00081E080939C010895CF92DF92EF921F931D
:1040F000CF93DF9384E690E0A0E0B0E080937E0170
:1041000090937F01A0938001B093810111E01093FF
:10411000D8020E9449202CE332E0D90118961C9263
:10412000CEE9D1E0188660E971E0FB0110861092BB
:10413000D4021092D6021092E00210930A01E2E833
:10414000F1E080E3C82E82E5D82EE12CC482D5822E
:10415000E6828CEC91E0DC0119964C91199741872D
:104160001086109259021092580244E050E0509389
:10417000AD014093AC0140E550E04D935C938AE281
:1041800090E0F901938382839B838A83DB011396FA
:104190009C938E931297DF91CF911F91EF90DF90B8
:1041A000CF9008951F920F920FB60F9211248F9304
:1041B0009F938091E1009091E100937F9093E100C3
:1041C00083FF0FC01092E90091E09093EB001092F2
:1041D000EC0092E39093ED001092F80298E0909337
:1041E000F00082FF22C093E09093E9009091F200EA
:1041F000992319F09AE39093E8009091E9029923AA
:1042000041F09091E90291509093E902911101C01F
:104210005D9A9091F702992341F09091F7029150A5
:104220009093F702911101C0289A84FF18C08091E1
:10423000E2008E7E81608093E2008091E1008F7EBB
:104240008093E1008091EA028E7E80618093EA0291
:104250009F918F910F900FBE0F901F90189580FF28
:10426000F7CF8091E2008E7E80618093E2008091A2
:10427000E1008E7E8093E1008091EA028E7E816073
:10428000E5CF1F920F920FB60F921124CF92DF92BB
:10429000EF92FF920F931F932F933F934F935F9350
:1042A0006F937F938F939F93AF93BF93EF93FF93FE
:1042B000CF93DF93CDB7DEB76C97DEBFCDBF109243
:1042C000E9008091E80083FF25C068E0CE014596B3
:1042D0000E94B01C82EF8093E8008D8987FF39C06F
:1042E0009091E80090FFFCCF982F907609F034C1B0
:1042F0009E894F89588D2F89F88C911131C0803853
:1043000061F58091E8028093F1001092F1008EEF48
:104310008093E8006C960FB6F894DEBF0FBECDBF59
:10432000DF91CF91FF91EF91BF91AF919F918F91CD
:104330007F916F915F914F913F912F911F910F91BD
:10434000FF90EF90DF90CF900F900FBE0F901F90D7
:1043500018959EEF9093E800C7CF1092F100D5CF4B
:10436000913059F48111D3CF4130510581F68091BC
:10437000E8028D7F8093E802CACF933049F481111F
:10438000C6CF4130510519F68091E8028260F2CF24
:10439000953041F48091E80080FFFCCF20682093A5
:1043A000E300B5CF963009F0A9C00B8D1C8D22E03B
:1043B0001092E9001092E6021092E502F2122EC06D
:1043C0001092E4021092E3020E947F1C1F8299E087
:1043D0009983FA8291E09E8390EA98879AEF998771
:1043E0002091E5023091E602275F3F4F3C832B830B
:1043F0008D831092E9001092E6021092E50210936C
:10440000E4020093E30249E050E0BE016F5F7F4F9A
:1044100080E00E94591C0E947F1C79CF1093E40217
:104420000093E3020E94961BDC0112960D911C91F1
:104430000115110509F451C1D801ED91FC910480D9
:10444000F581E02DBE016B5E7F4FC8010995009795
:1044500009F03EC1F80100851185EACFF3E0FF12B3
:104460000EC08F89882309F440C0823061F440E88F
:1044700067E085E092E30E946F25811148CF81E2D9
:104480008093EB0047CF813029F440E86BE089EF5F
:1044900091E3F1CF833099F70E94961BDC011296CD
:1044A000ED90FC908E010F5F1F4F6801E114F10445
:1044B00079F0D701ED91FC910680F781E02DB801EC
:1044C000C7010995080F111DF701E084F184EECFB3
:1044D000D8011C92F60101900020E9F73197BF0145
:1044E0006C197D0940E0C601C6CF63EE71E3FB01A4
:1044F000449150E080E80E94591C09CF973009F49C
:10450000BECF983021F481E08093F10000CF993044
:1045100009F0FDCE837009F0B2CFEBE6F2E081E066
:1045200031E096E32191222371F08093E9003093EA
:10453000EB00DF0111972C912093EC009093ED009C
:104540008F5F873079F78EE78093EA001092EA0058
:104550008F898093F802DBCE8B8D9C8D1092E900C1
:104560001092E6021092E5029093E4028093E30237
:10457000898D811192C08E899D89913A49F4813249
:1045800009F07DCF47E050E06AEF71E080E0B3CF03
:10459000913209F074CF833269F48F89988DB0E03D
:1045A000A0E08093F6019093F701A093F801B093F7
:1045B000F901ADCE803269F48091E80082FFFCCF32
:1045C00067E08AEF91E00E94B01C8BEF8093E800D7
:1045D0009ECE823209F09BCE8F8980930102EEEF4E
:1045E000FFE7859194918B3F9C4D51F1E0E0F8E01D
:1045F0008091FA019091FB01A091FC01B091FD0125
:10460000803B9440A105B105F1F48091010280FD49
:104610001AC0EE3F8AE0F80789F587E797E79183AC
:104620008083809160008093E70288E19BE00FB671
:10463000F894A895809360000FBE9093600067CEB9
:10464000EEEFFAE0D5CF808191818737974709F067
:104650005ECEA89580916000886180936000809113
:10466000E70280936000EE3F2AE0F20789F0809134
:10467000FE0A9091FF0A9183808349CE80819181C7
:104680008737980751F29093FF0A8093FE0AC5CFAF
:104690001092FF0A1092FE0A3ACE0E94961BDC018D
:1046A00012960D911C910115110509F4E8CED8015F
:1046B000ED91FC910190F081E02DBE016B5E7F4F8A
:1046C000C8010995811123CEF80100851185EBCF32
:1046D000181619060CF41BCED2CEF1E0FF12BECE96
:1046E00067EE71E304CF0F920FB68F939F93EF9312
:1046F000FF938091C0028D5F8D3708F08D578093B6
:10470000C002E1ECF2E080818E4F808391819F4F67
:10471000918382818F4F828383818F4F8383E5ECE6
:10472000F2E080818F5F808381818F4F81838281DE
:104730008F4F828383818F4F83838FB18F60669980
:104740001C9B88278F3681F48091BF02981B96307E
:1047500068F0E0E0F8E087E78083818388E1809378
:104760006000F0936000FFCF9093BF02FF91EF9144
:104770009F918F910FBE0F9018951F920F920FB6B9
:104780000F921124BF92CF92DF92EF92FF920F937C
:104790001F932F933F934F935F936F937F938F93C9
:1047A0009F93AF93BF93CF93DF93EF93FF93D091FA
:1047B0000302DF3F31F0809102028150E1F08093EB
:1047C0000202FF91EF91DF91CF91BF91AF919F9145
:1047D0008F917F916F915F914F913F912F911F9199
:1047E0000F91FF90EF90DF90CF90BF900F900FBE92
:1047F0000F901F90189584E080930202C0910403EB
:10480000CC2309F438C18091030381116AC08FE77A
:104810008093CF008093D200109272008FEF80932C
:10482000030210920403CDCF242F30E02E5F3F4FC0
:10483000269FC001279F900D369F900D1124209137
:10484000FF0230910003FC013296E20FF31FE49166
:10485000E7FD30C0EC5EE093BE02FC013396E20F50
:10486000F31FE491F0E0F093BD02E093BC0266EA2E
:10487000E62E62E0F62E280F391FB12C00E410E07E
:10488000C12C70E1D72EB416D1F0F90134966491A1
:1048900067FF12C06F776054770BC6010E94A5387E
:1048A000D7016D937D937D01060F171FB3942F5F82
:1048B0003F4FE9CFE0E0CFCF6054770BF1CF2FE748
:1048C000209FC001219F900D11249093BB028093E3
:1048D000BA0240E150E06FE770E086E992E00E94A2
:1048E000BF38ED2FEF70C1116FC06091BE0266231B
:1048F00091F18D2F0E948538911166C02091BC02E4
:104900003091BD024FE7429FC001439F900D11249B
:10491000F090FE0246EA52E030E020E0F0E08F0145
:10492000015011092F1508F052C0DA016D917D91E7
:10493000AD01D801A21BB30BAF70BB27AA56BD4F68
:10494000DC91D69FD001D79FB00D11248A1B9B0B01
:104950002F5F3F4FE7CF2091940230919502D9010C
:10496000AE5FBE4F4C918091000190910101FBE33D
:104970004F9F800D911D1124692F7727460F572FC8
:10498000511D50930101409300018C932F5F3F4FC5
:1049900027303105A0F43093950220939402482FDC
:1049A0004F57550B9A014091BC025091BD02249F74
:1049B000C001259F900D349F900D1124A9CF109216
:1049C000950210929402EBCF90E080E0A1CF20916D
:1049D000BA023091BB02820F931F46E095958795EE
:1049E0004A95E1F78F3F910519F014F08FEF90E0B1
:1049F00097FF02C090E080E0209103032223F1F0B2
:104A0000DC01AF57B109622F70E0C1112CC040E248
:104A100050E0461B570B4A9FC0014B9F900D5A9F79
:104A2000900D112497FD4F9635E0959587953A9511
:104A3000E1F781589F4F215020930303EA56FD4F21
:104A400080838093CF0080818093D2008091030285
:104A50008F5F809303029091FB02891708F4B1CE17
:104A600010920302AECEA69FC001A79F900DB69FE5
:104A7000900D1124D7CFD11134CF4091FE02609117
:104A8000FC027091FD02CB0101969093FD02809390
:104A9000FC022091F9023091FA022817390708F038
:104AA000C3CE81E08093040380E28093030389CE28
:104AB0001F920F920FB60F9211248F939F9383E250
:104AC00098E0909399008093980081E08093CB02C6
:104AD0009F918F910F900FBE0F901F901895EF929E
:104AE000FF920F931F93CF93DF93F82E192FE62E8B
:104AF000042F81E0860F880F0E942B1C83E00E9408
:104B00002B1CCF2DD12FEC0EFD2EF11CCE15DF0569
:104B1000B9F007FF13C0FE0184910E942B1C182FCF
:104B200080E00E942B1C812321968111EFCFDF9121
:104B3000CF911F910F91FF90EF9008958881EDCF55
:104B400081E0F5CFE5E0F7E01382128288EE93E092
:104B5000A0E0B0E084839583A683B78385E792E0E5
:104B6000918380838FEF9FEF95878487E6E5F7E059
:104B70001382128287E892E0918380831092550716
:104B8000EAE4F2E0A8E5B2E08D919C91119740969D
:104B90009183808312968D919C9108979383828351
:104BA000EEE2F2E0ACE3B2E08D919C91119791833B
:104BB000808312968D919C9193838283A0E2B2E0D0
:104BC0002D913C911197E2E1F2E03183208312961E
:104BD0008D919C91AC014250510953834283E4E092
:104BE000F2E031832083089693838283089578943A
:104BF00083E084BD83E085BD81E080936E00E1E8C1
:104C0000F0E083E08083E0E881E08083E1E983E015
:104C10008083E0E981E08083E1EC87E08083E3EC5E
:104C200081E08083E0EC82E08083E2EC81E08083BD
:104C3000EAE787E08083806880831092F802109210
:104C4000E8021092EA028091D70081608093D70039
:104C500080EA8093D80089B5806189BD89B582607A
:104C600089BD09B400FEFDCF81E090E00E945F1D88
:104C70008091D8008F7C80618093D8008091E00083
:104C8000807F8093E0008091E1008E7E8093E10040
:104C90008DE08093E200559A209A81EC80937C000D
:104CA00081E785B987E684B985E38BB98FE38AB953
:104CB000769A6E9880EF81BB10BA80E58CBDC1E01A
:104CC000CDBD85E00E94F61D599A85E00E94F61D33
:104CD0005C98ECE5F6E085910E94021DE636D9F776
:104CE0005C9A81E880936400C093650080E00E9434
:104CF0003E1B0E94FA1C87FF12C05C9885EA0E9446
:104D0000021D5C9A2E9858982D98809164008062BC
:104D10008093640081E083BF889513BEFCCF0E941E
:104D2000FA1C82FF37C02D980E94FA1C84788438C0
:104D3000A1F42D9A88EC0E94F61D58986FEF82E03E
:104D400090E00E94863684EF91E00E945F1D589AA1
:104D50000E94FA1C84788438D9F30E94FA1C84716A
:104D60008431A1F42D9A88EC0E94F61D2E9860E003
:104D700082E090E00E94863684EF91E00E945F1D01
:104D80002E9A0E94FA1C84718431D9F388EC0E9417
:104D9000F61DC5CF2D9A82E090E00E947E368823D2
:104DA00009F4A4C03E9A579A81E090E00E947E36B2
:104DB000182F147081FF0AC011112E98C1EFDFEF78
:104DC0000E94FA1C86FF95C02E9A589A82E30E9490
:104DD000F61D0E94FA1C8111F9CF6AE086E696E082
:104DE0000E94B91F2FB7F89483E298E0909399003E
:104DF0008093980093E0909390008BE180939100D2
:104E000010929500109294008091710082608093BE
:104E100071002FBF909309015B9AE4E1F0E08BEE03
:104E20009DEF60EF7FEF2591359155914591285188
:104E3000354909F4CA018093010390930203259137
:104E40003591559145912851354909F4BA0160933E
:104E5000C9027093CA025A988BEA0E94581D5A9A46
:104E6000809164008E7F8093640080917A008064DA
:104E700080937A0080917A0086FDFCCFC091780003
:104E8000D09179000E94F91DAB01BC01CE01B0E0C8
:104E9000A0E0DC01992788278C019D01040F151FD4
:104EA000261F371FC901B80120916400216020939B
:104EB0006400611571058105910511F00E94753638
:104EC000A8E06A2EA1E27A2E812CF9E1AF2EB12C56
:104ED000F8948091CB028111A7C083B7816083BF12
:104EE0007894889583B78E7F83BFF2CF3E9857988A
:104EF0005BCF112329F0C430D10511F42E9A5898B4
:104F000081E00E943E1B0C2F0770A02EAE0103E033
:104F1000559547950A95E1F79A013695322F222744
:104F2000379527952B5F3C4F70E060E04E3F8FEF49
:104F3000580761F190E080E0DB01A455BA4F790198
:104F4000E0E8EE0EF11CFD01E80FF91FE491F0E03E
:104F50003F010A2C02C0660C771C0A94E2F74F3F0F
:104F6000540739F06901C80ED91EF601B488B62875
:104F7000B48AAA2039F06701C80ED91EF601048947
:104F80000729048B019688359105E9F64F5F5F4F3D
:104F900020583F4F685A7F4F603B710539F680E0DB
:104FA0000E943E1B8FE00E94F61D2196C931D1055B
:104FB00009F006CF112311F0589A2D9880E991E05D
:104FC0000E945F1D2D9A81E090E00E947E3680FF56
:104FD000FDCE8AE090E00E947E369FEF980F9E3FC4
:104FE00008F0F4CE22E330E03093DE022093DD02BD
:104FF00028E330E03093DC022093DB02CAE0D0E00B
:10500000682F86E597E00E94881E2196CE010E94B7
:105010007E36C031D105A1F780E00E943E1B88EEAC
:1050200093E00E945F1DD2CE1092CB027894C09183
:10503000E2022FE741E050E061E070E085E896E0B1
:105040000E94111E62E082E796E00E94B91F2FEFD6
:1050500047E051E061E070E085E093E00E94111EBE
:1050600062E080E796E00E94B91F81E0CC2331F036
:105070008091CC028F5F8093CC0280E08093E2022B
:105080005B9A8091CC02882329F181508093CC02D5
:105090008091CE028093CD020E94FA1C8093CE02B2
:1050A000E091E102E930B0F4F0E0E75AF74D0C94FA
:1050B000B93862288428662ADD2AD32FA72F662FC5
:1050C0002C2AFA2880911101882309F4FDC181500E
:1050D000809311014090E202C42DCC0FEC2EF12CF4
:1050E000E091E102E93010F00C947735F0E0E558FA
:1050F000F74D0C94B938A130AC35AC30CC30843499
:10510000D432873534338029809103028F3F21F4D4
:105110008CE798E10E94361B20E040E061E088EED9
:1051200091E00E940D1F8091D902813009F43FC0A7
:10513000F8F0823079F68CE490E09093E901809366
:10514000E80186E390E09093EB018093EA0180E828
:105150000E94291D882319F081E08093D90288E0FC
:105160000E94291D882311F40C94A73587E01CC0E8
:1051700087E590E09093E9018093E8018FE190E06A
:105180009093EB018093EA0180E10E94291D88231E
:1051900019F081E08093D90288E00E94291D8823BC
:1051A00011F40C94A73582E08093E10293CF8AE555
:1051B00090E09093E9018093E8018BE290E0909376
:1051C000EB018093EA0180E80E94291D8111109271
:1051D000D90280E10E94291D882319F082E0809382
:1051E000D90288E00E94291D882311F40C94A73568
:1051F00088E0DACF8091DF02813009F4F9C008F449
:1052000043C0823009F066CF20E040E061E088EEE4
:1052100091E00E940D1F20E040E061E080E791E016
:105220000E940D1F20E040E061E082E191E00E94D9
:105230000D1F88E00E94291D882371F02AE03FEBB2
:1052400040E020934001309341014093420110928D
:10525000DF0281E08093E10284E00E94291D811138
:1052600006C080E20E94291D882309F433CF8CE018
:1052700097EDA0E08093400190934101A0934201FB
:1052800081E08093DF0226CF20E040E061E08EE203
:1052900091E00E940D1F20E040E061E080E291E09B
:1052A0000E940D1F20E040E061E088EE91E00E9446
:1052B0000D1F20E040E061E082E191E00E940D1FBF
:1052C00088E00E94291D811105C080E40E94291DEB
:1052D000882361F02CE037ED40E0209340013093CB
:1052E00041014093420181E08093DF0284E00E940B
:1052F000291D8111E9C0C091E202CC0FEC2EF12CE6
:105300008091DF02813011F40C94253410F40C9458
:105310007C33823011F00C9477352090400130902E
:10532000410140904201C0903E01D0903F01870171
:10533000442D9101B60190E080E00E94551FD0E01D
:105340008E010D5F1F4F442D9101B60180E490E066
:105350000E94551F80911A0193E0F92E8E018F9DB6
:10536000000D111D112420914E0130914F014091EB
:1053700050016BE270E08DE690E00E94551F809135
:1053800078018E018F9D000D111D11242091740153
:10539000309175014091760160E170E082E790E024
:1053A0000E94551F8091F0018E018F9D000D111DEF
:1053B00011242091EC013091ED014091EE0161E06A
:1053C00070E088E490E00E94551F8091F0018E010A
:1053D0008F9D000D111D11242091EC013091ED01E4
:1053E0004091EE016FE170E08EE590E00C940D3499
:1053F00020E040E061E082E191E00E940D1F88E042
:105400000E94291D811105C080E40E94291D882366
:1054100061F08EE09FEEA0E0809340019093410107
:10542000A093420182E08093DF0284E00E94291D64
:10543000811106C080E20E94291D882309F45BCFF8
:105440000AE01FEB20E000934001109341012093FC
:1054500042011092DF023ECE0E943B1F80910B0161
:105460008823A9F081E0809365010E94263628E612
:1054700031E040E050E00E949836665A7F4F8F4FEF
:105480009F4F7093D3026093D20210920B018091D0
:105490006501882339F020E040E061E088E591E093
:1054A0000E940D1F20E040E061E08AE491E00E944C
:1054B0000D1F88E00E94291D811106C084E00E9412
:1054C000291D882309F406CE81E06ECE88E00E9473
:1054D000291D8823A1F081E08093D8020E944920F1
:1054E00083E08093E10285E190E09093DB0180937B
:1054F000DA018DE190E09093DD018093DC0184E09E
:105500000E94291D882319F081E08093E102809197
:10551000D702813091F1B8F0823009F0DBCD8AE01A
:1055200090E09093DB018093DA018CE290E090931D
:10553000DD018093DC0188EE93E09093100180936D
:105540000F0180E811C08AE090E09093DB01809326
:10555000DA011092DD011092DC0186E990E090936F
:10556000100180930F0180E10E94291D882309F416
:10557000B1CD81E08093D702ADCD8AE090E09093E9
:10558000DB018093DA0188E190E09093DD01809364
:10559000DC018CE291E09093100180930F0180E890
:1055A0000E94291D81111092D70280E10E94291DBD
:1055B000882309F48FCD82E0DDCFC0907E01D090AA
:1055C0007F01E0908001F090810180916B01811159
:1055D0008EC08091D102811182C080E80E94291D75
:1055E000882309F181E08093B40180916C0190914E
:1055F0006D01A0916E01B0916F01AC01BD01475FDB
:105600005F4F6F4F7F4F4C155D056E057F055CF456
:105610000A96A11DB11D80936C0190936D01A0931A
:105620006E01B0936F0180E10E94291D8823D9F09B
:1056300082E08093B40180916C0190916D01A09102
:105640006E01B0916F018B309105A105B1055CF041
:105650000A97A109B10980936C0190936D01A09301
:105660006E01B0936F0180E20E94291D882391F0A2
:1056700083E08093B4018091D402811103C081E062
:105680008093D4028091D402813009F4A4C0815067
:105690008093D40280E20E941E1D81110EC080E41E
:1056A0000E941E1D811109C080E80E941E1D8111EB
:1056B00004C080E10E941E1D81111092B40180E49B
:1056C0000E94291D882359F084E08093B4018091C1
:1056D000D402833009F481C08F5F8093D40280911B
:1056E00003028F3F21F48CE798E10E94361B20E0F3
:1056F00040E061E088E592E00E940D1F20E040E07C
:1057000061E08AE492E00E940D1F20E040E061E049
:1057100088EE91E00E940D1F8091D40280932802B0
:1057200080910F0190911001092E000CAA0BBB0B68
:10573000C816D906EA06FB0674F081E08093D80209
:105740000E9449208CE390E0909369018093680166
:1057500084E08093E10280916B0181110CC0809103
:10576000DA02813009F4CEC0D0F1823009F4D6C11A
:10577000833009F47CC20E943B1F80910B01882377
:10578000B9F081E080931F028093110210920B0107
:105790000E94263620EA30E040E050E00E94983631
:1057A000665A7F4F8F4F9F4F7093D3026093D20200
:1057B000809114029091150220911F02222309F476
:1057C0007DC28E3091050CF065C202969093150251
:1057D0008093140261C283E05BCF81E07ECF88E0DA
:1057E0000E94291D8823C9F18091D102811135C001
:1057F00080917E0190917F01A0918001B091810103
:1058000040916C0150916D0160916E0170916F013A
:1058100084179507A607B70704F121E02093D1026A
:10582000841B950BA60BB70B80937E0190937F0191
:10583000A0938001B09381011092D0028091D40294
:105840008130A1F5809349021092440210924702E0
:105850001092460281E08093DA0288E00E94291DBE
:10586000882309F488CF8091D102811184CF80915F
:10587000E002882309F47FCF91E09093D1028091D8
:105880000A01815080930A011092D0028091D402C3
:10589000813011F580934902109244021092470220
:1058A0001092460281E08093DA0265CF823049F49B
:1058B0002093AB011092A6011092A9011092A801A9
:1058C000C9CF833039F620939D0110929801109230
:1058D0009B0110929A01BECF823049F49093AB01A4
:1058E0001092A6011092A9011092A801DBCF83307B
:1058F000C9F690939D011092980110929B0110920D
:105900009A01D0CFC091D402C130D9F5809149021B
:10591000882309F474C020E041E060E08CE392E069
:105920000E940D1F8091490281112BC080913C0281
:1059300090913D0220913E0230913F0240914802F9
:10594000442309F49DC0049690932F0280932E0265
:10595000309331022093300260923202709233020F
:105960008092340285E08093350282E08093370292
:1059700082E08093DA028EE190E090936901809357
:105980006801C091D402C230D1F58091AB01882367
:1059900009F4F1CE20E041E060E08EE991E00E9460
:1059A0000D1F8091AB0181112AC080919E019091C1
:1059B0009F012091A0013091A1014091AA014423AF
:1059C00009F478C0049690932F0280932E023093AE
:1059D0003102209330026092320270923302809240
:1059E000340285E080933502C093370282E08093D1
:1059F000DA028EE190E090936901809368018091D2
:105A0000D402833009F0B7CE80919D01882309F438
:105A1000B2CE20E041E060E080E991E00E940D1FFD
:105A200080919D018111A7CE80919001909191016B
:105A3000209192013091930140919C01442309F4FB
:105A400054C0049690932F0280932E02309331021B
:105A500020933002609232027092330280923402BC
:105A600085E08093350282E08093370282E0809364
:105A7000DA028EE190E090936901809368017BCE19
:105A8000089790932F0280932E022851310930936A
:105A90003102209330020CE713E721E00093320239
:105AA00010933302209334028DE080933502C0932B
:105AB00037025ECF089790932F0280932E022851D1
:105AC000310930933102209330022CE733E741E073
:105AD0002093320230933302409334028DE080935E
